{
  "_format": "hh-sol-artifact-1",
  "contractName": "PawnableLoan",
  "sourceName": "contracts/PawnableLoan.sol",
  "abi": [
    {
      "inputs": [],
      "stateMutability": "nonpayable",
      "type": "constructor"
    },
    {
      "inputs": [
        {
          "internalType": "address",
          "name": "owner",
          "type": "address"
        }
      ],
      "name": "OwnableInvalidOwner",
      "type": "error"
    },
    {
      "inputs": [
        {
          "internalType": "address",
          "name": "account",
          "type": "address"
        }
      ],
      "name": "OwnableUnauthorizedAccount",
      "type": "error"
    },
    {
      "inputs": [],
      "name": "ReentrancyGuardReentrantCall",
      "type": "error"
    },
    {
      "anonymous": false,
      "inputs": [
        {
          "indexed": true,
          "internalType": "address",
          "name": "token",
          "type": "address"
        },
        {
          "indexed": false,
          "internalType": "uint256",
          "name": "amount",
          "type": "uint256"
        }
      ],
      "name": "FeeCollected",
      "type": "event"
    },
    {
      "anonymous": false,
      "inputs": [
        {
          "indexed": true,
          "internalType": "string",
          "name": "loanId",
          "type": "string"
        },
        {
          "indexed": true,
          "internalType": "address",
          "name": "borrower",
          "type": "address"
        }
      ],
      "name": "LoanCancelled",
      "type": "event"
    },
    {
      "anonymous": false,
      "inputs": [
        {
          "indexed": true,
          "internalType": "string",
          "name": "loanId",
          "type": "string"
        },
        {
          "indexed": true,
          "internalType": "address",
          "name": "lender",
          "type": "address"
        },
        {
          "indexed": false,
          "internalType": "uint256",
          "name": "collateralCount",
          "type": "uint256"
        }
      ],
      "name": "LoanLiquidated",
      "type": "event"
    },
    {
      "anonymous": false,
      "inputs": [
        {
          "indexed": true,
          "internalType": "string",
          "name": "loanId",
          "type": "string"
        },
        {
          "indexed": true,
          "internalType": "address",
          "name": "borrower",
          "type": "address"
        },
        {
          "indexed": true,
          "internalType": "address",
          "name": "lender",
          "type": "address"
        },
        {
          "indexed": false,
          "internalType": "uint256",
          "name": "loanAmount",
          "type": "uint256"
        }
      ],
      "name": "LoanMatched",
      "type": "event"
    },
    {
      "anonymous": false,
      "inputs": [
        {
          "indexed": true,
          "internalType": "string",
          "name": "loanId",
          "type": "string"
        },
        {
          "indexed": true,
          "internalType": "address",
          "name": "borrower",
          "type": "address"
        },
        {
          "indexed": false,
          "internalType": "uint256",
          "name": "repayAmount",
          "type": "uint256"
        }
      ],
      "name": "LoanRepaid",
      "type": "event"
    },
    {
      "anonymous": false,
      "inputs": [
        {
          "indexed": true,
          "internalType": "string",
          "name": "loanId",
          "type": "string"
        },
        {
          "indexed": true,
          "internalType": "address",
          "name": "borrower",
          "type": "address"
        },
        {
          "indexed": false,
          "internalType": "address",
          "name": "loanToken",
          "type": "address"
        },
        {
          "indexed": false,
          "internalType": "uint256",
          "name": "loanAmount",
          "type": "uint256"
        },
        {
          "indexed": false,
          "internalType": "uint256",
          "name": "repayAmount",
          "type": "uint256"
        },
        {
          "indexed": false,
          "internalType": "uint256",
          "name": "dueTimestamp",
          "type": "uint256"
        }
      ],
      "name": "LoanRequested",
      "type": "event"
    },
    {
      "anonymous": false,
      "inputs": [
        {
          "indexed": true,
          "internalType": "address",
          "name": "previousOwner",
          "type": "address"
        },
        {
          "indexed": true,
          "internalType": "address",
          "name": "newOwner",
          "type": "address"
        }
      ],
      "name": "OwnershipTransferred",
      "type": "event"
    },
    {
      "inputs": [],
      "name": "MIN_LOAN_AMOUNT",
      "outputs": [
        {
          "internalType": "uint256",
          "name": "",
          "type": "uint256"
        }
      ],
      "stateMutability": "view",
      "type": "function"
    },
    {
      "inputs": [],
      "name": "MIN_LOAN_DURATION",
      "outputs": [
        {
          "internalType": "uint256",
          "name": "",
          "type": "uint256"
        }
      ],
      "stateMutability": "view",
      "type": "function"
    },
    {
      "inputs": [
        {
          "internalType": "string",
          "name": "loanId",
          "type": "string"
        }
      ],
      "name": "cancelLoan",
      "outputs": [],
      "stateMutability": "nonpayable",
      "type": "function"
    },
    {
      "inputs": [
        {
          "internalType": "address",
          "name": "",
          "type": "address"
        }
      ],
      "name": "collectedFees",
      "outputs": [
        {
          "internalType": "uint256",
          "name": "",
          "type": "uint256"
        }
      ],
      "stateMutability": "view",
      "type": "function"
    },
    {
      "inputs": [
        {
          "internalType": "string",
          "name": "loanId",
          "type": "string"
        }
      ],
      "name": "getLoan",
      "outputs": [
        {
          "components": [
            {
              "internalType": "string",
              "name": "loanId",
              "type": "string"
            },
            {
              "internalType": "address",
              "name": "borrower",
              "type": "address"
            },
            {
              "internalType": "address",
              "name": "lender",
              "type": "address"
            },
            {
              "internalType": "address",
              "name": "loanToken",
              "type": "address"
            },
            {
              "internalType": "uint256",
              "name": "loanAmount",
              "type": "uint256"
            },
            {
              "internalType": "uint256",
              "name": "repayAmount",
              "type": "uint256"
            },
            {
              "internalType": "address",
              "name": "collateralNFT",
              "type": "address"
            },
            {
              "internalType": "uint256[]",
              "name": "collateralTokenIds",
              "type": "uint256[]"
            },
            {
              "internalType": "uint256",
              "name": "dueTimestamp",
              "type": "uint256"
            },
            {
              "internalType": "enum PawnableLoan.LoanStatus",
              "name": "status",
              "type": "uint8"
            },
            {
              "internalType": "uint256",
              "name": "createdAt",
              "type": "uint256"
            },
            {
              "internalType": "uint256",
              "name": "matchedAt",
              "type": "uint256"
            },
            {
              "internalType": "uint256",
              "name": "closedAt",
              "type": "uint256"
            }
          ],
          "internalType": "struct PawnableLoan.Loan",
          "name": "",
          "type": "tuple"
        }
      ],
      "stateMutability": "view",
      "type": "function"
    },
    {
      "inputs": [
        {
          "internalType": "address",
          "name": "user",
          "type": "address"
        }
      ],
      "name": "getUserLoans",
      "outputs": [
        {
          "internalType": "string[]",
          "name": "",
          "type": "string[]"
        }
      ],
      "stateMutability": "view",
      "type": "function"
    },
    {
      "inputs": [
        {
          "internalType": "string",
          "name": "loanId",
          "type": "string"
        }
      ],
      "name": "isLiquidatable",
      "outputs": [
        {
          "internalType": "bool",
          "name": "",
          "type": "bool"
        }
      ],
      "stateMutability": "view",
      "type": "function"
    },
    {
      "inputs": [
        {
          "internalType": "string",
          "name": "loanId",
          "type": "string"
        }
      ],
      "name": "liquidateLoan",
      "outputs": [],
      "stateMutability": "nonpayable",
      "type": "function"
    },
    {
      "inputs": [
        {
          "internalType": "string",
          "name": "",
          "type": "string"
        }
      ],
      "name": "loans",
      "outputs": [
        {
          "internalType": "string",
          "name": "loanId",
          "type": "string"
        },
        {
          "internalType": "address",
          "name": "borrower",
          "type": "address"
        },
        {
          "internalType": "address",
          "name": "lender",
          "type": "address"
        },
        {
          "internalType": "address",
          "name": "loanToken",
          "type": "address"
        },
        {
          "internalType": "uint256",
          "name": "loanAmount",
          "type": "uint256"
        },
        {
          "internalType": "uint256",
          "name": "repayAmount",
          "type": "uint256"
        },
        {
          "internalType": "address",
          "name": "collateralNFT",
          "type": "address"
        },
        {
          "internalType": "uint256",
          "name": "dueTimestamp",
          "type": "uint256"
        },
        {
          "internalType": "enum PawnableLoan.LoanStatus",
          "name": "status",
          "type": "uint8"
        },
        {
          "internalType": "uint256",
          "name": "createdAt",
          "type": "uint256"
        },
        {
          "internalType": "uint256",
          "name": "matchedAt",
          "type": "uint256"
        },
        {
          "internalType": "uint256",
          "name": "closedAt",
          "type": "uint256"
        }
      ],
      "stateMutability": "view",
      "type": "function"
    },
    {
      "inputs": [
        {
          "internalType": "string",
          "name": "loanId",
          "type": "string"
        }
      ],
      "name": "matchLoan",
      "outputs": [],
      "stateMutability": "nonpayable",
      "type": "function"
    },
    {
      "inputs": [],
      "name": "owner",
      "outputs": [
        {
          "internalType": "address",
          "name": "",
          "type": "address"
        }
      ],
      "stateMutability": "view",
      "type": "function"
    },
    {
      "inputs": [],
      "name": "platformFeeBps",
      "outputs": [
        {
          "internalType": "uint256",
          "name": "",
          "type": "uint256"
        }
      ],
      "stateMutability": "view",
      "type": "function"
    },
    {
      "inputs": [],
      "name": "renounceOwnership",
      "outputs": [],
      "stateMutability": "nonpayable",
      "type": "function"
    },
    {
      "inputs": [
        {
          "internalType": "string",
          "name": "loanId",
          "type": "string"
        }
      ],
      "name": "repayLoan",
      "outputs": [],
      "stateMutability": "nonpayable",
      "type": "function"
    },
    {
      "inputs": [
        {
          "internalType": "string",
          "name": "loanId",
          "type": "string"
        },
        {
          "internalType": "address",
          "name": "loanToken",
          "type": "address"
        },
        {
          "internalType": "uint256",
          "name": "loanAmount",
          "type": "uint256"
        },
        {
          "internalType": "uint256",
          "name": "repayAmount",
          "type": "uint256"
        },
        {
          "internalType": "address",
          "name": "collateralNFT",
          "type": "address"
        },
        {
          "internalType": "uint256[]",
          "name": "collateralTokenIds",
          "type": "uint256[]"
        },
        {
          "internalType": "uint256",
          "name": "dueTimestamp",
          "type": "uint256"
        }
      ],
      "name": "requestLoan",
      "outputs": [],
      "stateMutability": "nonpayable",
      "type": "function"
    },
    {
      "inputs": [
        {
          "internalType": "uint256",
          "name": "newFeeBps",
          "type": "uint256"
        }
      ],
      "name": "setPlatformFee",
      "outputs": [],
      "stateMutability": "nonpayable",
      "type": "function"
    },
    {
      "inputs": [
        {
          "internalType": "address",
          "name": "newOwner",
          "type": "address"
        }
      ],
      "name": "transferOwnership",
      "outputs": [],
      "stateMutability": "nonpayable",
      "type": "function"
    },
    {
      "inputs": [
        {
          "internalType": "address",
          "name": "",
          "type": "address"
        },
        {
          "internalType": "uint256",
          "name": "",
          "type": "uint256"
        }
      ],
      "name": "userLoans",
      "outputs": [
        {
          "internalType": "string",
          "name": "",
          "type": "string"
        }
      ],
      "stateMutability": "view",
      "type": "function"
    },
    {
      "inputs": [
        {
          "internalType": "address",
          "name": "token",
          "type": "address"
        }
      ],
      "name": "withdrawFees",
      "outputs": [],
      "stateMutability": "nonpayable",
      "type": "function"
    }
  ],
  "bytecode": "0x60808060405234607e57331560685760008054336001600160a01b0319821681178355916001600160a01b03909116907f8be0079c531659141344cd1fd0a4f28419497f9722a3daafe3b4186f6b6457e09080a360018055600a60045561208190816100848239f35b631e4fbdf760e01b600052600060045260246000fd5b600080fdfe6080604052600436101561001257600080fd5b60003560e01c806302bf321f14611a9f578063035dc3d91461170857806312e8e2c3146116ab578063164e68de146115c557806318a1cc09146113ec5780631cead9a7146113b257806322dcd13e14611394578063513099c614611210578063715018a6146111b75780638258e3d314610b3657806389d99a0514610b185780638da5cb5b14610aef57806396fa212f14610ad1578063c47d258614610838578063c6141f631461071c578063c70f2e2b14610571578063d8bad5bd146104ed578063d947bee41461017b5763f2fde38b146100ed57600080fd5b3461017657602036600319011261017657610106611b88565b61010e612022565b6001600160a01b0316801561016057600080546001600160a01b03198116831782556001600160a01b0316907f8be0079c531659141344cd1fd0a4f28419497f9722a3daafe3b4186f6b6457e09080a3005b631e4fbdf760e01b600052600060045260246000fd5b600080fd5b34610176576020366003190112610176576004356001600160401b038111610176576101ab903690600401611c23565b6101b3612000565b60405160ff6009835192602081818701956101cf818389611b9e565b8101600281520301902001541660058110156104d757610206916101f560209215611df5565b604051809381928651928391611b9e565b81016002815203019020600381019060018060a01b03825416600482019283549061271061023660045484611e37565b049161027560206102478584611e4a565b6040516323b872dd60e01b815233600482015230602482015260448101949094529291829081906064820190565b03816000895af1908115610410576000916104b8575b501561047b57826020926102df9461041c575b505060018501805460405163a9059cbb60e01b81526001600160a01b0390911660048201526024810192909252939092839190829060009082906044820190565b03925af1908115610410576000916103e1575b501561039257816002610360930160018060a01b0333166bffffffffffffffffffffffff60a01b82541617905560098101600160ff19825416179055600b4291015533600052600360205261034b846040600020611fd3565b549154926001600160a01b0390921691611e7c565b6040519283527fdcb74595a412006c9aad3b7ae905952ef1e2c5b1d9e7b1046cde54bfb809360a60203394a460018055005b60405162461bcd60e51b815260206004820152602160248201527f546f6b656e207472616e7366657220746f20626f72726f776572206661696c656044820152601960fa1b6064820152608490fd5b610403915060203d602011610409575b6103fb8183611c02565b810190611e57565b856102f2565b503d6103f1565b6040513d6000823e3d90fd5b837f06c5efeff5c320943d265dc4e5f1af95ad523555ce0c1957e367dda5514572df9160018060a01b03815416600052600582526040600020610460858254611e6f565b9055546040519384526001600160a01b031692a2878061029e565b60405162461bcd60e51b8152602060048201526015602482015274151bdad95b881d1c985b9cd9995c8819985a5b1959605a1b6044820152606490fd5b6104d1915060203d602011610409576103fb8183611c02565b8861028b565b634e487b7160e01b600052602160045260246000fd5b3461017657604036600319011261017657610506611b88565b6001600160a01b031660009081526003602052604090208054602435908110156101765761053391611d7b565b61055b5761054361055791611cd7565b604051918291602083526020830190611bc1565b0390f35b634e487b7160e01b600052600060045260246000fd5b34610176576020366003190112610176576004356001600160401b038111610176576105a1903690600401611c23565b6105a9612000565b6040516105e3825191600160208501936105c4818487611b9e565b82019160028352602081838060a01b0394030190200154163314611da9565b60ff600960405160208186516105fa818389611b9e565b8101600281520301902001541660058110156104d757610620916101f560209215611df5565b60029082019081520301902060098101805460ff1916600417905542600c82015560068101546001600160a01b03169190600781019060010160005b82548110156106e75781546001600160a01b03169061067b8185611d7b565b90549060031b1c91863b15610176576040516323b872dd60e01b81523060048201526001600160a01b039190911660248201526044810192909252600082606481838a5af1918215610410576001926106d6575b500161065c565b60006106e191611c02565b866106cf565b336106f185611e7c565b7fe64b74c222b0e5d5c4f084fd3f5a27b69274a73d3b805b014653748a5e09f06c600080a360018055005b34610176576020366003190112610176576004356001600160401b0381116101765761074c903690600401611c23565b604051818180935160208193019161076392611b9e565b81016002815203602001902061077881611cd7565b60018201546002830154600384015460048501546005860154600687015460088801546009890154600a8a0154600b8b0154600c909b0154604051610180808252909c8d9c6001600160a01b039c8d169c939b919a949960ff9096169896978416969594841693909116916107f091908e0190611bc1565b9a60208d015260408c015260608b015260808a015260a089015260c088015260e0870152610100860161082291611c90565b6101208501526101408401526101608301520390f35b34610176576020366003190112610176576004356001600160401b03811161017657602061086d6108dd923690600401611c23565b600061018060405161087e81611be6565b6060815282858201528260408201528260608201528260808201528260a08201528260c0820152606060e08201528261010082015282610120820152826101408201528261016082015201528160405193828580945193849201611b9e565b81016002815203019020604051906108f482611be6565b6108fd81611cd7565b825260018101546001600160a01b0390811660208085019182526002840154831660408087019182526003860154851660608801908152600487015460808901908152600588015460a08a01908152600689015490971660c08a01908152925160078901805480835260009182528782209783019b949a9899949897939592949293915b818110610abb5750505061099b836101c09a9b0384611c02565b60e08701928352600886015493610100880194855260ff6009880154169a6109c86101208a019c8d611e9c565b600a880154966101408a01978852610a0f600c600b8b01549a6101608d019b8c5201549a61018081019b8c526040519d8e916020835251916101a060208201520190611bc1565b9a516001600160a01b0390811660408e01529051811660608d01529051811660808c0152905160a08b0152905160c08a015290511660e088015251868603601f190161010088015280518087526020968701969091019060005b818110610aa5575050508596610a8c915161012088015251610140870190611c90565b5161016085015251610180840152516101a08301520390f35b8251885260209788019790920191600101610a69565b82548d526020909c019b60019283019201610981565b34610176576000366003190112610176576020604051620f42408152f35b34610176576000366003190112610176576000546040516001600160a01b039091168152602090f35b34610176576000366003190112610176576020604051620151808152f35b346101765760e0366003190112610176576004356001600160401b03811161017657610b66903690600401611c23565b6024356001600160a01b0381168103610176576084356001600160a01b03811692908390036101765760a435906001600160401b038211610176573660238301121561017657816004013591610bbb83611c79565b92610bc96040519485611c02565b8084526024602085019160051b8301019136831161017657602401905b8282106111a757505050610bf8612000565b8051156111705760405160018251610c14818460208701611b9e565b82019160028352602081838060a01b03940301902001541661113257620f4240604435106110f557604435606435111561109a5781511561105c576201518042018042116110465760c43511156110085760005b8251811015610d9e57610c7b8184611ea8565b51604051906331a9108f60e11b82526004820152602081602481895afa90811561041057600091610d56575b50336001600160a01b0390911603610d1e57610cc38184611ea8565b5190853b15610176576040516323b872dd60e01b81523360048201523060248201526044810192909252600082606481838a5af191821561041057600192610d0d575b5001610c68565b6000610d1891611c02565b86610d06565b60405162461bcd60e51b815260206004820152601060248201526f139bdd081bdddb995c881bd98813919560821b6044820152606490fd5b6020813d8211610d96575b81610d6e60209383611c02565b81010312610d925751906001600160a01b0382168203610d8f575086610ca7565b80fd5b5080fd5b3d9150610d61565b50929060405191610dae83611be6565b8483523360208401526000604084015260018060a01b0384166060840152604435608084015260643560a084015260c083015260e082015260c4356101008201526000610120820152426101408201526000610160820152610180810192600084526040516020818351610e258183858801611b9e565b81016002815203019020610e3a835182611ed3565b60208301516001820180546001600160a01b03199081166001600160a01b039384161790915560408501516002840180548316918416919091179055606085015160038401805483169184169190911790556080850151600484015560a0850151600584015560c0850151600684018054909216921691909117905560e083015180519060078301906001600160401b038311610ff257600160401b8311610ff2576020908254848455808510610fd5575b500190600052602060002060005b838110610fc15750505050610100830151600882015560098101926101208101519560058710156104d757610160600c92610f6e9660009960ff80198354169116179055610140810151600a8601550151600b840155519101553384526003602052610f698160408620611fd3565b611e7c565b6040519160018060a01b031682526044356020830152606435604083015260c43560608301527f1d5dfe67e28fff937a5d2a995f0c5d7b0ddbd4705c2dfdab322a870d227dd06660803393a36001805580f35b600190602084519401938184015501610efa565b610fec908460005285846000209182019101611ebc565b89610eec565b634e487b7160e01b600052604160045260246000fd5b60405162461bcd60e51b8152602060048201526016602482015275223ab2903a34b6b2b9ba30b6b8103a37b79039b7b7b760511b6044820152606490fd5b634e487b7160e01b600052601160045260246000fd5b60405162461bcd60e51b8152602060048201526016602482015275139bc818dbdb1b185d195c985b081c1c9bdd9a59195960521b6044820152606490fd5b60405162461bcd60e51b815260206004820152602d60248201527f526570617920616d6f756e74206d75737420626520677265617465722074686160448201526c1b881b1bd85b88185b5bdd5b9d609a1b6064820152608490fd5b60405162461bcd60e51b8152602060048201526015602482015274131bd85b88185b5bdd5b9d081d1bdbc81cdb585b1b605a1b6044820152606490fd5b60405162461bcd60e51b81526020600482015260166024820152754c6f616e20494420616c72656164792065786973747360501b6044820152606490fd5b60405162461bcd60e51b815260206004820152600f60248201526e125b9d985b1a59081b1bd85b881251608a1b6044820152606490fd5b8135815260209182019101610be6565b34610176576000366003190112610176576111d0612022565b600080546001600160a01b0319811682556001600160a01b03167f8be0079c531659141344cd1fd0a4f28419497f9722a3daafe3b4186f6b6457e08280a3005b34610176576020366003190112610176576004356001600160401b038111610176576020611245611258923690600401611c23565b8160405193828580945193849201611b9e565b810160028152030190206040519061126f82611be6565b61127881611cd7565b825260018101546001600160a01b039081166020808501919091526002830154821660408086019190915260038401548316606086015260048401546080860152600584015460a0860152600684015490921660c0850152905160078301805480835260009182528382209293849290830191905b81811061137b57505061130292500382611c02565b60e08301526008810154916101008101928352610180600c60ff6009850154169361133261012085019586611e9c565b600a810154610140850152600b8101546101608501520154910152519060058210156104d7576001602092149081611370575b506040519015158152f35b905051421182611365565b84548352600194850194869450602090930192016112ed565b34610176576000366003190112610176576020600454604051908152f35b34610176576020366003190112610176576001600160a01b036113d3611b88565b1660005260056020526020604060002054604051908152f35b34610176576020366003190112610176576004356001600160401b0381116101765761141c903690600401611c23565b611424612000565b60405160ff600983519260208181870195611440818389611b9e565b8101600281520301902001541660058110156104d757611468916101f5600160209314611df5565b8101600281520301902060088101544211156115895760068101546001600160a01b0316916007820190600283019060005b83548110156115255782546001600160a01b0316906114b98186611d7b565b90549060031b1c91873b15610176576040516323b872dd60e01b81523060048201526001600160a01b039190911660248201526044810192909252600082606481838b5af191821561041057600192611514575b500161149a565b600061151f91611c02565b8761150d565b5060098401805460ff1916600317905542600c850155905491546001600160a01b039290921691907ff1b8949e4896d4133c11d16389f3c895052aea3f32798e8fd296115d24a9884c9060209061157b90611e7c565b92604051908152a360018055005b60405162461bcd60e51b8152602060048201526014602482015273131bd85b881b9bdd081bdd995c991d59481e595d60621b6044820152606490fd5b34610176576020366003190112610176576115de611b88565b6115e6612022565b6001600160a01b03166000818152600560205260409020549081156116705760008181526005602090815260408083208390558254905163a9059cbb60e01b81526001600160a01b03909116600482015260248101949094529183916044918391905af180156104105761165657005b61166e9060203d602011610409576103fb8183611c02565b005b60405162461bcd60e51b81526020600482015260136024820152724e6f206665657320746f20776974686472617760681b6044820152606490fd5b34610176576020366003190112610176576004356116c7612022565b606481116116d457600455005b60405162461bcd60e51b815260206004820152600c60248201526b08ccaca40e8dede40d0d2ced60a31b6044820152606490fd5b34610176576020366003190112610176576004356001600160401b03811161017657611738903690600401611c23565b611740612000565b60405161175b825191600160208501936105c4818487611b9e565b60ff60096040516020818651611772818389611b9e565b8101600281520301902001541660058110156104d75761179a916101f5600160209314611df5565b81016002815203019020906003820160018060a01b03815416600584019182546127106117c960045483611e37565b049261180860206117da8685611e4a565b6040516323b872dd60e01b815233600482015230602482015260448101959095529391829081906064820190565b03816000865af190811561041057600091611a80575b5015611a485783602093611870956119e9575b5050600287015460405163a9059cbb60e01b81526001600160a01b03909116600482015260248101929092529092839190829060009082906044820190565b03925af1908115610410576000916119ca575b50156119855760068301546001600160a01b03169183916007830191600184019160005b84548110156119325783546001600160a01b0316906118c68187611d7b565b90549060031b1c91883b15610176576040516323b872dd60e01b81523060048201526001600160a01b039190911660248201526044810192909252600082606481838c5af191821561041057600192611921575b50016118a7565b600061192c91611c02565b8861191a565b5060098501805460ff1916600217905542600c860155549061195390611e7c565b6040519182527fffe64c5ec0aefbe73dc8a169259738e2b8cb8a537f6dce448f1e932db6f2047960203393a360018055005b60405162461bcd60e51b815260206004820152601960248201527f5472616e7366657220746f206c656e646572206661696c6564000000000000006044820152606490fd5b6119e3915060203d602011610409576103fb8183611c02565b84611883565b847f06c5efeff5c320943d265dc4e5f1af95ad523555ce0c1957e367dda5514572df9160018060a01b03815416600052600582526040600020611a2d858254611e6f565b9055546040519384526001600160a01b031692a28780611831565b60405162461bcd60e51b815260206004820152601060248201526f14995c185e5b595b9d0819985a5b195960821b6044820152606490fd5b611a99915060203d602011610409576103fb8183611c02565b8861181e565b34610176576020366003190112610176576001600160a01b03611ac0611b88565b1660005260036020526040600020805490611ada82611c79565b91611ae86040519384611c02565b80835260208301809260005260206000206000915b838310611b6b57848660405191829160208301906020845251809152604083019060408160051b85010192916000905b828210611b3c57505050500390f35b91936001919395506020611b5b8192603f198a82030186528851611bc1565b9601920192018594939192611b2d565b600160208192611b7a85611cd7565b815201920192019190611afd565b600435906001600160a01b038216820361017657565b60005b838110611bb15750506000910152565b8181015183820152602001611ba1565b90602091611bda81518092818552858086019101611b9e565b601f01601f1916010190565b6101a081019081106001600160401b03821117610ff257604052565b90601f801991011681019081106001600160401b03821117610ff257604052565b81601f82011215610176578035906001600160401b038211610ff25760405192611c57601f8401601f191660200185611c02565b8284526020838301011161017657816000926020809301838601378301015290565b6001600160401b038111610ff25760051b60200190565b9060058210156104d75752565b90600182811c92168015611ccd575b6020831014611cb757565b634e487b7160e01b600052602260045260246000fd5b91607f1691611cac565b9060405191826000825492611ceb84611c9d565b8084529360018116908115611d595750600114611d12575b50611d1092500383611c02565b565b90506000929192526020600020906000915b818310611d3d575050906020611d109282010138611d03565b6020919350806001915483858901015201910190918492611d24565b905060209250611d1094915060ff191682840152151560051b82010138611d03565b8054821015611d935760005260206000200190600090565b634e487b7160e01b600052603260045260246000fd5b15611db057565b60405162461bcd60e51b815260206004820152601b60248201527f4f6e6c7920626f72726f7765722063616e2063616c6c207468697300000000006044820152606490fd5b15611dfc57565b60405162461bcd60e51b8152602060048201526013602482015272496e76616c6964206c6f616e2073746174757360681b6044820152606490fd5b8181029291811591840414171561104657565b9190820391821161104657565b90816020910312610176575180151581036101765790565b9190820180921161104657565b611e9490602060405192828480945193849201611b9e565b810103902090565b60058210156104d75752565b8051821015611d935760209160051b010190565b818110611ec7575050565b60008155600101611ebc565b91909182516001600160401b038111610ff257611ef08254611c9d565b601f8111611f96575b506020601f8211600114611f345781929394600092611f29575b50508160011b916000199060031b1c1916179055565b015190503880611f13565b601f1982169083600052806000209160005b818110611f7e57509583600195969710611f65575b505050811b019055565b015160001960f88460031b161c19169055388080611f5b565b9192602060018192868b015181550194019201611f46565b611fc390836000526020600020601f840160051c81019160208510611fc9575b601f0160051c0190611ebc565b38611ef9565b9091508190611fb6565b8054600160401b811015610ff257611ff091600182018155611d7b565b91909161055b57611d1091611ed3565b600260015414612011576002600155565b633ee5aeb560e01b60005260046000fd5b6000546001600160a01b0316330361203657565b63118cdaa760e01b6000523360045260246000fdfea264697066735822122091ce489b10cb972c12880aadcecbcd2628c03e730bdc91b3b846ea58cf7e918764736f6c634300081b0033",
  "linkReferences": {},
  "deployedLinkReferences": {}
}