{"contracts/PawnableLoanToken.sol":{"PawnableLoanToken":{"abi":[{"inputs":[],"stateMutability":"nonpayable","type":"constructor"},{"inputs":[{"internalType":"address","name":"owner","type":"address"}],"name":"OwnableInvalidOwner","type":"error"},{"inputs":[{"internalType":"address","name":"account","type":"address"}],"name":"OwnableUnauthorizedAccount","type":"error"},{"inputs":[],"name":"ReentrancyGuardReentrantCall","type":"error"},{"anonymous":false,"inputs":[{"indexed":true,"internalType":"address","name":"token","type":"address"},{"indexed":false,"internalType":"uint256","name":"amount","type":"uint256"}],"name":"FeeCollected","type":"event"},{"anonymous":false,"inputs":[{"indexed":true,"internalType":"string","name":"loanId","type":"string"},{"indexed":true,"internalType":"address","name":"borrower","type":"address"}],"name":"LoanCancelled","type":"event"},{"anonymous":false,"inputs":[{"indexed":true,"internalType":"string","name":"loanId","type":"string"},{"indexed":true,"internalType":"address","name":"lender","type":"address"},{"indexed":false,"internalType":"uint256","name":"collateralAmount","type":"uint256"}],"name":"LoanLiquidated","type":"event"},{"anonymous":false,"inputs":[{"indexed":true,"internalType":"string","name":"loanId","type":"string"},{"indexed":true,"internalType":"address","name":"borrower","type":"address"},{"indexed":true,"internalType":"address","name":"lender","type":"address"},{"indexed":false,"internalType":"uint256","name":"loanAmount","type":"uint256"}],"name":"LoanMatched","type":"event"},{"anonymous":false,"inputs":[{"indexed":true,"internalType":"string","name":"loanId","type":"string"},{"indexed":true,"internalType":"address","name":"borrower","type":"address"},{"indexed":false,"internalType":"uint256","name":"repayAmount","type":"uint256"}],"name":"LoanRepaid","type":"event"},{"anonymous":false,"inputs":[{"indexed":true,"internalType":"string","name":"loanId","type":"string"},{"indexed":true,"internalType":"address","name":"borrower","type":"address"},{"indexed":false,"internalType":"address","name":"loanToken","type":"address"},{"indexed":false,"internalType":"uint256","name":"loanAmount","type":"uint256"},{"indexed":false,"internalType":"uint256","name":"repayAmount","type":"uint256"},{"indexed":false,"internalType":"enum PawnableLoanToken.CollateralType","name":"collateralType","type":"uint8"},{"indexed":false,"internalType":"address","name":"collateralToken","type":"address"},{"indexed":false,"internalType":"uint256","name":"collateralAmount","type":"uint256"},{"indexed":false,"internalType":"uint256","name":"dueTimestamp","type":"uint256"}],"name":"LoanRequested","type":"event"},{"anonymous":false,"inputs":[{"indexed":true,"internalType":"address","name":"previousOwner","type":"address"},{"indexed":true,"internalType":"address","name":"newOwner","type":"address"}],"name":"OwnershipTransferred","type":"event"},{"inputs":[],"name":"MIN_LOAN_AMOUNT","outputs":[{"internalType":"uint256","name":"","type":"uint256"}],"stateMutability":"view","type":"function"},{"inputs":[],"name":"MIN_LOAN_DURATION","outputs":[{"internalType":"uint256","name":"","type":"uint256"}],"stateMutability":"view","type":"function"},{"inputs":[],"name":"NATIVE_ETH","outputs":[{"internalType":"address","name":"","type":"address"}],"stateMutability":"view","type":"function"},{"inputs":[{"internalType":"string","name":"loanId","type":"string"}],"name":"cancelLoan","outputs":[],"stateMutability":"nonpayable","type":"function"},{"inputs":[],"name":"collectedETHFees","outputs":[{"internalType":"uint256","name":"","type":"uint256"}],"stateMutability":"view","type":"function"},{"inputs":[{"internalType":"address","name":"","type":"address"}],"name":"collectedTokenFees","outputs":[{"internalType":"uint256","name":"","type":"uint256"}],"stateMutability":"view","type":"function"},{"inputs":[],"name":"getContractETHBalance","outputs":[{"internalType":"uint256","name":"","type":"uint256"}],"stateMutability":"view","type":"function"},{"inputs":[{"internalType":"string","name":"loanId","type":"string"}],"name":"getLoan","outputs":[{"components":[{"internalType":"string","name":"loanId","type":"string"},{"internalType":"address","name":"borrower","type":"address"},{"internalType":"address","name":"lender","type":"address"},{"internalType":"address","name":"loanToken","type":"address"},{"internalType":"uint256","name":"loanAmount","type":"uint256"},{"internalType":"uint256","name":"repayAmount","type":"uint256"},{"internalType":"enum PawnableLoanToken.CollateralType","name":"collateralType","type":"uint8"},{"internalType":"address","name":"collateralToken","type":"address"},{"internalType":"uint256","name":"collateralAmount","type":"uint256"},{"internalType":"uint256","name":"dueTimestamp","type":"uint256"},{"internalType":"enum PawnableLoanToken.LoanStatus","name":"status","type":"uint8"},{"internalType":"uint256","name":"createdAt","type":"uint256"},{"internalType":"uint256","name":"matchedAt","type":"uint256"},{"internalType":"uint256","name":"closedAt","type":"uint256"}],"internalType":"struct PawnableLoanToken.Loan","name":"","type":"tuple"}],"stateMutability":"view","type":"function"},{"inputs":[{"internalType":"address","name":"user","type":"address"}],"name":"getUserLoans","outputs":[{"internalType":"string[]","name":"","type":"string[]"}],"stateMutability":"view","type":"function"},{"inputs":[{"internalType":"string","name":"loanId","type":"string"}],"name":"isLiquidatable","outputs":[{"internalType":"bool","name":"","type":"bool"}],"stateMutability":"view","type":"function"},{"inputs":[{"internalType":"string","name":"loanId","type":"string"}],"name":"liquidateLoan","outputs":[],"stateMutability":"nonpayable","type":"function"},{"inputs":[{"internalType":"string","name":"","type":"string"}],"name":"loans","outputs":[{"internalType":"string","name":"loanId","type":"string"},{"internalType":"address","name":"borrower","type":"address"},{"internalType":"address","name":"lender","type":"address"},{"internalType":"address","name":"loanToken","type":"address"},{"internalType":"uint256","name":"loanAmount","type":"uint256"},{"internalType":"uint256","name":"repayAmount","type":"uint256"},{"internalType":"enum PawnableLoanToken.CollateralType","name":"collateralType","type":"uint8"},{"internalType":"address","name":"collateralToken","type":"address"},{"internalType":"uint256","name":"collateralAmount","type":"uint256"},{"internalType":"uint256","name":"dueTimestamp","type":"uint256"},{"internalType":"enum PawnableLoanToken.LoanStatus","name":"status","type":"uint8"},{"internalType":"uint256","name":"createdAt","type":"uint256"},{"internalType":"uint256","name":"matchedAt","type":"uint256"},{"internalType":"uint256","name":"closedAt","type":"uint256"}],"stateMutability":"view","type":"function"},{"inputs":[{"internalType":"string","name":"loanId","type":"string"}],"name":"matchLoan","outputs":[],"stateMutability":"nonpayable","type":"function"},{"inputs":[],"name":"owner","outputs":[{"internalType":"address","name":"","type":"address"}],"stateMutability":"view","type":"function"},{"inputs":[],"name":"platformFeeBps","outputs":[{"internalType":"uint256","name":"","type":"uint256"}],"stateMutability":"view","type":"function"},{"inputs":[],"name":"renounceOwnership","outputs":[],"stateMutability":"nonpayable","type":"function"},{"inputs":[{"internalType":"string","name":"loanId","type":"string"}],"name":"repayLoan","outputs":[],"stateMutability":"nonpayable","type":"function"},{"inputs":[{"internalType":"string","name":"loanId","type":"string"},{"internalType":"address","name":"loanToken","type":"address"},{"internalType":"uint256","name":"loanAmount","type":"uint256"},{"internalType":"uint256","name":"repayAmount","type":"uint256"},{"internalType":"uint256","name":"dueTimestamp","type":"uint256"}],"name":"requestLoanWithETH","outputs":[],"stateMutability":"payable","type":"function"},{"inputs":[{"internalType":"string","name":"loanId","type":"string"},{"internalType":"address","name":"loanToken","type":"address"},{"internalType":"uint256","name":"loanAmount","type":"uint256"},{"internalType":"uint256","name":"repayAmount","type":"uint256"},{"internalType":"address","name":"collateralToken","type":"address"},{"internalType":"uint256","name":"collateralAmount","type":"uint256"},{"internalType":"uint256","name":"dueTimestamp","type":"uint256"}],"name":"requestLoanWithToken","outputs":[],"stateMutability":"nonpayable","type":"function"},{"inputs":[{"internalType":"uint256","name":"newFeeBps","type":"uint256"}],"name":"setPlatformFee","outputs":[],"stateMutability":"nonpayable","type":"function"},{"inputs":[{"internalType":"address","name":"newOwner","type":"address"}],"name":"transferOwnership","outputs":[],"stateMutability":"nonpayable","type":"function"},{"inputs":[{"internalType":"address","name":"","type":"address"},{"internalType":"uint256","name":"","type":"uint256"}],"name":"userLoans","outputs":[{"internalType":"string","name":"","type":"string"}],"stateMutability":"view","type":"function"},{"inputs":[],"name":"withdrawETHFees","outputs":[],"stateMutability":"nonpayable","type":"function"},{"inputs":[{"internalType":"address","name":"token","type":"address"}],"name":"withdrawTokenFees","outputs":[],"stateMutability":"nonpayable","type":"function"},{"stateMutability":"payable","type":"receive"}],"evm":{"bytecode":{"linkReferences":{},"object":"60808060405234607e57331560685760008054336001600160a01b0319821681178355916001600160a01b03909116907f8be0079c531659141344cd1fd0a4f28419497f9722a3daafe3b4186f6b6457e09080a360018055600a6004556124d390816100848239f35b631e4fbdf760e01b600052600060045260246000fd5b600080fdfe608080604052600436101561001d575b50361561001b57600080fd5b005b60003560e01c908163011e116714611ced5750806302bf321f14611be3578063035dc3d91461183057806312e8e2c3146117d357806318a1cc09146115e257806322dcd13e146115c4578063393da5501461157b5780634923a53714611541578063513099c6146113f2578063715018a61461139957806389d99a051461137b5780638c89a0ad1461135f5780638da5cb5b146113365780638fec80151461103e57806396fa212f14611020578063abdd46a414610bcf578063c47d25861461095f578063c6141f6314610818578063c70f2e2b1461064d578063d8bad5bd146105c9578063d947bee4146102b1578063dfaaeb5414610293578063f2fde38b1461020a5763f62722a014610132573861000f565b34610205576020366003190112610205576101c16020610150611d07565b610158612474565b6001600160a01b031660008181526006835260409020549061017b821515612109565b60008181526006845260408082208290558154905163a9059cbb60e01b81526001600160a01b039091166004820152602481019390935291938492839182906044820190565b03925af180156101f9576101d157005b61001b9060203d6020116101f2575b6101ea8183611d97565b810190611fee565b503d6101e0565b6040513d6000823e3d90fd5b600080fd5b3461020557602036600319011261020557610223611d07565b61022b612474565b6001600160a01b0316801561027d57600080546001600160a01b03198116831782556001600160a01b0316907f8be0079c531659141344cd1fd0a4f28419497f9722a3daafe3b4186f6b6457e09080a3005b631e4fbdf760e01b600052600060045260246000fd5b34610205576000366003190112610205576020600554604051908152f35b34610205576020366003190112610205576004356001600160401b038111610205576102e1903690600401611dd3565b6102e9612452565b60405160ff600983519260208181870195610305818389611d33565b8101600281520301902001541660058110156105b35761033c9161032b60209215611f8c565b604051809381928651928391611d33565b81016002815203019020600381019060018060a01b038254166103a96004830193845461271061036e60045483611fce565b04602061037b8284611fe1565b6040516323b872dd60e01b815233600482015230602482015260448101949094529294859081906064820190565b03816000895af19283156101f9576103cf60209461041696600091610596575b5061240e565b81610537575b505060018501805460405163a9059cbb60e01b81526001600160a01b0390911660048201526024810192909252939092839190829060009082906044820190565b03925af19081156101f957600091610518575b50156104c957816002610497930160018060a01b0333166bffffffffffffffffffffffff60a01b82541617905560098101600160ff19825416179055600b429101553360005260036020526104828460406000206123dc565b549154926001600160a01b03909216916120e9565b6040519283527fdcb74595a412006c9aad3b7ae905952ef1e2c5b1d9e7b1046cde54bfb809360a60203394a460018055005b60405162461bcd60e51b815260206004820152602160248201527f546f6b656e207472616e7366657220746f20626f72726f776572206661696c656044820152601960fa1b6064820152608490fd5b610531915060203d6020116101f2576101ea8183611d97565b85610429565b837f06c5efeff5c320943d265dc4e5f1af95ad523555ce0c1957e367dda5514572df9160018060a01b0381541660005260068252604060002061057b858254612006565b9055546040519384526001600160a01b031692a287806103d5565b6105ad9150863d88116101f2576101ea8183611d97565b8b6103c9565b634e487b7160e01b600052602160045260246000fd5b34610205576040366003190112610205576105e2611d07565b6001600160a01b031660009081526003602052604090208054602435908110156102055761060f91611f12565b6106375761061f61063391611e6e565b604051918291602083526020830190611d56565b0390f35b634e487b7160e01b600052600060045260246000fd5b34610205576020366003190112610205576004356001600160401b0381116102055761067d903690600401611dd3565b610685612452565b6040516106bf825191600160208501936106a0818487611d33565b82019160028352602081838060a01b0394030190200154163314611f40565b60ff600960405160208186516106d6818389611d33565b8101600281520301902001541660058110156105b3576106fc9161032b60209215611f8c565b8101600281520301902060098101600460ff1982541617905542600c820155600681015460ff811660028110156105b3576107935750600080808061075e94600760018060a01b03600183015416910154905af161075861205f565b5061208f565b61076833916120e9565b7fe64b74c222b0e5d5c4f084fd3f5a27b69274a73d3b805b014653748a5e09f06c600080a360018055005b600182015460079092015460405163a9059cbb60e01b81526001600160a01b039093166004840152602483015260209082908160008160448101039260081c6001600160a01b03165af180156101f9576107f4916000916107f9575061240e565b61075e565b610812915060203d6020116101f2576101ea8183611d97565b836103c9565b34610205576020366003190112610205576004356001600160401b03811161020557610848903690600401611dd3565b604051818180935160208193019161085f92611d33565b81016002815203602001902061087481611e6e565b600160a01b6001900360018301541690600160a01b6001900360028401541692600160a01b60019003600382015416906004810154600582015460068301546007840154600885015491600986015460ff1693600a87015495600b88015497600c0154986040519c8d9c8d9c8d6101c081526101c0016108f391611d56565b6020909d015260408d015260608c015260808b015260a08a015261091d60c08a0160ff8316611e1a565b60081c6001600160a01b031660e089015261010088015261012087015261094990610140870190611e27565b6101608501526101808401526101a08301520390f35b34610205576020366003190112610205576004356001600160401b0381116102055761098f903690600401611dd3565b60405161099b81611d7b565b60608152602081016000905260408101600090526060810160009052608081016000905260a081016000905260c081016000905260e08101600090526101008101600090526101208101600090526101408101600090526101608101600090526101808101600090526101a001600090526040518181809351602081930191610a2392611d33565b810160028152036020019020604051610a3b81611d7b565b610a4482611e6e565b815260018201546001600160a01b03908116602083019081526002840154821660408401908152600385015490921660608401908152600485015460808501908152600586015460a0860190815260068701549496939492939260c0870190610ab060ff82168361214b565b600890811c6001600160a01b031660e0890190815260078601546101008a01908152918601546101208a0190815260098701546101408b019591949190610afa9060ff1687612157565b600a880154966101608c01978852600b890154986101808d01998a52600c0154996101a08d019a8b52604051809e819e6020835251602083016101c090526101e08301610b4691611d56565b9d516001600160a01b0390811660408401529051811660609092019190915290511660808d01525160a08c01525160c08b015251610b889060e08b0190611e1a565b516001600160a01b0316610100890152516101208801525161014087015251610bb690610160870190611e27565b51610180850152516101a0840152516101c08301520390f35b346102055760e0366003190112610205576004356001600160401b03811161020557610bff903690600401611dd3565b610c07611d1d565b6084356001600160a01b038116810361020557610c22612452565b610c2e83511515612163565b610c6460405160018551610c46818460208a01611d33565b82019160028352602081838060a01b039403019020015416156121a1565b610c75620f424060443510156121e6565b610c846044356064351161222a565b6001600160a01b03811615610fdb5760a43515610f9d57620151804201804211610f8757610cb59060c4351161228c565b6040516323b872dd60e01b815233600482015230602482015260a435604482015260208160648160006001600160a01b0387165af180156101f957610d0291600091610f68575b50612013565b60405192610d0f84611d7b565b8084523360208501526000604085015260018060a01b0383166060850152604435608085015260643560a0850152600160c085015260018060a01b03821660e085015260a43561010085015260c435610120850152600061014085015242610160850152600061018085015260006101a08501526040516020818351610d988183858801611d33565b81016002815203019020610dad8551826122d1565b60208501516001820180546001600160a01b03199081166001600160a01b0393841617909155604087015160028085018054841692851692909217909155606088015160038501805490931693169290921790556080860151600483015560a0860151600583015560c086015195908610156105b357600095600683015460ff610100600160a81b0360e085015160081b169216906affffffffffffffffffffff60a81b1617176006830155610100810151600783015561012081015160088301556101408101516005811015610f54576101a08392610e96600c936009610ecb9897016120d1565b610160810151600a850155610180810151600b85015501519101553385526003602052610ec681604087206123dc565b6120e9565b604080516001600160a01b03909416845260443560208501526064359084015290600160608401526001600160a01b0316608083015260a43560a083015260c43560c083015233917fd6d9270c14d83576c220036ab5bcc2b4da203644f389dc9e819d7affca2b0e259060e090a36001805580f35b634e487b7160e01b84526021600452602484fd5b634e487b7160e01b87526021600452602487fd5b610f81915060203d6020116101f2576101ea8183611d97565b85610cfc565b634e487b7160e01b600052601160045260246000fd5b60405162461bcd60e51b8152602060048201526016602482015275139bc818dbdb1b185d195c985b081c1c9bdd9a59195960521b6044820152606490fd5b60405162461bcd60e51b815260206004820152601860248201527f496e76616c696420636f6c6c61746572616c20746f6b656e00000000000000006044820152606490fd5b34610205576000366003190112610205576020604051620f42408152f35b60a0366003190112610205576004356001600160401b03811161020557611069903690600401611dd3565b611071611d1d565b90604435608435606435611083612452565b61108f84511515612163565b604051936110ab81519560016020840197610c4681848b611d33565b6110ba620f42408510156121e6565b6110c584831161222a565b34156112f157620151804201804211610f875783116110e39061228c565b6040516110ef81611d7b565b8181528160208201963388526040830197600089526060840199600160a01b600190031698898b52608085019a898c5260a086019b888d5260c087016000815260e088019d60008f526101008901923484526101208a01948d86526101408b0196600088526101608c0198428a526101808d019a8d60008d526101a0019c60008e526040518092819251809261118492611d33565b810160028152036020019020809d5161119c916122d1565b5160018d0180546001600160a01b03199081166001600160a01b039384161790915591516002808f018054851692841692909217909155925160038e0180549093169116179055905160048b0155905160058a0155905160068901918110156105b35760009e60ff835491610100600160a81b03905160081b169216906affffffffffffffffffffff60a81b16171790555160078701555160088601555160058110156112dd579184939161125a600c94600961127f9998016120d1565b51600a85015551600b840155519101553387526003602052610ec681604089206123dc565b92604051948552602085015260408401526002841015610f40578360608401528360808401523460a084015260c08301527fd6d9270c14d83576c220036ab5bcc2b4da203644f389dc9e819d7affca2b0e2560e03393a36001805580f35b634e487b7160e01b8b52602160045260248bfd5b60405162461bcd60e51b815260206004820152601a60248201527f4e6f2045544820636f6c6c61746572616c2070726f76696465640000000000006044820152606490fd5b34610205576000366003190112610205576000546040516001600160a01b039091168152602090f35b3461020557600036600319011261020557602047604051908152f35b34610205576000366003190112610205576020604051620151808152f35b34610205576000366003190112610205576113b2612474565b600080546001600160a01b0319811682556001600160a01b03167f8be0079c531659141344cd1fd0a4f28419497f9722a3daafe3b4186f6b6457e08280a3005b34610205576020366003190112610205576004356001600160401b03811161020557602061142761143a923690600401611dd3565b8160405193828580945193849201611d33565b810160028152030190206040519061145182611d7b565b61145a81611e6e565b825260018101546001600160a01b039081166020840152600282015481166040840152600382015416606083015260048101546080830152600581015460a083015260068101546114b160ff821660c0850161214b565b60018060a01b039060081c1660e0830152600781015461010083015260088101549161012081019283526101a0600c60ff600985015416936114f861014085019586612157565b600a810154610160850152600b8101546101808501520154910152519060058210156105b3576001602092149081611536575b506040519015158152f35b90505142118261152b565b34610205576020366003190112610205576001600160a01b03611562611d07565b1660005260066020526020604060002054604051908152f35b3461020557600036600319011261020557611594612474565b61001b60008080806005546115aa811515612109565b600582905581546001600160a01b03165af161075861205f565b34610205576000366003190112610205576020600454604051908152f35b34610205576020366003190112610205576004356001600160401b03811161020557611612903690600401611dd3565b61161a612452565b60405160ff600983519260208181870195611636818389611d33565b8101600281520301902001541660058110156105b35761165e9161032b600160209314611f8c565b8101600281520301902090600882015442111561179757600682015460ff811660028110156105b35761171257506116b1600080808060018060a01b036002880154166007880154905af161075861205f565b60098201600360ff1982541617905542600c8301557ff1b8949e4896d4133c11d16389f3c895052aea3f32798e8fd296115d24a9884c6020611704600760018060a01b03600287015416950154936120e9565b92604051908152a360018055005b6002830154600784015460405163a9059cbb60e01b81526001600160a01b03909216600483015260248201529060209082908160008160448101039260081c6001600160a01b03165af180156101f957611773916000916117785750612013565b6116b1565b611791915060203d6020116101f2576101ea8183611d97565b84610cfc565b60405162461bcd60e51b8152602060048201526014602482015273131bd85b881b9bdd081bdd995c991d59481e595d60621b6044820152606490fd5b34610205576020366003190112610205576004356117ef612474565b606481116117fc57600455005b60405162461bcd60e51b815260206004820152600c60248201526b08ccaca40e8dede40d0d2ced60a31b6044820152606490fd5b34610205576020366003190112610205576004356001600160401b03811161020557611860903690600401611dd3565b611868612452565b604051611883825191600160208501936106a0818487611d33565b60ff6009604051602081865161189a818389611d33565b8101600281520301902001541660058110156105b3576118c29161032b600160209314611f8c565b810160028152030190206003810160018060a01b03815416600583019182546127106118f060045483611fce565b049261192f60206119018685611fe1565b6040516323b872dd60e01b815233600482015230602482015260448101959095529391829081906064820190565b03816000865af19081156101f957600091611bc4575b5015611b8c578360209361199795611b2d575b5050600286015460405163a9059cbb60e01b81526001600160a01b03909116600482015260248101929092529092839190829060009082906044820190565b03925af19081156101f957600091611b0e575b5015611ac95760068201549160ff831660028110156105b357611a3f57611a0d92506119f1600080808060018060a01b036001870154166007870154905af161075861205f565b60098101600260ff19825416179055600c4291015554916120e9565b6040519182527fffe64c5ec0aefbe73dc8a169259738e2b8cb8a537f6dce448f1e932db6f2047960203393a360018055005b6001810154600782015460405163a9059cbb60e01b81526001600160a01b03909216600483015260248201529260209084908160008160448101039260081c6001600160a01b03165af19283156101f957611a0d93611aa591600091611aaa5750612013565b6119f1565b611ac3915060203d6020116101f2576101ea8183611d97565b86610cfc565b60405162461bcd60e51b815260206004820152601960248201527f5472616e7366657220746f206c656e646572206661696c6564000000000000006044820152606490fd5b611b27915060203d6020116101f2576101ea8183611d97565b846119aa565b847f06c5efeff5c320943d265dc4e5f1af95ad523555ce0c1957e367dda5514572df9160018060a01b03815416600052600682526040600020611b71858254612006565b9055546040519384526001600160a01b031692a28780611958565b60405162461bcd60e51b815260206004820152601060248201526f14995c185e5b595b9d0819985a5b195960821b6044820152606490fd5b611bdd915060203d6020116101f2576101ea8183611d97565b88611945565b34610205576020366003190112610205576001600160a01b03611c04611d07565b16600052600360205260406000208054906001600160401b038211611cd75760405191611c3760208260051b0184611d97565b80835260208301809260005260206000206000915b838310611cba57848660405191829160208301906020845251809152604083019060408160051b85010192916000905b828210611c8b57505050500390f35b91936001919395506020611caa8192603f198a82030186528851611d56565b9601920192018594939192611c7c565b600160208192611cc985611e6e565b815201920192019190611c4c565b634e487b7160e01b600052604160045260246000fd5b346102055760003660031901126102055780600060209252f35b600435906001600160a01b038216820361020557565b602435906001600160a01b038216820361020557565b60005b838110611d465750506000910152565b8181015183820152602001611d36565b90602091611d6f81518092818552858086019101611d33565b601f01601f1916010190565b6101c081019081106001600160401b03821117611cd757604052565b90601f801991011681019081106001600160401b03821117611cd757604052565b6001600160401b038111611cd757601f01601f191660200190565b81601f8201121561020557803590611dea82611db8565b92611df86040519485611d97565b8284526020838301011161020557816000926020809301838601378301015290565b9060028210156105b35752565b9060058210156105b35752565b90600182811c92168015611e64575b6020831014611e4e57565b634e487b7160e01b600052602260045260246000fd5b91607f1691611e43565b9060405191826000825492611e8284611e34565b8084529360018116908115611ef05750600114611ea9575b50611ea792500383611d97565b565b90506000929192526020600020906000915b818310611ed4575050906020611ea79282010138611e9a565b6020919350806001915483858901015201910190918492611ebb565b905060209250611ea794915060ff191682840152151560051b82010138611e9a565b8054821015611f2a5760005260206000200190600090565b634e487b7160e01b600052603260045260246000fd5b15611f4757565b60405162461bcd60e51b815260206004820152601b60248201527f4f6e6c7920626f72726f7765722063616e2063616c6c207468697300000000006044820152606490fd5b15611f9357565b60405162461bcd60e51b8152602060048201526013602482015272496e76616c6964206c6f616e2073746174757360681b6044820152606490fd5b81810292918115918404141715610f8757565b91908203918211610f8757565b90816020910312610205575180151581036102055790565b91908201809211610f8757565b1561201a57565b60405162461bcd60e51b815260206004820152601a60248201527f436f6c6c61746572616c207472616e73666572206661696c65640000000000006044820152606490fd5b3d1561208a573d9061207082611db8565b9161207e6040519384611d97565b82523d6000602084013e565b606090565b1561209657565b60405162461bcd60e51b8152602060048201526013602482015272115512081d1c985b9cd9995c8819985a5b1959606a1b6044820152606490fd5b9060058110156105b35760ff80198354169116179055565b61210190602060405192828480945193849201611d33565b810103902090565b1561211057565b60405162461bcd60e51b81526020600482015260136024820152724e6f206665657320746f20776974686472617760681b6044820152606490fd5b60028210156105b35752565b60058210156105b35752565b1561216a57565b60405162461bcd60e51b815260206004820152600f60248201526e125b9d985b1a59081b1bd85b881251608a1b6044820152606490fd5b156121a857565b60405162461bcd60e51b81526020600482015260166024820152754c6f616e20494420616c72656164792065786973747360501b6044820152606490fd5b156121ed57565b60405162461bcd60e51b8152602060048201526015602482015274131bd85b88185b5bdd5b9d081d1bdbc81cdb585b1b605a1b6044820152606490fd5b1561223157565b60405162461bcd60e51b815260206004820152602d60248201527f526570617920616d6f756e74206d75737420626520677265617465722074686160448201526c1b881b1bd85b88185b5bdd5b9d609a1b6064820152608490fd5b1561229357565b60405162461bcd60e51b8152602060048201526016602482015275223ab2903a34b6b2b9ba30b6b8103a37b79039b7b7b760511b6044820152606490fd5b91909182516001600160401b038111611cd7576122ee8254611e34565b601f8111612394575b506020601f82116001146123325781929394600092612327575b50508160011b916000199060031b1c1916179055565b015190503880612311565b601f1982169083600052806000209160005b81811061237c57509583600195969710612363575b505050811b019055565b015160001960f88460031b161c19169055388080612359565b9192602060018192868b015181550194019201612344565b826000526020600020601f830160051c810191602084106123d2575b601f0160051c01905b8181106123c657506122f7565b600081556001016123b9565b90915081906123b0565b805468010000000000000000811015611cd7576123fe91600182018155611f12565b91909161063757611ea7916122d1565b1561241557565b60405162461bcd60e51b8152602060048201526015602482015274151bdad95b881d1c985b9cd9995c8819985a5b1959605a1b6044820152606490fd5b600260015414612463576002600155565b633ee5aeb560e01b60005260046000fd5b6000546001600160a01b0316330361248857565b63118cdaa760e01b6000523360045260246000fdfea2646970667358221220fad970cfa47795a676d1407f13ddd5f6db578f5537ded45847a00b65f187e3bf64736f6c634300081b0033","opcodes":"PUSH1 0x80 DUP1 PUSH1 0x40 MSTORE CALLVALUE PUSH1 0x7E JUMPI CALLER ISZERO PUSH1 0x68 JUMPI PUSH1 0x0 DUP1 SLOAD CALLER PUSH1 0x1 PUSH1 0x1 PUSH1 0xA0 SHL SUB NOT DUP3 AND DUP2 OR DUP4 SSTORE SWAP2 PUSH1 0x1 PUSH1 0x1 PUSH1 0xA0 SHL SUB SWAP1 SWAP2 AND SWAP1 PUSH32 0x8BE0079C531659141344CD1FD0A4F28419497F9722A3DAAFE3B4186F6B6457E0 SWAP1 DUP1 LOG3 PUSH1 0x1 DUP1 SSTORE PUSH1 0xA PUSH1 0x4 SSTORE PUSH2 0x24D3 SWAP1 DUP2 PUSH2 0x84 DUP3 CODECOPY RETURN JUMPDEST PUSH4 0x1E4FBDF7 PUSH1 0xE0 SHL PUSH1 0x0 MSTORE PUSH1 0x0 PUSH1 0x4 MSTORE PUSH1 0x24 PUSH1 0x0 REVERT JUMPDEST PUSH1 0x0 DUP1 REVERT INVALID PUSH1 0x80 DUP1 PUSH1 0x40 MSTORE PUSH1 0x4 CALLDATASIZE LT ISZERO PUSH2 0x1D JUMPI JUMPDEST POP CALLDATASIZE ISZERO PUSH2 0x1B JUMPI PUSH1 0x0 DUP1 REVERT JUMPDEST STOP JUMPDEST PUSH1 0x0 CALLDATALOAD PUSH1 0xE0 SHR SWAP1 DUP2 PUSH4 0x11E1167 EQ PUSH2 0x1CED JUMPI POP DUP1 PUSH4 0x2BF321F EQ PUSH2 0x1BE3 JUMPI DUP1 PUSH4 0x35DC3D9 EQ PUSH2 0x1830 JUMPI DUP1 PUSH4 0x12E8E2C3 EQ PUSH2 0x17D3 JUMPI DUP1 PUSH4 0x18A1CC09 EQ PUSH2 0x15E2 JUMPI DUP1 PUSH4 0x22DCD13E EQ PUSH2 0x15C4 JUMPI DUP1 PUSH4 0x393DA550 EQ PUSH2 0x157B JUMPI DUP1 PUSH4 0x4923A537 EQ PUSH2 0x1541 JUMPI DUP1 PUSH4 0x513099C6 EQ PUSH2 0x13F2 JUMPI DUP1 PUSH4 0x715018A6 EQ PUSH2 0x1399 JUMPI DUP1 PUSH4 0x89D99A05 EQ PUSH2 0x137B JUMPI DUP1 PUSH4 0x8C89A0AD EQ PUSH2 0x135F JUMPI DUP1 PUSH4 0x8DA5CB5B EQ PUSH2 0x1336 JUMPI DUP1 PUSH4 0x8FEC8015 EQ PUSH2 0x103E JUMPI DUP1 PUSH4 0x96FA212F EQ PUSH2 0x1020 JUMPI DUP1 PUSH4 0xABDD46A4 EQ PUSH2 0xBCF JUMPI DUP1 PUSH4 0xC47D2586 EQ PUSH2 0x95F JUMPI DUP1 PUSH4 0xC6141F63 EQ PUSH2 0x818 JUMPI DUP1 PUSH4 0xC70F2E2B EQ PUSH2 0x64D JUMPI DUP1 PUSH4 0xD8BAD5BD EQ PUSH2 0x5C9 JUMPI DUP1 PUSH4 0xD947BEE4 EQ PUSH2 0x2B1 JUMPI DUP1 PUSH4 0xDFAAEB54 EQ PUSH2 0x293 JUMPI DUP1 PUSH4 0xF2FDE38B EQ PUSH2 0x20A JUMPI PUSH4 0xF62722A0 EQ PUSH2 0x132 JUMPI CODESIZE PUSH2 0xF JUMP JUMPDEST CALLVALUE PUSH2 0x205 JUMPI PUSH1 0x20 CALLDATASIZE PUSH1 0x3 NOT ADD SLT PUSH2 0x205 JUMPI PUSH2 0x1C1 PUSH1 0x20 PUSH2 0x150 PUSH2 0x1D07 JUMP JUMPDEST PUSH2 0x158 PUSH2 0x2474 JUMP JUMPDEST PUSH1 0x1 PUSH1 0x1 PUSH1 0xA0 SHL SUB AND PUSH1 0x0 DUP2 DUP2 MSTORE PUSH1 0x6 DUP4 MSTORE PUSH1 0x40 SWAP1 KECCAK256 SLOAD SWAP1 PUSH2 0x17B DUP3 ISZERO ISZERO PUSH2 0x2109 JUMP JUMPDEST PUSH1 0x0 DUP2 DUP2 MSTORE PUSH1 0x6 DUP5 MSTORE PUSH1 0x40 DUP1 DUP3 KECCAK256 DUP3 SWAP1 SSTORE DUP2 SLOAD SWAP1 MLOAD PUSH4 0xA9059CBB PUSH1 0xE0 SHL DUP2 MSTORE PUSH1 0x1 PUSH1 0x1 PUSH1 0xA0 SHL SUB SWAP1 SWAP2 AND PUSH1 0x4 DUP3 ADD MSTORE PUSH1 0x24 DUP2 ADD SWAP4 SWAP1 SWAP4 MSTORE SWAP2 SWAP4 DUP5 SWAP3 DUP4 SWAP2 DUP3 SWAP1 PUSH1 0x44 DUP3 ADD SWAP1 JUMP JUMPDEST SUB SWAP3 GAS CALL DUP1 ISZERO PUSH2 0x1F9 JUMPI PUSH2 0x1D1 JUMPI STOP JUMPDEST PUSH2 0x1B SWAP1 PUSH1 0x20 RETURNDATASIZE PUSH1 0x20 GT PUSH2 0x1F2 JUMPI JUMPDEST PUSH2 0x1EA DUP2 DUP4 PUSH2 0x1D97 JUMP JUMPDEST DUP2 ADD SWAP1 PUSH2 0x1FEE JUMP JUMPDEST POP RETURNDATASIZE PUSH2 0x1E0 JUMP JUMPDEST PUSH1 0x40 MLOAD RETURNDATASIZE PUSH1 0x0 DUP3 RETURNDATACOPY RETURNDATASIZE SWAP1 REVERT JUMPDEST PUSH1 0x0 DUP1 REVERT JUMPDEST CALLVALUE PUSH2 0x205 JUMPI PUSH1 0x20 CALLDATASIZE PUSH1 0x3 NOT ADD SLT PUSH2 0x205 JUMPI PUSH2 0x223 PUSH2 0x1D07 JUMP JUMPDEST PUSH2 0x22B PUSH2 0x2474 JUMP JUMPDEST PUSH1 0x1 PUSH1 0x1 PUSH1 0xA0 SHL SUB AND DUP1 ISZERO PUSH2 0x27D JUMPI PUSH1 0x0 DUP1 SLOAD PUSH1 0x1 PUSH1 0x1 PUSH1 0xA0 SHL SUB NOT DUP2 AND DUP4 OR DUP3 SSTORE PUSH1 0x1 PUSH1 0x1 PUSH1 0xA0 SHL SUB AND SWAP1 PUSH32 0x8BE0079C531659141344CD1FD0A4F28419497F9722A3DAAFE3B4186F6B6457E0 SWAP1 DUP1 LOG3 STOP JUMPDEST PUSH4 0x1E4FBDF7 PUSH1 0xE0 SHL PUSH1 0x0 MSTORE PUSH1 0x0 PUSH1 0x4 MSTORE PUSH1 0x24 PUSH1 0x0 REVERT JUMPDEST CALLVALUE PUSH2 0x205 JUMPI PUSH1 0x0 CALLDATASIZE PUSH1 0x3 NOT ADD SLT PUSH2 0x205 JUMPI PUSH1 0x20 PUSH1 0x5 SLOAD PUSH1 0x40 MLOAD SWAP1 DUP2 MSTORE RETURN JUMPDEST CALLVALUE PUSH2 0x205 JUMPI PUSH1 0x20 CALLDATASIZE PUSH1 0x3 NOT ADD SLT PUSH2 0x205 JUMPI PUSH1 0x4 CALLDATALOAD PUSH1 0x1 PUSH1 0x1 PUSH1 0x40 SHL SUB DUP2 GT PUSH2 0x205 JUMPI PUSH2 0x2E1 SWAP1 CALLDATASIZE SWAP1 PUSH1 0x4 ADD PUSH2 0x1DD3 JUMP JUMPDEST PUSH2 0x2E9 PUSH2 0x2452 JUMP JUMPDEST PUSH1 0x40 MLOAD PUSH1 0xFF PUSH1 0x9 DUP4 MLOAD SWAP3 PUSH1 0x20 DUP2 DUP2 DUP8 ADD SWAP6 PUSH2 0x305 DUP2 DUP4 DUP10 PUSH2 0x1D33 JUMP JUMPDEST DUP2 ADD PUSH1 0x2 DUP2 MSTORE SUB ADD SWAP1 KECCAK256 ADD SLOAD AND PUSH1 0x5 DUP2 LT ISZERO PUSH2 0x5B3 JUMPI PUSH2 0x33C SWAP2 PUSH2 0x32B PUSH1 0x20 SWAP3 ISZERO PUSH2 0x1F8C JUMP JUMPDEST PUSH1 0x40 MLOAD DUP1 SWAP4 DUP2 SWAP3 DUP7 MLOAD SWAP3 DUP4 SWAP2 PUSH2 0x1D33 JUMP JUMPDEST DUP2 ADD PUSH1 0x2 DUP2 MSTORE SUB ADD SWAP1 KECCAK256 PUSH1 0x3 DUP2 ADD SWAP1 PUSH1 0x1 DUP1 PUSH1 0xA0 SHL SUB DUP3 SLOAD AND PUSH2 0x3A9 PUSH1 0x4 DUP4 ADD SWAP4 DUP5 SLOAD PUSH2 0x2710 PUSH2 0x36E PUSH1 0x4 SLOAD DUP4 PUSH2 0x1FCE JUMP JUMPDEST DIV PUSH1 0x20 PUSH2 0x37B DUP3 DUP5 PUSH2 0x1FE1 JUMP JUMPDEST PUSH1 0x40 MLOAD PUSH4 0x23B872DD PUSH1 0xE0 SHL DUP2 MSTORE CALLER PUSH1 0x4 DUP3 ADD MSTORE ADDRESS PUSH1 0x24 DUP3 ADD MSTORE PUSH1 0x44 DUP2 ADD SWAP5 SWAP1 SWAP5 MSTORE SWAP3 SWAP5 DUP6 SWAP1 DUP2 SWAP1 PUSH1 0x64 DUP3 ADD SWAP1 JUMP JUMPDEST SUB DUP2 PUSH1 0x0 DUP10 GAS CALL SWAP3 DUP4 ISZERO PUSH2 0x1F9 JUMPI PUSH2 0x3CF PUSH1 0x20 SWAP5 PUSH2 0x416 SWAP7 PUSH1 0x0 SWAP2 PUSH2 0x596 JUMPI JUMPDEST POP PUSH2 0x240E JUMP JUMPDEST DUP2 PUSH2 0x537 JUMPI JUMPDEST POP POP PUSH1 0x1 DUP6 ADD DUP1 SLOAD PUSH1 0x40 MLOAD PUSH4 0xA9059CBB PUSH1 0xE0 SHL DUP2 MSTORE PUSH1 0x1 PUSH1 0x1 PUSH1 0xA0 SHL SUB SWAP1 SWAP2 AND PUSH1 0x4 DUP3 ADD MSTORE PUSH1 0x24 DUP2 ADD SWAP3 SWAP1 SWAP3 MSTORE SWAP4 SWAP1 SWAP3 DUP4 SWAP2 SWAP1 DUP3 SWAP1 PUSH1 0x0 SWAP1 DUP3 SWAP1 PUSH1 0x44 DUP3 ADD SWAP1 JUMP JUMPDEST SUB SWAP3 GAS CALL SWAP1 DUP2 ISZERO PUSH2 0x1F9 JUMPI PUSH1 0x0 SWAP2 PUSH2 0x518 JUMPI JUMPDEST POP ISZERO PUSH2 0x4C9 JUMPI DUP2 PUSH1 0x2 PUSH2 0x497 SWAP4 ADD PUSH1 0x1 DUP1 PUSH1 0xA0 SHL SUB CALLER AND PUSH12 0xFFFFFFFFFFFFFFFFFFFFFFFF PUSH1 0xA0 SHL DUP3 SLOAD AND OR SWAP1 SSTORE PUSH1 0x9 DUP2 ADD PUSH1 0x1 PUSH1 0xFF NOT DUP3 SLOAD AND OR SWAP1 SSTORE PUSH1 0xB TIMESTAMP SWAP2 ADD SSTORE CALLER PUSH1 0x0 MSTORE PUSH1 0x3 PUSH1 0x20 MSTORE PUSH2 0x482 DUP5 PUSH1 0x40 PUSH1 0x0 KECCAK256 PUSH2 0x23DC JUMP JUMPDEST SLOAD SWAP2 SLOAD SWAP3 PUSH1 0x1 PUSH1 0x1 PUSH1 0xA0 SHL SUB SWAP1 SWAP3 AND SWAP2 PUSH2 0x20E9 JUMP JUMPDEST PUSH1 0x40 MLOAD SWAP3 DUP4 MSTORE PUSH32 0xDCB74595A412006C9AAD3B7AE905952EF1E2C5B1D9E7B1046CDE54BFB809360A PUSH1 0x20 CALLER SWAP5 LOG4 PUSH1 0x1 DUP1 SSTORE STOP JUMPDEST PUSH1 0x40 MLOAD PUSH3 0x461BCD PUSH1 0xE5 SHL DUP2 MSTORE PUSH1 0x20 PUSH1 0x4 DUP3 ADD MSTORE PUSH1 0x21 PUSH1 0x24 DUP3 ADD MSTORE PUSH32 0x546F6B656E207472616E7366657220746F20626F72726F776572206661696C65 PUSH1 0x44 DUP3 ADD MSTORE PUSH1 0x19 PUSH1 0xFA SHL PUSH1 0x64 DUP3 ADD MSTORE PUSH1 0x84 SWAP1 REVERT JUMPDEST PUSH2 0x531 SWAP2 POP PUSH1 0x20 RETURNDATASIZE PUSH1 0x20 GT PUSH2 0x1F2 JUMPI PUSH2 0x1EA DUP2 DUP4 PUSH2 0x1D97 JUMP JUMPDEST DUP6 PUSH2 0x429 JUMP JUMPDEST DUP4 PUSH32 0x6C5EFEFF5C320943D265DC4E5F1AF95AD523555CE0C1957E367DDA5514572DF SWAP2 PUSH1 0x1 DUP1 PUSH1 0xA0 SHL SUB DUP2 SLOAD AND PUSH1 0x0 MSTORE PUSH1 0x6 DUP3 MSTORE PUSH1 0x40 PUSH1 0x0 KECCAK256 PUSH2 0x57B DUP6 DUP3 SLOAD PUSH2 0x2006 JUMP JUMPDEST SWAP1 SSTORE SLOAD PUSH1 0x40 MLOAD SWAP4 DUP5 MSTORE PUSH1 0x1 PUSH1 0x1 PUSH1 0xA0 SHL SUB AND SWAP3 LOG2 DUP8 DUP1 PUSH2 0x3D5 JUMP JUMPDEST PUSH2 0x5AD SWAP2 POP DUP7 RETURNDATASIZE DUP9 GT PUSH2 0x1F2 JUMPI PUSH2 0x1EA DUP2 DUP4 PUSH2 0x1D97 JUMP JUMPDEST DUP12 PUSH2 0x3C9 JUMP JUMPDEST PUSH4 0x4E487B71 PUSH1 0xE0 SHL PUSH1 0x0 MSTORE PUSH1 0x21 PUSH1 0x4 MSTORE PUSH1 0x24 PUSH1 0x0 REVERT JUMPDEST CALLVALUE PUSH2 0x205 JUMPI PUSH1 0x40 CALLDATASIZE PUSH1 0x3 NOT ADD SLT PUSH2 0x205 JUMPI PUSH2 0x5E2 PUSH2 0x1D07 JUMP JUMPDEST PUSH1 0x1 PUSH1 0x1 PUSH1 0xA0 SHL SUB AND PUSH1 0x0 SWAP1 DUP2 MSTORE PUSH1 0x3 PUSH1 0x20 MSTORE PUSH1 0x40 SWAP1 KECCAK256 DUP1 SLOAD PUSH1 0x24 CALLDATALOAD SWAP1 DUP2 LT ISZERO PUSH2 0x205 JUMPI PUSH2 0x60F SWAP2 PUSH2 0x1F12 JUMP JUMPDEST PUSH2 0x637 JUMPI PUSH2 0x61F PUSH2 0x633 SWAP2 PUSH2 0x1E6E JUMP JUMPDEST PUSH1 0x40 MLOAD SWAP2 DUP3 SWAP2 PUSH1 0x20 DUP4 MSTORE PUSH1 0x20 DUP4 ADD SWAP1 PUSH2 0x1D56 JUMP JUMPDEST SUB SWAP1 RETURN JUMPDEST PUSH4 0x4E487B71 PUSH1 0xE0 SHL PUSH1 0x0 MSTORE PUSH1 0x0 PUSH1 0x4 MSTORE PUSH1 0x24 PUSH1 0x0 REVERT JUMPDEST CALLVALUE PUSH2 0x205 JUMPI PUSH1 0x20 CALLDATASIZE PUSH1 0x3 NOT ADD SLT PUSH2 0x205 JUMPI PUSH1 0x4 CALLDATALOAD PUSH1 0x1 PUSH1 0x1 PUSH1 0x40 SHL SUB DUP2 GT PUSH2 0x205 JUMPI PUSH2 0x67D SWAP1 CALLDATASIZE SWAP1 PUSH1 0x4 ADD PUSH2 0x1DD3 JUMP JUMPDEST PUSH2 0x685 PUSH2 0x2452 JUMP JUMPDEST PUSH1 0x40 MLOAD PUSH2 0x6BF DUP3 MLOAD SWAP2 PUSH1 0x1 PUSH1 0x20 DUP6 ADD SWAP4 PUSH2 0x6A0 DUP2 DUP5 DUP8 PUSH2 0x1D33 JUMP JUMPDEST DUP3 ADD SWAP2 PUSH1 0x2 DUP4 MSTORE PUSH1 0x20 DUP2 DUP4 DUP1 PUSH1 0xA0 SHL SUB SWAP5 SUB ADD SWAP1 KECCAK256 ADD SLOAD AND CALLER EQ PUSH2 0x1F40 JUMP JUMPDEST PUSH1 0xFF PUSH1 0x9 PUSH1 0x40 MLOAD PUSH1 0x20 DUP2 DUP7 MLOAD PUSH2 0x6D6 DUP2 DUP4 DUP10 PUSH2 0x1D33 JUMP JUMPDEST DUP2 ADD PUSH1 0x2 DUP2 MSTORE SUB ADD SWAP1 KECCAK256 ADD SLOAD AND PUSH1 0x5 DUP2 LT ISZERO PUSH2 0x5B3 JUMPI PUSH2 0x6FC SWAP2 PUSH2 0x32B PUSH1 0x20 SWAP3 ISZERO PUSH2 0x1F8C JUMP JUMPDEST DUP2 ADD PUSH1 0x2 DUP2 MSTORE SUB ADD SWAP1 KECCAK256 PUSH1 0x9 DUP2 ADD PUSH1 0x4 PUSH1 0xFF NOT DUP3 SLOAD AND OR SWAP1 SSTORE TIMESTAMP PUSH1 0xC DUP3 ADD SSTORE PUSH1 0x6 DUP2 ADD SLOAD PUSH1 0xFF DUP2 AND PUSH1 0x2 DUP2 LT ISZERO PUSH2 0x5B3 JUMPI PUSH2 0x793 JUMPI POP PUSH1 0x0 DUP1 DUP1 DUP1 PUSH2 0x75E SWAP5 PUSH1 0x7 PUSH1 0x1 DUP1 PUSH1 0xA0 SHL SUB PUSH1 0x1 DUP4 ADD SLOAD AND SWAP2 ADD SLOAD SWAP1 GAS CALL PUSH2 0x758 PUSH2 0x205F JUMP JUMPDEST POP PUSH2 0x208F JUMP JUMPDEST PUSH2 0x768 CALLER SWAP2 PUSH2 0x20E9 JUMP JUMPDEST PUSH32 0xE64B74C222B0E5D5C4F084FD3F5A27B69274A73D3B805B014653748A5E09F06C PUSH1 0x0 DUP1 LOG3 PUSH1 0x1 DUP1 SSTORE STOP JUMPDEST PUSH1 0x1 DUP3 ADD SLOAD PUSH1 0x7 SWAP1 SWAP3 ADD SLOAD PUSH1 0x40 MLOAD PUSH4 0xA9059CBB PUSH1 0xE0 SHL DUP2 MSTORE PUSH1 0x1 PUSH1 0x1 PUSH1 0xA0 SHL SUB SWAP1 SWAP4 AND PUSH1 0x4 DUP5 ADD MSTORE PUSH1 0x24 DUP4 ADD MSTORE PUSH1 0x20 SWAP1 DUP3 SWAP1 DUP2 PUSH1 0x0 DUP2 PUSH1 0x44 DUP2 ADD SUB SWAP3 PUSH1 0x8 SHR PUSH1 0x1 PUSH1 0x1 PUSH1 0xA0 SHL SUB AND GAS CALL DUP1 ISZERO PUSH2 0x1F9 JUMPI PUSH2 0x7F4 SWAP2 PUSH1 0x0 SWAP2 PUSH2 0x7F9 JUMPI POP PUSH2 0x240E JUMP JUMPDEST PUSH2 0x75E JUMP JUMPDEST PUSH2 0x812 SWAP2 POP PUSH1 0x20 RETURNDATASIZE PUSH1 0x20 GT PUSH2 0x1F2 JUMPI PUSH2 0x1EA DUP2 DUP4 PUSH2 0x1D97 JUMP JUMPDEST DUP4 PUSH2 0x3C9 JUMP JUMPDEST CALLVALUE PUSH2 0x205 JUMPI PUSH1 0x20 CALLDATASIZE PUSH1 0x3 NOT ADD SLT PUSH2 0x205 JUMPI PUSH1 0x4 CALLDATALOAD PUSH1 0x1 PUSH1 0x1 PUSH1 0x40 SHL SUB DUP2 GT PUSH2 0x205 JUMPI PUSH2 0x848 SWAP1 CALLDATASIZE SWAP1 PUSH1 0x4 ADD PUSH2 0x1DD3 JUMP JUMPDEST PUSH1 0x40 MLOAD DUP2 DUP2 DUP1 SWAP4 MLOAD PUSH1 0x20 DUP2 SWAP4 ADD SWAP2 PUSH2 0x85F SWAP3 PUSH2 0x1D33 JUMP JUMPDEST DUP2 ADD PUSH1 0x2 DUP2 MSTORE SUB PUSH1 0x20 ADD SWAP1 KECCAK256 PUSH2 0x874 DUP2 PUSH2 0x1E6E JUMP JUMPDEST PUSH1 0x1 PUSH1 0xA0 SHL PUSH1 0x1 SWAP1 SUB PUSH1 0x1 DUP4 ADD SLOAD AND SWAP1 PUSH1 0x1 PUSH1 0xA0 SHL PUSH1 0x1 SWAP1 SUB PUSH1 0x2 DUP5 ADD SLOAD AND SWAP3 PUSH1 0x1 PUSH1 0xA0 SHL PUSH1 0x1 SWAP1 SUB PUSH1 0x3 DUP3 ADD SLOAD AND SWAP1 PUSH1 0x4 DUP2 ADD SLOAD PUSH1 0x5 DUP3 ADD SLOAD PUSH1 0x6 DUP4 ADD SLOAD PUSH1 0x7 DUP5 ADD SLOAD PUSH1 0x8 DUP6 ADD SLOAD SWAP2 PUSH1 0x9 DUP7 ADD SLOAD PUSH1 0xFF AND SWAP4 PUSH1 0xA DUP8 ADD SLOAD SWAP6 PUSH1 0xB DUP9 ADD SLOAD SWAP8 PUSH1 0xC ADD SLOAD SWAP9 PUSH1 0x40 MLOAD SWAP13 DUP14 SWAP13 DUP14 SWAP13 DUP14 PUSH2 0x1C0 DUP2 MSTORE PUSH2 0x1C0 ADD PUSH2 0x8F3 SWAP2 PUSH2 0x1D56 JUMP JUMPDEST PUSH1 0x20 SWAP1 SWAP14 ADD MSTORE PUSH1 0x40 DUP14 ADD MSTORE PUSH1 0x60 DUP13 ADD MSTORE PUSH1 0x80 DUP12 ADD MSTORE PUSH1 0xA0 DUP11 ADD MSTORE PUSH2 0x91D PUSH1 0xC0 DUP11 ADD PUSH1 0xFF DUP4 AND PUSH2 0x1E1A JUMP JUMPDEST PUSH1 0x8 SHR PUSH1 0x1 PUSH1 0x1 PUSH1 0xA0 SHL SUB AND PUSH1 0xE0 DUP10 ADD MSTORE PUSH2 0x100 DUP9 ADD MSTORE PUSH2 0x120 DUP8 ADD MSTORE PUSH2 0x949 SWAP1 PUSH2 0x140 DUP8 ADD SWAP1 PUSH2 0x1E27 JUMP JUMPDEST PUSH2 0x160 DUP6 ADD MSTORE PUSH2 0x180 DUP5 ADD MSTORE PUSH2 0x1A0 DUP4 ADD MSTORE SUB SWAP1 RETURN JUMPDEST CALLVALUE PUSH2 0x205 JUMPI PUSH1 0x20 CALLDATASIZE PUSH1 0x3 NOT ADD SLT PUSH2 0x205 JUMPI PUSH1 0x4 CALLDATALOAD PUSH1 0x1 PUSH1 0x1 PUSH1 0x40 SHL SUB DUP2 GT PUSH2 0x205 JUMPI PUSH2 0x98F SWAP1 CALLDATASIZE SWAP1 PUSH1 0x4 ADD PUSH2 0x1DD3 JUMP JUMPDEST PUSH1 0x40 MLOAD PUSH2 0x99B DUP2 PUSH2 0x1D7B JUMP JUMPDEST PUSH1 0x60 DUP2 MSTORE PUSH1 0x20 DUP2 ADD PUSH1 0x0 SWAP1 MSTORE PUSH1 0x40 DUP2 ADD PUSH1 0x0 SWAP1 MSTORE PUSH1 0x60 DUP2 ADD PUSH1 0x0 SWAP1 MSTORE PUSH1 0x80 DUP2 ADD PUSH1 0x0 SWAP1 MSTORE PUSH1 0xA0 DUP2 ADD PUSH1 0x0 SWAP1 MSTORE PUSH1 0xC0 DUP2 ADD PUSH1 0x0 SWAP1 MSTORE PUSH1 0xE0 DUP2 ADD PUSH1 0x0 SWAP1 MSTORE PUSH2 0x100 DUP2 ADD PUSH1 0x0 SWAP1 MSTORE PUSH2 0x120 DUP2 ADD PUSH1 0x0 SWAP1 MSTORE PUSH2 0x140 DUP2 ADD PUSH1 0x0 SWAP1 MSTORE PUSH2 0x160 DUP2 ADD PUSH1 0x0 SWAP1 MSTORE PUSH2 0x180 DUP2 ADD PUSH1 0x0 SWAP1 MSTORE PUSH2 0x1A0 ADD PUSH1 0x0 SWAP1 MSTORE PUSH1 0x40 MLOAD DUP2 DUP2 DUP1 SWAP4 MLOAD PUSH1 0x20 DUP2 SWAP4 ADD SWAP2 PUSH2 0xA23 SWAP3 PUSH2 0x1D33 JUMP JUMPDEST DUP2 ADD PUSH1 0x2 DUP2 MSTORE SUB PUSH1 0x20 ADD SWAP1 KECCAK256 PUSH1 0x40 MLOAD PUSH2 0xA3B DUP2 PUSH2 0x1D7B JUMP JUMPDEST PUSH2 0xA44 DUP3 PUSH2 0x1E6E JUMP JUMPDEST DUP2 MSTORE PUSH1 0x1 DUP3 ADD SLOAD PUSH1 0x1 PUSH1 0x1 PUSH1 0xA0 SHL SUB SWAP1 DUP2 AND PUSH1 0x20 DUP4 ADD SWAP1 DUP2 MSTORE PUSH1 0x2 DUP5 ADD SLOAD DUP3 AND PUSH1 0x40 DUP5 ADD SWAP1 DUP2 MSTORE PUSH1 0x3 DUP6 ADD SLOAD SWAP1 SWAP3 AND PUSH1 0x60 DUP5 ADD SWAP1 DUP2 MSTORE PUSH1 0x4 DUP6 ADD SLOAD PUSH1 0x80 DUP6 ADD SWAP1 DUP2 MSTORE PUSH1 0x5 DUP7 ADD SLOAD PUSH1 0xA0 DUP7 ADD SWAP1 DUP2 MSTORE PUSH1 0x6 DUP8 ADD SLOAD SWAP5 SWAP7 SWAP4 SWAP5 SWAP3 SWAP4 SWAP3 PUSH1 0xC0 DUP8 ADD SWAP1 PUSH2 0xAB0 PUSH1 0xFF DUP3 AND DUP4 PUSH2 0x214B JUMP JUMPDEST PUSH1 0x8 SWAP1 DUP2 SHR PUSH1 0x1 PUSH1 0x1 PUSH1 0xA0 SHL SUB AND PUSH1 0xE0 DUP10 ADD SWAP1 DUP2 MSTORE PUSH1 0x7 DUP7 ADD SLOAD PUSH2 0x100 DUP11 ADD SWAP1 DUP2 MSTORE SWAP2 DUP7 ADD SLOAD PUSH2 0x120 DUP11 ADD SWAP1 DUP2 MSTORE PUSH1 0x9 DUP8 ADD SLOAD PUSH2 0x140 DUP12 ADD SWAP6 SWAP2 SWAP5 SWAP2 SWAP1 PUSH2 0xAFA SWAP1 PUSH1 0xFF AND DUP8 PUSH2 0x2157 JUMP JUMPDEST PUSH1 0xA DUP9 ADD SLOAD SWAP7 PUSH2 0x160 DUP13 ADD SWAP8 DUP9 MSTORE PUSH1 0xB DUP10 ADD SLOAD SWAP9 PUSH2 0x180 DUP14 ADD SWAP10 DUP11 MSTORE PUSH1 0xC ADD SLOAD SWAP10 PUSH2 0x1A0 DUP14 ADD SWAP11 DUP12 MSTORE PUSH1 0x40 MLOAD DUP1 SWAP15 DUP2 SWAP15 PUSH1 0x20 DUP4 MSTORE MLOAD PUSH1 0x20 DUP4 ADD PUSH2 0x1C0 SWAP1 MSTORE PUSH2 0x1E0 DUP4 ADD PUSH2 0xB46 SWAP2 PUSH2 0x1D56 JUMP JUMPDEST SWAP14 MLOAD PUSH1 0x1 PUSH1 0x1 PUSH1 0xA0 SHL SUB SWAP1 DUP2 AND PUSH1 0x40 DUP5 ADD MSTORE SWAP1 MLOAD DUP2 AND PUSH1 0x60 SWAP1 SWAP3 ADD SWAP2 SWAP1 SWAP2 MSTORE SWAP1 MLOAD AND PUSH1 0x80 DUP14 ADD MSTORE MLOAD PUSH1 0xA0 DUP13 ADD MSTORE MLOAD PUSH1 0xC0 DUP12 ADD MSTORE MLOAD PUSH2 0xB88 SWAP1 PUSH1 0xE0 DUP12 ADD SWAP1 PUSH2 0x1E1A JUMP JUMPDEST MLOAD PUSH1 0x1 PUSH1 0x1 PUSH1 0xA0 SHL SUB AND PUSH2 0x100 DUP10 ADD MSTORE MLOAD PUSH2 0x120 DUP9 ADD MSTORE MLOAD PUSH2 0x140 DUP8 ADD MSTORE MLOAD PUSH2 0xBB6 SWAP1 PUSH2 0x160 DUP8 ADD SWAP1 PUSH2 0x1E27 JUMP JUMPDEST MLOAD PUSH2 0x180 DUP6 ADD MSTORE MLOAD PUSH2 0x1A0 DUP5 ADD MSTORE MLOAD PUSH2 0x1C0 DUP4 ADD MSTORE SUB SWAP1 RETURN JUMPDEST CALLVALUE PUSH2 0x205 JUMPI PUSH1 0xE0 CALLDATASIZE PUSH1 0x3 NOT ADD SLT PUSH2 0x205 JUMPI PUSH1 0x4 CALLDATALOAD PUSH1 0x1 PUSH1 0x1 PUSH1 0x40 SHL SUB DUP2 GT PUSH2 0x205 JUMPI PUSH2 0xBFF SWAP1 CALLDATASIZE SWAP1 PUSH1 0x4 ADD PUSH2 0x1DD3 JUMP JUMPDEST PUSH2 0xC07 PUSH2 0x1D1D JUMP JUMPDEST PUSH1 0x84 CALLDATALOAD PUSH1 0x1 PUSH1 0x1 PUSH1 0xA0 SHL SUB DUP2 AND DUP2 SUB PUSH2 0x205 JUMPI PUSH2 0xC22 PUSH2 0x2452 JUMP JUMPDEST PUSH2 0xC2E DUP4 MLOAD ISZERO ISZERO PUSH2 0x2163 JUMP JUMPDEST PUSH2 0xC64 PUSH1 0x40 MLOAD PUSH1 0x1 DUP6 MLOAD PUSH2 0xC46 DUP2 DUP5 PUSH1 0x20 DUP11 ADD PUSH2 0x1D33 JUMP JUMPDEST DUP3 ADD SWAP2 PUSH1 0x2 DUP4 MSTORE PUSH1 0x20 DUP2 DUP4 DUP1 PUSH1 0xA0 SHL SUB SWAP5 SUB ADD SWAP1 KECCAK256 ADD SLOAD AND ISZERO PUSH2 0x21A1 JUMP JUMPDEST PUSH2 0xC75 PUSH3 0xF4240 PUSH1 0x44 CALLDATALOAD LT ISZERO PUSH2 0x21E6 JUMP JUMPDEST PUSH2 0xC84 PUSH1 0x44 CALLDATALOAD PUSH1 0x64 CALLDATALOAD GT PUSH2 0x222A JUMP JUMPDEST PUSH1 0x1 PUSH1 0x1 PUSH1 0xA0 SHL SUB DUP2 AND ISZERO PUSH2 0xFDB JUMPI PUSH1 0xA4 CALLDATALOAD ISZERO PUSH2 0xF9D JUMPI PUSH3 0x15180 TIMESTAMP ADD DUP1 TIMESTAMP GT PUSH2 0xF87 JUMPI PUSH2 0xCB5 SWAP1 PUSH1 0xC4 CALLDATALOAD GT PUSH2 0x228C JUMP JUMPDEST PUSH1 0x40 MLOAD PUSH4 0x23B872DD PUSH1 0xE0 SHL DUP2 MSTORE CALLER PUSH1 0x4 DUP3 ADD MSTORE ADDRESS PUSH1 0x24 DUP3 ADD MSTORE PUSH1 0xA4 CALLDATALOAD PUSH1 0x44 DUP3 ADD MSTORE PUSH1 0x20 DUP2 PUSH1 0x64 DUP2 PUSH1 0x0 PUSH1 0x1 PUSH1 0x1 PUSH1 0xA0 SHL SUB DUP8 AND GAS CALL DUP1 ISZERO PUSH2 0x1F9 JUMPI PUSH2 0xD02 SWAP2 PUSH1 0x0 SWAP2 PUSH2 0xF68 JUMPI JUMPDEST POP PUSH2 0x2013 JUMP JUMPDEST PUSH1 0x40 MLOAD SWAP3 PUSH2 0xD0F DUP5 PUSH2 0x1D7B JUMP JUMPDEST DUP1 DUP5 MSTORE CALLER PUSH1 0x20 DUP6 ADD MSTORE PUSH1 0x0 PUSH1 0x40 DUP6 ADD MSTORE PUSH1 0x1 DUP1 PUSH1 0xA0 SHL SUB DUP4 AND PUSH1 0x60 DUP6 ADD MSTORE PUSH1 0x44 CALLDATALOAD PUSH1 0x80 DUP6 ADD MSTORE PUSH1 0x64 CALLDATALOAD PUSH1 0xA0 DUP6 ADD MSTORE PUSH1 0x1 PUSH1 0xC0 DUP6 ADD MSTORE PUSH1 0x1 DUP1 PUSH1 0xA0 SHL SUB DUP3 AND PUSH1 0xE0 DUP6 ADD MSTORE PUSH1 0xA4 CALLDATALOAD PUSH2 0x100 DUP6 ADD MSTORE PUSH1 0xC4 CALLDATALOAD PUSH2 0x120 DUP6 ADD MSTORE PUSH1 0x0 PUSH2 0x140 DUP6 ADD MSTORE TIMESTAMP PUSH2 0x160 DUP6 ADD MSTORE PUSH1 0x0 PUSH2 0x180 DUP6 ADD MSTORE PUSH1 0x0 PUSH2 0x1A0 DUP6 ADD MSTORE PUSH1 0x40 MLOAD PUSH1 0x20 DUP2 DUP4 MLOAD PUSH2 0xD98 DUP2 DUP4 DUP6 DUP9 ADD PUSH2 0x1D33 JUMP JUMPDEST DUP2 ADD PUSH1 0x2 DUP2 MSTORE SUB ADD SWAP1 KECCAK256 PUSH2 0xDAD DUP6 MLOAD DUP3 PUSH2 0x22D1 JUMP JUMPDEST PUSH1 0x20 DUP6 ADD MLOAD PUSH1 0x1 DUP3 ADD DUP1 SLOAD PUSH1 0x1 PUSH1 0x1 PUSH1 0xA0 SHL SUB NOT SWAP1 DUP2 AND PUSH1 0x1 PUSH1 0x1 PUSH1 0xA0 SHL SUB SWAP4 DUP5 AND OR SWAP1 SWAP2 SSTORE PUSH1 0x40 DUP8 ADD MLOAD PUSH1 0x2 DUP1 DUP6 ADD DUP1 SLOAD DUP5 AND SWAP3 DUP6 AND SWAP3 SWAP1 SWAP3 OR SWAP1 SWAP2 SSTORE PUSH1 0x60 DUP9 ADD MLOAD PUSH1 0x3 DUP6 ADD DUP1 SLOAD SWAP1 SWAP4 AND SWAP4 AND SWAP3 SWAP1 SWAP3 OR SWAP1 SSTORE PUSH1 0x80 DUP7 ADD MLOAD PUSH1 0x4 DUP4 ADD SSTORE PUSH1 0xA0 DUP7 ADD MLOAD PUSH1 0x5 DUP4 ADD SSTORE PUSH1 0xC0 DUP7 ADD MLOAD SWAP6 SWAP1 DUP7 LT ISZERO PUSH2 0x5B3 JUMPI PUSH1 0x0 SWAP6 PUSH1 0x6 DUP4 ADD SLOAD PUSH1 0xFF PUSH2 0x100 PUSH1 0x1 PUSH1 0xA8 SHL SUB PUSH1 0xE0 DUP6 ADD MLOAD PUSH1 0x8 SHL AND SWAP3 AND SWAP1 PUSH11 0xFFFFFFFFFFFFFFFFFFFFFF PUSH1 0xA8 SHL AND OR OR PUSH1 0x6 DUP4 ADD SSTORE PUSH2 0x100 DUP2 ADD MLOAD PUSH1 0x7 DUP4 ADD SSTORE PUSH2 0x120 DUP2 ADD MLOAD PUSH1 0x8 DUP4 ADD SSTORE PUSH2 0x140 DUP2 ADD MLOAD PUSH1 0x5 DUP2 LT ISZERO PUSH2 0xF54 JUMPI PUSH2 0x1A0 DUP4 SWAP3 PUSH2 0xE96 PUSH1 0xC SWAP4 PUSH1 0x9 PUSH2 0xECB SWAP9 SWAP8 ADD PUSH2 0x20D1 JUMP JUMPDEST PUSH2 0x160 DUP2 ADD MLOAD PUSH1 0xA DUP6 ADD SSTORE PUSH2 0x180 DUP2 ADD MLOAD PUSH1 0xB DUP6 ADD SSTORE ADD MLOAD SWAP2 ADD SSTORE CALLER DUP6 MSTORE PUSH1 0x3 PUSH1 0x20 MSTORE PUSH2 0xEC6 DUP2 PUSH1 0x40 DUP8 KECCAK256 PUSH2 0x23DC JUMP JUMPDEST PUSH2 0x20E9 JUMP JUMPDEST PUSH1 0x40 DUP1 MLOAD PUSH1 0x1 PUSH1 0x1 PUSH1 0xA0 SHL SUB SWAP1 SWAP5 AND DUP5 MSTORE PUSH1 0x44 CALLDATALOAD PUSH1 0x20 DUP6 ADD MSTORE PUSH1 0x64 CALLDATALOAD SWAP1 DUP5 ADD MSTORE SWAP1 PUSH1 0x1 PUSH1 0x60 DUP5 ADD MSTORE PUSH1 0x1 PUSH1 0x1 PUSH1 0xA0 SHL SUB AND PUSH1 0x80 DUP4 ADD MSTORE PUSH1 0xA4 CALLDATALOAD PUSH1 0xA0 DUP4 ADD MSTORE PUSH1 0xC4 CALLDATALOAD PUSH1 0xC0 DUP4 ADD MSTORE CALLER SWAP2 PUSH32 0xD6D9270C14D83576C220036AB5BCC2B4DA203644F389DC9E819D7AFFCA2B0E25 SWAP1 PUSH1 0xE0 SWAP1 LOG3 PUSH1 0x1 DUP1 SSTORE DUP1 RETURN JUMPDEST PUSH4 0x4E487B71 PUSH1 0xE0 SHL DUP5 MSTORE PUSH1 0x21 PUSH1 0x4 MSTORE PUSH1 0x24 DUP5 REVERT JUMPDEST PUSH4 0x4E487B71 PUSH1 0xE0 SHL DUP8 MSTORE PUSH1 0x21 PUSH1 0x4 MSTORE PUSH1 0x24 DUP8 REVERT JUMPDEST PUSH2 0xF81 SWAP2 POP PUSH1 0x20 RETURNDATASIZE PUSH1 0x20 GT PUSH2 0x1F2 JUMPI PUSH2 0x1EA DUP2 DUP4 PUSH2 0x1D97 JUMP JUMPDEST DUP6 PUSH2 0xCFC JUMP JUMPDEST PUSH4 0x4E487B71 PUSH1 0xE0 SHL PUSH1 0x0 MSTORE PUSH1 0x11 PUSH1 0x4 MSTORE PUSH1 0x24 PUSH1 0x0 REVERT JUMPDEST PUSH1 0x40 MLOAD PUSH3 0x461BCD PUSH1 0xE5 SHL DUP2 MSTORE PUSH1 0x20 PUSH1 0x4 DUP3 ADD MSTORE PUSH1 0x16 PUSH1 0x24 DUP3 ADD MSTORE PUSH22 0x139BC818DBDB1B185D195C985B081C1C9BDD9A591959 PUSH1 0x52 SHL PUSH1 0x44 DUP3 ADD MSTORE PUSH1 0x64 SWAP1 REVERT JUMPDEST PUSH1 0x40 MLOAD PUSH3 0x461BCD PUSH1 0xE5 SHL DUP2 MSTORE PUSH1 0x20 PUSH1 0x4 DUP3 ADD MSTORE PUSH1 0x18 PUSH1 0x24 DUP3 ADD MSTORE PUSH32 0x496E76616C696420636F6C6C61746572616C20746F6B656E0000000000000000 PUSH1 0x44 DUP3 ADD MSTORE PUSH1 0x64 SWAP1 REVERT JUMPDEST CALLVALUE PUSH2 0x205 JUMPI PUSH1 0x0 CALLDATASIZE PUSH1 0x3 NOT ADD SLT PUSH2 0x205 JUMPI PUSH1 0x20 PUSH1 0x40 MLOAD PUSH3 0xF4240 DUP2 MSTORE RETURN JUMPDEST PUSH1 0xA0 CALLDATASIZE PUSH1 0x3 NOT ADD SLT PUSH2 0x205 JUMPI PUSH1 0x4 CALLDATALOAD PUSH1 0x1 PUSH1 0x1 PUSH1 0x40 SHL SUB DUP2 GT PUSH2 0x205 JUMPI PUSH2 0x1069 SWAP1 CALLDATASIZE SWAP1 PUSH1 0x4 ADD PUSH2 0x1DD3 JUMP JUMPDEST PUSH2 0x1071 PUSH2 0x1D1D JUMP JUMPDEST SWAP1 PUSH1 0x44 CALLDATALOAD PUSH1 0x84 CALLDATALOAD PUSH1 0x64 CALLDATALOAD PUSH2 0x1083 PUSH2 0x2452 JUMP JUMPDEST PUSH2 0x108F DUP5 MLOAD ISZERO ISZERO PUSH2 0x2163 JUMP JUMPDEST PUSH1 0x40 MLOAD SWAP4 PUSH2 0x10AB DUP2 MLOAD SWAP6 PUSH1 0x1 PUSH1 0x20 DUP5 ADD SWAP8 PUSH2 0xC46 DUP2 DUP5 DUP12 PUSH2 0x1D33 JUMP JUMPDEST PUSH2 0x10BA PUSH3 0xF4240 DUP6 LT ISZERO PUSH2 0x21E6 JUMP JUMPDEST PUSH2 0x10C5 DUP5 DUP4 GT PUSH2 0x222A JUMP JUMPDEST CALLVALUE ISZERO PUSH2 0x12F1 JUMPI PUSH3 0x15180 TIMESTAMP ADD DUP1 TIMESTAMP GT PUSH2 0xF87 JUMPI DUP4 GT PUSH2 0x10E3 SWAP1 PUSH2 0x228C JUMP JUMPDEST PUSH1 0x40 MLOAD PUSH2 0x10EF DUP2 PUSH2 0x1D7B JUMP JUMPDEST DUP2 DUP2 MSTORE DUP2 PUSH1 0x20 DUP3 ADD SWAP7 CALLER DUP9 MSTORE PUSH1 0x40 DUP4 ADD SWAP8 PUSH1 0x0 DUP10 MSTORE PUSH1 0x60 DUP5 ADD SWAP10 PUSH1 0x1 PUSH1 0xA0 SHL PUSH1 0x1 SWAP1 SUB AND SWAP9 DUP10 DUP12 MSTORE PUSH1 0x80 DUP6 ADD SWAP11 DUP10 DUP13 MSTORE PUSH1 0xA0 DUP7 ADD SWAP12 DUP9 DUP14 MSTORE PUSH1 0xC0 DUP8 ADD PUSH1 0x0 DUP2 MSTORE PUSH1 0xE0 DUP9 ADD SWAP14 PUSH1 0x0 DUP16 MSTORE PUSH2 0x100 DUP10 ADD SWAP3 CALLVALUE DUP5 MSTORE PUSH2 0x120 DUP11 ADD SWAP5 DUP14 DUP7 MSTORE PUSH2 0x140 DUP12 ADD SWAP7 PUSH1 0x0 DUP9 MSTORE PUSH2 0x160 DUP13 ADD SWAP9 TIMESTAMP DUP11 MSTORE PUSH2 0x180 DUP14 ADD SWAP11 DUP14 PUSH1 0x0 DUP14 MSTORE PUSH2 0x1A0 ADD SWAP13 PUSH1 0x0 DUP15 MSTORE PUSH1 0x40 MLOAD DUP1 SWAP3 DUP2 SWAP3 MLOAD DUP1 SWAP3 PUSH2 0x1184 SWAP3 PUSH2 0x1D33 JUMP JUMPDEST DUP2 ADD PUSH1 0x2 DUP2 MSTORE SUB PUSH1 0x20 ADD SWAP1 KECCAK256 DUP1 SWAP14 MLOAD PUSH2 0x119C SWAP2 PUSH2 0x22D1 JUMP JUMPDEST MLOAD PUSH1 0x1 DUP14 ADD DUP1 SLOAD PUSH1 0x1 PUSH1 0x1 PUSH1 0xA0 SHL SUB NOT SWAP1 DUP2 AND PUSH1 0x1 PUSH1 0x1 PUSH1 0xA0 SHL SUB SWAP4 DUP5 AND OR SWAP1 SWAP2 SSTORE SWAP2 MLOAD PUSH1 0x2 DUP1 DUP16 ADD DUP1 SLOAD DUP6 AND SWAP3 DUP5 AND SWAP3 SWAP1 SWAP3 OR SWAP1 SWAP2 SSTORE SWAP3 MLOAD PUSH1 0x3 DUP15 ADD DUP1 SLOAD SWAP1 SWAP4 AND SWAP2 AND OR SWAP1 SSTORE SWAP1 MLOAD PUSH1 0x4 DUP12 ADD SSTORE SWAP1 MLOAD PUSH1 0x5 DUP11 ADD SSTORE SWAP1 MLOAD PUSH1 0x6 DUP10 ADD SWAP2 DUP2 LT ISZERO PUSH2 0x5B3 JUMPI PUSH1 0x0 SWAP15 PUSH1 0xFF DUP4 SLOAD SWAP2 PUSH2 0x100 PUSH1 0x1 PUSH1 0xA8 SHL SUB SWAP1 MLOAD PUSH1 0x8 SHL AND SWAP3 AND SWAP1 PUSH11 0xFFFFFFFFFFFFFFFFFFFFFF PUSH1 0xA8 SHL AND OR OR SWAP1 SSTORE MLOAD PUSH1 0x7 DUP8 ADD SSTORE MLOAD PUSH1 0x8 DUP7 ADD SSTORE MLOAD PUSH1 0x5 DUP2 LT ISZERO PUSH2 0x12DD JUMPI SWAP2 DUP5 SWAP4 SWAP2 PUSH2 0x125A PUSH1 0xC SWAP5 PUSH1 0x9 PUSH2 0x127F SWAP10 SWAP9 ADD PUSH2 0x20D1 JUMP JUMPDEST MLOAD PUSH1 0xA DUP6 ADD SSTORE MLOAD PUSH1 0xB DUP5 ADD SSTORE MLOAD SWAP2 ADD SSTORE CALLER DUP8 MSTORE PUSH1 0x3 PUSH1 0x20 MSTORE PUSH2 0xEC6 DUP2 PUSH1 0x40 DUP10 KECCAK256 PUSH2 0x23DC JUMP JUMPDEST SWAP3 PUSH1 0x40 MLOAD SWAP5 DUP6 MSTORE PUSH1 0x20 DUP6 ADD MSTORE PUSH1 0x40 DUP5 ADD MSTORE PUSH1 0x2 DUP5 LT ISZERO PUSH2 0xF40 JUMPI DUP4 PUSH1 0x60 DUP5 ADD MSTORE DUP4 PUSH1 0x80 DUP5 ADD MSTORE CALLVALUE PUSH1 0xA0 DUP5 ADD MSTORE PUSH1 0xC0 DUP4 ADD MSTORE PUSH32 0xD6D9270C14D83576C220036AB5BCC2B4DA203644F389DC9E819D7AFFCA2B0E25 PUSH1 0xE0 CALLER SWAP4 LOG3 PUSH1 0x1 DUP1 SSTORE DUP1 RETURN JUMPDEST PUSH4 0x4E487B71 PUSH1 0xE0 SHL DUP12 MSTORE PUSH1 0x21 PUSH1 0x4 MSTORE PUSH1 0x24 DUP12 REVERT JUMPDEST PUSH1 0x40 MLOAD PUSH3 0x461BCD PUSH1 0xE5 SHL DUP2 MSTORE PUSH1 0x20 PUSH1 0x4 DUP3 ADD MSTORE PUSH1 0x1A PUSH1 0x24 DUP3 ADD MSTORE PUSH32 0x4E6F2045544820636F6C6C61746572616C2070726F7669646564000000000000 PUSH1 0x44 DUP3 ADD MSTORE PUSH1 0x64 SWAP1 REVERT JUMPDEST CALLVALUE PUSH2 0x205 JUMPI PUSH1 0x0 CALLDATASIZE PUSH1 0x3 NOT ADD SLT PUSH2 0x205 JUMPI PUSH1 0x0 SLOAD PUSH1 0x40 MLOAD PUSH1 0x1 PUSH1 0x1 PUSH1 0xA0 SHL SUB SWAP1 SWAP2 AND DUP2 MSTORE PUSH1 0x20 SWAP1 RETURN JUMPDEST CALLVALUE PUSH2 0x205 JUMPI PUSH1 0x0 CALLDATASIZE PUSH1 0x3 NOT ADD SLT PUSH2 0x205 JUMPI PUSH1 0x20 SELFBALANCE PUSH1 0x40 MLOAD SWAP1 DUP2 MSTORE RETURN JUMPDEST CALLVALUE PUSH2 0x205 JUMPI PUSH1 0x0 CALLDATASIZE PUSH1 0x3 NOT ADD SLT PUSH2 0x205 JUMPI PUSH1 0x20 PUSH1 0x40 MLOAD PUSH3 0x15180 DUP2 MSTORE RETURN JUMPDEST CALLVALUE PUSH2 0x205 JUMPI PUSH1 0x0 CALLDATASIZE PUSH1 0x3 NOT ADD SLT PUSH2 0x205 JUMPI PUSH2 0x13B2 PUSH2 0x2474 JUMP JUMPDEST PUSH1 0x0 DUP1 SLOAD PUSH1 0x1 PUSH1 0x1 PUSH1 0xA0 SHL SUB NOT DUP2 AND DUP3 SSTORE PUSH1 0x1 PUSH1 0x1 PUSH1 0xA0 SHL SUB AND PUSH32 0x8BE0079C531659141344CD1FD0A4F28419497F9722A3DAAFE3B4186F6B6457E0 DUP3 DUP1 LOG3 STOP JUMPDEST CALLVALUE PUSH2 0x205 JUMPI PUSH1 0x20 CALLDATASIZE PUSH1 0x3 NOT ADD SLT PUSH2 0x205 JUMPI PUSH1 0x4 CALLDATALOAD PUSH1 0x1 PUSH1 0x1 PUSH1 0x40 SHL SUB DUP2 GT PUSH2 0x205 JUMPI PUSH1 0x20 PUSH2 0x1427 PUSH2 0x143A SWAP3 CALLDATASIZE SWAP1 PUSH1 0x4 ADD PUSH2 0x1DD3 JUMP JUMPDEST DUP2 PUSH1 0x40 MLOAD SWAP4 DUP3 DUP6 DUP1 SWAP5 MLOAD SWAP4 DUP5 SWAP3 ADD PUSH2 0x1D33 JUMP JUMPDEST DUP2 ADD PUSH1 0x2 DUP2 MSTORE SUB ADD SWAP1 KECCAK256 PUSH1 0x40 MLOAD SWAP1 PUSH2 0x1451 DUP3 PUSH2 0x1D7B JUMP JUMPDEST PUSH2 0x145A DUP2 PUSH2 0x1E6E JUMP JUMPDEST DUP3 MSTORE PUSH1 0x1 DUP2 ADD SLOAD PUSH1 0x1 PUSH1 0x1 PUSH1 0xA0 SHL SUB SWAP1 DUP2 AND PUSH1 0x20 DUP5 ADD MSTORE PUSH1 0x2 DUP3 ADD SLOAD DUP2 AND PUSH1 0x40 DUP5 ADD MSTORE PUSH1 0x3 DUP3 ADD SLOAD AND PUSH1 0x60 DUP4 ADD MSTORE PUSH1 0x4 DUP2 ADD SLOAD PUSH1 0x80 DUP4 ADD MSTORE PUSH1 0x5 DUP2 ADD SLOAD PUSH1 0xA0 DUP4 ADD MSTORE PUSH1 0x6 DUP2 ADD SLOAD PUSH2 0x14B1 PUSH1 0xFF DUP3 AND PUSH1 0xC0 DUP6 ADD PUSH2 0x214B JUMP JUMPDEST PUSH1 0x1 DUP1 PUSH1 0xA0 SHL SUB SWAP1 PUSH1 0x8 SHR AND PUSH1 0xE0 DUP4 ADD MSTORE PUSH1 0x7 DUP2 ADD SLOAD PUSH2 0x100 DUP4 ADD MSTORE PUSH1 0x8 DUP2 ADD SLOAD SWAP2 PUSH2 0x120 DUP2 ADD SWAP3 DUP4 MSTORE PUSH2 0x1A0 PUSH1 0xC PUSH1 0xFF PUSH1 0x9 DUP6 ADD SLOAD AND SWAP4 PUSH2 0x14F8 PUSH2 0x140 DUP6 ADD SWAP6 DUP7 PUSH2 0x2157 JUMP JUMPDEST PUSH1 0xA DUP2 ADD SLOAD PUSH2 0x160 DUP6 ADD MSTORE PUSH1 0xB DUP2 ADD SLOAD PUSH2 0x180 DUP6 ADD MSTORE ADD SLOAD SWAP2 ADD MSTORE MLOAD SWAP1 PUSH1 0x5 DUP3 LT ISZERO PUSH2 0x5B3 JUMPI PUSH1 0x1 PUSH1 0x20 SWAP3 EQ SWAP1 DUP2 PUSH2 0x1536 JUMPI JUMPDEST POP PUSH1 0x40 MLOAD SWAP1 ISZERO ISZERO DUP2 MSTORE RETURN JUMPDEST SWAP1 POP MLOAD TIMESTAMP GT DUP3 PUSH2 0x152B JUMP JUMPDEST CALLVALUE PUSH2 0x205 JUMPI PUSH1 0x20 CALLDATASIZE PUSH1 0x3 NOT ADD SLT PUSH2 0x205 JUMPI PUSH1 0x1 PUSH1 0x1 PUSH1 0xA0 SHL SUB PUSH2 0x1562 PUSH2 0x1D07 JUMP JUMPDEST AND PUSH1 0x0 MSTORE PUSH1 0x6 PUSH1 0x20 MSTORE PUSH1 0x20 PUSH1 0x40 PUSH1 0x0 KECCAK256 SLOAD PUSH1 0x40 MLOAD SWAP1 DUP2 MSTORE RETURN JUMPDEST CALLVALUE PUSH2 0x205 JUMPI PUSH1 0x0 CALLDATASIZE PUSH1 0x3 NOT ADD SLT PUSH2 0x205 JUMPI PUSH2 0x1594 PUSH2 0x2474 JUMP JUMPDEST PUSH2 0x1B PUSH1 0x0 DUP1 DUP1 DUP1 PUSH1 0x5 SLOAD PUSH2 0x15AA DUP2 ISZERO ISZERO PUSH2 0x2109 JUMP JUMPDEST PUSH1 0x5 DUP3 SWAP1 SSTORE DUP2 SLOAD PUSH1 0x1 PUSH1 0x1 PUSH1 0xA0 SHL SUB AND GAS CALL PUSH2 0x758 PUSH2 0x205F JUMP JUMPDEST CALLVALUE PUSH2 0x205 JUMPI PUSH1 0x0 CALLDATASIZE PUSH1 0x3 NOT ADD SLT PUSH2 0x205 JUMPI PUSH1 0x20 PUSH1 0x4 SLOAD PUSH1 0x40 MLOAD SWAP1 DUP2 MSTORE RETURN JUMPDEST CALLVALUE PUSH2 0x205 JUMPI PUSH1 0x20 CALLDATASIZE PUSH1 0x3 NOT ADD SLT PUSH2 0x205 JUMPI PUSH1 0x4 CALLDATALOAD PUSH1 0x1 PUSH1 0x1 PUSH1 0x40 SHL SUB DUP2 GT PUSH2 0x205 JUMPI PUSH2 0x1612 SWAP1 CALLDATASIZE SWAP1 PUSH1 0x4 ADD PUSH2 0x1DD3 JUMP JUMPDEST PUSH2 0x161A PUSH2 0x2452 JUMP JUMPDEST PUSH1 0x40 MLOAD PUSH1 0xFF PUSH1 0x9 DUP4 MLOAD SWAP3 PUSH1 0x20 DUP2 DUP2 DUP8 ADD SWAP6 PUSH2 0x1636 DUP2 DUP4 DUP10 PUSH2 0x1D33 JUMP JUMPDEST DUP2 ADD PUSH1 0x2 DUP2 MSTORE SUB ADD SWAP1 KECCAK256 ADD SLOAD AND PUSH1 0x5 DUP2 LT ISZERO PUSH2 0x5B3 JUMPI PUSH2 0x165E SWAP2 PUSH2 0x32B PUSH1 0x1 PUSH1 0x20 SWAP4 EQ PUSH2 0x1F8C JUMP JUMPDEST DUP2 ADD PUSH1 0x2 DUP2 MSTORE SUB ADD SWAP1 KECCAK256 SWAP1 PUSH1 0x8 DUP3 ADD SLOAD TIMESTAMP GT ISZERO PUSH2 0x1797 JUMPI PUSH1 0x6 DUP3 ADD SLOAD PUSH1 0xFF DUP2 AND PUSH1 0x2 DUP2 LT ISZERO PUSH2 0x5B3 JUMPI PUSH2 0x1712 JUMPI POP PUSH2 0x16B1 PUSH1 0x0 DUP1 DUP1 DUP1 PUSH1 0x1 DUP1 PUSH1 0xA0 SHL SUB PUSH1 0x2 DUP9 ADD SLOAD AND PUSH1 0x7 DUP9 ADD SLOAD SWAP1 GAS CALL PUSH2 0x758 PUSH2 0x205F JUMP JUMPDEST PUSH1 0x9 DUP3 ADD PUSH1 0x3 PUSH1 0xFF NOT DUP3 SLOAD AND OR SWAP1 SSTORE TIMESTAMP PUSH1 0xC DUP4 ADD SSTORE PUSH32 0xF1B8949E4896D4133C11D16389F3C895052AEA3F32798E8FD296115D24A9884C PUSH1 0x20 PUSH2 0x1704 PUSH1 0x7 PUSH1 0x1 DUP1 PUSH1 0xA0 SHL SUB PUSH1 0x2 DUP8 ADD SLOAD AND SWAP6 ADD SLOAD SWAP4 PUSH2 0x20E9 JUMP JUMPDEST SWAP3 PUSH1 0x40 MLOAD SWAP1 DUP2 MSTORE LOG3 PUSH1 0x1 DUP1 SSTORE STOP JUMPDEST PUSH1 0x2 DUP4 ADD SLOAD PUSH1 0x7 DUP5 ADD SLOAD PUSH1 0x40 MLOAD PUSH4 0xA9059CBB PUSH1 0xE0 SHL DUP2 MSTORE PUSH1 0x1 PUSH1 0x1 PUSH1 0xA0 SHL SUB SWAP1 SWAP3 AND PUSH1 0x4 DUP4 ADD MSTORE PUSH1 0x24 DUP3 ADD MSTORE SWAP1 PUSH1 0x20 SWAP1 DUP3 SWAP1 DUP2 PUSH1 0x0 DUP2 PUSH1 0x44 DUP2 ADD SUB SWAP3 PUSH1 0x8 SHR PUSH1 0x1 PUSH1 0x1 PUSH1 0xA0 SHL SUB AND GAS CALL DUP1 ISZERO PUSH2 0x1F9 JUMPI PUSH2 0x1773 SWAP2 PUSH1 0x0 SWAP2 PUSH2 0x1778 JUMPI POP PUSH2 0x2013 JUMP JUMPDEST PUSH2 0x16B1 JUMP JUMPDEST PUSH2 0x1791 SWAP2 POP PUSH1 0x20 RETURNDATASIZE PUSH1 0x20 GT PUSH2 0x1F2 JUMPI PUSH2 0x1EA DUP2 DUP4 PUSH2 0x1D97 JUMP JUMPDEST DUP5 PUSH2 0xCFC JUMP JUMPDEST PUSH1 0x40 MLOAD PUSH3 0x461BCD PUSH1 0xE5 SHL DUP2 MSTORE PUSH1 0x20 PUSH1 0x4 DUP3 ADD MSTORE PUSH1 0x14 PUSH1 0x24 DUP3 ADD MSTORE PUSH20 0x131BD85B881B9BDD081BDD995C991D59481E595D PUSH1 0x62 SHL PUSH1 0x44 DUP3 ADD MSTORE PUSH1 0x64 SWAP1 REVERT JUMPDEST CALLVALUE PUSH2 0x205 JUMPI PUSH1 0x20 CALLDATASIZE PUSH1 0x3 NOT ADD SLT PUSH2 0x205 JUMPI PUSH1 0x4 CALLDATALOAD PUSH2 0x17EF PUSH2 0x2474 JUMP JUMPDEST PUSH1 0x64 DUP2 GT PUSH2 0x17FC JUMPI PUSH1 0x4 SSTORE STOP JUMPDEST PUSH1 0x40 MLOAD PUSH3 0x461BCD PUSH1 0xE5 SHL DUP2 MSTORE PUSH1 0x20 PUSH1 0x4 DUP3 ADD MSTORE PUSH1 0xC PUSH1 0x24 DUP3 ADD MSTORE PUSH12 0x8CCACA40E8DEDE40D0D2CED PUSH1 0xA3 SHL PUSH1 0x44 DUP3 ADD MSTORE PUSH1 0x64 SWAP1 REVERT JUMPDEST CALLVALUE PUSH2 0x205 JUMPI PUSH1 0x20 CALLDATASIZE PUSH1 0x3 NOT ADD SLT PUSH2 0x205 JUMPI PUSH1 0x4 CALLDATALOAD PUSH1 0x1 PUSH1 0x1 PUSH1 0x40 SHL SUB DUP2 GT PUSH2 0x205 JUMPI PUSH2 0x1860 SWAP1 CALLDATASIZE SWAP1 PUSH1 0x4 ADD PUSH2 0x1DD3 JUMP JUMPDEST PUSH2 0x1868 PUSH2 0x2452 JUMP JUMPDEST PUSH1 0x40 MLOAD PUSH2 0x1883 DUP3 MLOAD SWAP2 PUSH1 0x1 PUSH1 0x20 DUP6 ADD SWAP4 PUSH2 0x6A0 DUP2 DUP5 DUP8 PUSH2 0x1D33 JUMP JUMPDEST PUSH1 0xFF PUSH1 0x9 PUSH1 0x40 MLOAD PUSH1 0x20 DUP2 DUP7 MLOAD PUSH2 0x189A DUP2 DUP4 DUP10 PUSH2 0x1D33 JUMP JUMPDEST DUP2 ADD PUSH1 0x2 DUP2 MSTORE SUB ADD SWAP1 KECCAK256 ADD SLOAD AND PUSH1 0x5 DUP2 LT ISZERO PUSH2 0x5B3 JUMPI PUSH2 0x18C2 SWAP2 PUSH2 0x32B PUSH1 0x1 PUSH1 0x20 SWAP4 EQ PUSH2 0x1F8C JUMP JUMPDEST DUP2 ADD PUSH1 0x2 DUP2 MSTORE SUB ADD SWAP1 KECCAK256 PUSH1 0x3 DUP2 ADD PUSH1 0x1 DUP1 PUSH1 0xA0 SHL SUB DUP2 SLOAD AND PUSH1 0x5 DUP4 ADD SWAP2 DUP3 SLOAD PUSH2 0x2710 PUSH2 0x18F0 PUSH1 0x4 SLOAD DUP4 PUSH2 0x1FCE JUMP JUMPDEST DIV SWAP3 PUSH2 0x192F PUSH1 0x20 PUSH2 0x1901 DUP7 DUP6 PUSH2 0x1FE1 JUMP JUMPDEST PUSH1 0x40 MLOAD PUSH4 0x23B872DD PUSH1 0xE0 SHL DUP2 MSTORE CALLER PUSH1 0x4 DUP3 ADD MSTORE ADDRESS PUSH1 0x24 DUP3 ADD MSTORE PUSH1 0x44 DUP2 ADD SWAP6 SWAP1 SWAP6 MSTORE SWAP4 SWAP2 DUP3 SWAP1 DUP2 SWAP1 PUSH1 0x64 DUP3 ADD SWAP1 JUMP JUMPDEST SUB DUP2 PUSH1 0x0 DUP7 GAS CALL SWAP1 DUP2 ISZERO PUSH2 0x1F9 JUMPI PUSH1 0x0 SWAP2 PUSH2 0x1BC4 JUMPI JUMPDEST POP ISZERO PUSH2 0x1B8C JUMPI DUP4 PUSH1 0x20 SWAP4 PUSH2 0x1997 SWAP6 PUSH2 0x1B2D JUMPI JUMPDEST POP POP PUSH1 0x2 DUP7 ADD SLOAD PUSH1 0x40 MLOAD PUSH4 0xA9059CBB PUSH1 0xE0 SHL DUP2 MSTORE PUSH1 0x1 PUSH1 0x1 PUSH1 0xA0 SHL SUB SWAP1 SWAP2 AND PUSH1 0x4 DUP3 ADD MSTORE PUSH1 0x24 DUP2 ADD SWAP3 SWAP1 SWAP3 MSTORE SWAP1 SWAP3 DUP4 SWAP2 SWAP1 DUP3 SWAP1 PUSH1 0x0 SWAP1 DUP3 SWAP1 PUSH1 0x44 DUP3 ADD SWAP1 JUMP JUMPDEST SUB SWAP3 GAS CALL SWAP1 DUP2 ISZERO PUSH2 0x1F9 JUMPI PUSH1 0x0 SWAP2 PUSH2 0x1B0E JUMPI JUMPDEST POP ISZERO PUSH2 0x1AC9 JUMPI PUSH1 0x6 DUP3 ADD SLOAD SWAP2 PUSH1 0xFF DUP4 AND PUSH1 0x2 DUP2 LT ISZERO PUSH2 0x5B3 JUMPI PUSH2 0x1A3F JUMPI PUSH2 0x1A0D SWAP3 POP PUSH2 0x19F1 PUSH1 0x0 DUP1 DUP1 DUP1 PUSH1 0x1 DUP1 PUSH1 0xA0 SHL SUB PUSH1 0x1 DUP8 ADD SLOAD AND PUSH1 0x7 DUP8 ADD SLOAD SWAP1 GAS CALL PUSH2 0x758 PUSH2 0x205F JUMP JUMPDEST PUSH1 0x9 DUP2 ADD PUSH1 0x2 PUSH1 0xFF NOT DUP3 SLOAD AND OR SWAP1 SSTORE PUSH1 0xC TIMESTAMP SWAP2 ADD SSTORE SLOAD SWAP2 PUSH2 0x20E9 JUMP JUMPDEST PUSH1 0x40 MLOAD SWAP2 DUP3 MSTORE PUSH32 0xFFE64C5EC0AEFBE73DC8A169259738E2B8CB8A537F6DCE448F1E932DB6F20479 PUSH1 0x20 CALLER SWAP4 LOG3 PUSH1 0x1 DUP1 SSTORE STOP JUMPDEST PUSH1 0x1 DUP2 ADD SLOAD PUSH1 0x7 DUP3 ADD SLOAD PUSH1 0x40 MLOAD PUSH4 0xA9059CBB PUSH1 0xE0 SHL DUP2 MSTORE PUSH1 0x1 PUSH1 0x1 PUSH1 0xA0 SHL SUB SWAP1 SWAP3 AND PUSH1 0x4 DUP4 ADD MSTORE PUSH1 0x24 DUP3 ADD MSTORE SWAP3 PUSH1 0x20 SWAP1 DUP5 SWAP1 DUP2 PUSH1 0x0 DUP2 PUSH1 0x44 DUP2 ADD SUB SWAP3 PUSH1 0x8 SHR PUSH1 0x1 PUSH1 0x1 PUSH1 0xA0 SHL SUB AND GAS CALL SWAP3 DUP4 ISZERO PUSH2 0x1F9 JUMPI PUSH2 0x1A0D SWAP4 PUSH2 0x1AA5 SWAP2 PUSH1 0x0 SWAP2 PUSH2 0x1AAA JUMPI POP PUSH2 0x2013 JUMP JUMPDEST PUSH2 0x19F1 JUMP JUMPDEST PUSH2 0x1AC3 SWAP2 POP PUSH1 0x20 RETURNDATASIZE PUSH1 0x20 GT PUSH2 0x1F2 JUMPI PUSH2 0x1EA DUP2 DUP4 PUSH2 0x1D97 JUMP JUMPDEST DUP7 PUSH2 0xCFC JUMP JUMPDEST PUSH1 0x40 MLOAD PUSH3 0x461BCD PUSH1 0xE5 SHL DUP2 MSTORE PUSH1 0x20 PUSH1 0x4 DUP3 ADD MSTORE PUSH1 0x19 PUSH1 0x24 DUP3 ADD MSTORE PUSH32 0x5472616E7366657220746F206C656E646572206661696C656400000000000000 PUSH1 0x44 DUP3 ADD MSTORE PUSH1 0x64 SWAP1 REVERT JUMPDEST PUSH2 0x1B27 SWAP2 POP PUSH1 0x20 RETURNDATASIZE PUSH1 0x20 GT PUSH2 0x1F2 JUMPI PUSH2 0x1EA DUP2 DUP4 PUSH2 0x1D97 JUMP JUMPDEST DUP5 PUSH2 0x19AA JUMP JUMPDEST DUP5 PUSH32 0x6C5EFEFF5C320943D265DC4E5F1AF95AD523555CE0C1957E367DDA5514572DF SWAP2 PUSH1 0x1 DUP1 PUSH1 0xA0 SHL SUB DUP2 SLOAD AND PUSH1 0x0 MSTORE PUSH1 0x6 DUP3 MSTORE PUSH1 0x40 PUSH1 0x0 KECCAK256 PUSH2 0x1B71 DUP6 DUP3 SLOAD PUSH2 0x2006 JUMP JUMPDEST SWAP1 SSTORE SLOAD PUSH1 0x40 MLOAD SWAP4 DUP5 MSTORE PUSH1 0x1 PUSH1 0x1 PUSH1 0xA0 SHL SUB AND SWAP3 LOG2 DUP8 DUP1 PUSH2 0x1958 JUMP JUMPDEST PUSH1 0x40 MLOAD PUSH3 0x461BCD PUSH1 0xE5 SHL DUP2 MSTORE PUSH1 0x20 PUSH1 0x4 DUP3 ADD MSTORE PUSH1 0x10 PUSH1 0x24 DUP3 ADD MSTORE PUSH16 0x14995C185E5B595B9D0819985A5B1959 PUSH1 0x82 SHL PUSH1 0x44 DUP3 ADD MSTORE PUSH1 0x64 SWAP1 REVERT JUMPDEST PUSH2 0x1BDD SWAP2 POP PUSH1 0x20 RETURNDATASIZE PUSH1 0x20 GT PUSH2 0x1F2 JUMPI PUSH2 0x1EA DUP2 DUP4 PUSH2 0x1D97 JUMP JUMPDEST DUP9 PUSH2 0x1945 JUMP JUMPDEST CALLVALUE PUSH2 0x205 JUMPI PUSH1 0x20 CALLDATASIZE PUSH1 0x3 NOT ADD SLT PUSH2 0x205 JUMPI PUSH1 0x1 PUSH1 0x1 PUSH1 0xA0 SHL SUB PUSH2 0x1C04 PUSH2 0x1D07 JUMP JUMPDEST AND PUSH1 0x0 MSTORE PUSH1 0x3 PUSH1 0x20 MSTORE PUSH1 0x40 PUSH1 0x0 KECCAK256 DUP1 SLOAD SWAP1 PUSH1 0x1 PUSH1 0x1 PUSH1 0x40 SHL SUB DUP3 GT PUSH2 0x1CD7 JUMPI PUSH1 0x40 MLOAD SWAP2 PUSH2 0x1C37 PUSH1 0x20 DUP3 PUSH1 0x5 SHL ADD DUP5 PUSH2 0x1D97 JUMP JUMPDEST DUP1 DUP4 MSTORE PUSH1 0x20 DUP4 ADD DUP1 SWAP3 PUSH1 0x0 MSTORE PUSH1 0x20 PUSH1 0x0 KECCAK256 PUSH1 0x0 SWAP2 JUMPDEST DUP4 DUP4 LT PUSH2 0x1CBA JUMPI DUP5 DUP7 PUSH1 0x40 MLOAD SWAP2 DUP3 SWAP2 PUSH1 0x20 DUP4 ADD SWAP1 PUSH1 0x20 DUP5 MSTORE MLOAD DUP1 SWAP2 MSTORE PUSH1 0x40 DUP4 ADD SWAP1 PUSH1 0x40 DUP2 PUSH1 0x5 SHL DUP6 ADD ADD SWAP3 SWAP2 PUSH1 0x0 SWAP1 JUMPDEST DUP3 DUP3 LT PUSH2 0x1C8B JUMPI POP POP POP POP SUB SWAP1 RETURN JUMPDEST SWAP2 SWAP4 PUSH1 0x1 SWAP2 SWAP4 SWAP6 POP PUSH1 0x20 PUSH2 0x1CAA DUP2 SWAP3 PUSH1 0x3F NOT DUP11 DUP3 SUB ADD DUP7 MSTORE DUP9 MLOAD PUSH2 0x1D56 JUMP JUMPDEST SWAP7 ADD SWAP3 ADD SWAP3 ADD DUP6 SWAP5 SWAP4 SWAP2 SWAP3 PUSH2 0x1C7C JUMP JUMPDEST PUSH1 0x1 PUSH1 0x20 DUP2 SWAP3 PUSH2 0x1CC9 DUP6 PUSH2 0x1E6E JUMP JUMPDEST DUP2 MSTORE ADD SWAP3 ADD SWAP3 ADD SWAP2 SWAP1 PUSH2 0x1C4C JUMP JUMPDEST PUSH4 0x4E487B71 PUSH1 0xE0 SHL PUSH1 0x0 MSTORE PUSH1 0x41 PUSH1 0x4 MSTORE PUSH1 0x24 PUSH1 0x0 REVERT JUMPDEST CALLVALUE PUSH2 0x205 JUMPI PUSH1 0x0 CALLDATASIZE PUSH1 0x3 NOT ADD SLT PUSH2 0x205 JUMPI DUP1 PUSH1 0x0 PUSH1 0x20 SWAP3 MSTORE RETURN JUMPDEST PUSH1 0x4 CALLDATALOAD SWAP1 PUSH1 0x1 PUSH1 0x1 PUSH1 0xA0 SHL SUB DUP3 AND DUP3 SUB PUSH2 0x205 JUMPI JUMP JUMPDEST PUSH1 0x24 CALLDATALOAD SWAP1 PUSH1 0x1 PUSH1 0x1 PUSH1 0xA0 SHL SUB DUP3 AND DUP3 SUB PUSH2 0x205 JUMPI JUMP JUMPDEST PUSH1 0x0 JUMPDEST DUP4 DUP2 LT PUSH2 0x1D46 JUMPI POP POP PUSH1 0x0 SWAP2 ADD MSTORE JUMP JUMPDEST DUP2 DUP2 ADD MLOAD DUP4 DUP3 ADD MSTORE PUSH1 0x20 ADD PUSH2 0x1D36 JUMP JUMPDEST SWAP1 PUSH1 0x20 SWAP2 PUSH2 0x1D6F DUP2 MLOAD DUP1 SWAP3 DUP2 DUP6 MSTORE DUP6 DUP1 DUP7 ADD SWAP2 ADD PUSH2 0x1D33 JUMP JUMPDEST PUSH1 0x1F ADD PUSH1 0x1F NOT AND ADD ADD SWAP1 JUMP JUMPDEST PUSH2 0x1C0 DUP2 ADD SWAP1 DUP2 LT PUSH1 0x1 PUSH1 0x1 PUSH1 0x40 SHL SUB DUP3 GT OR PUSH2 0x1CD7 JUMPI PUSH1 0x40 MSTORE JUMP JUMPDEST SWAP1 PUSH1 0x1F DUP1 NOT SWAP2 ADD AND DUP2 ADD SWAP1 DUP2 LT PUSH1 0x1 PUSH1 0x1 PUSH1 0x40 SHL SUB DUP3 GT OR PUSH2 0x1CD7 JUMPI PUSH1 0x40 MSTORE JUMP JUMPDEST PUSH1 0x1 PUSH1 0x1 PUSH1 0x40 SHL SUB DUP2 GT PUSH2 0x1CD7 JUMPI PUSH1 0x1F ADD PUSH1 0x1F NOT AND PUSH1 0x20 ADD SWAP1 JUMP JUMPDEST DUP2 PUSH1 0x1F DUP3 ADD SLT ISZERO PUSH2 0x205 JUMPI DUP1 CALLDATALOAD SWAP1 PUSH2 0x1DEA DUP3 PUSH2 0x1DB8 JUMP JUMPDEST SWAP3 PUSH2 0x1DF8 PUSH1 0x40 MLOAD SWAP5 DUP6 PUSH2 0x1D97 JUMP JUMPDEST DUP3 DUP5 MSTORE PUSH1 0x20 DUP4 DUP4 ADD ADD GT PUSH2 0x205 JUMPI DUP2 PUSH1 0x0 SWAP3 PUSH1 0x20 DUP1 SWAP4 ADD DUP4 DUP7 ADD CALLDATACOPY DUP4 ADD ADD MSTORE SWAP1 JUMP JUMPDEST SWAP1 PUSH1 0x2 DUP3 LT ISZERO PUSH2 0x5B3 JUMPI MSTORE JUMP JUMPDEST SWAP1 PUSH1 0x5 DUP3 LT ISZERO PUSH2 0x5B3 JUMPI MSTORE JUMP JUMPDEST SWAP1 PUSH1 0x1 DUP3 DUP2 SHR SWAP3 AND DUP1 ISZERO PUSH2 0x1E64 JUMPI JUMPDEST PUSH1 0x20 DUP4 LT EQ PUSH2 0x1E4E JUMPI JUMP JUMPDEST PUSH4 0x4E487B71 PUSH1 0xE0 SHL PUSH1 0x0 MSTORE PUSH1 0x22 PUSH1 0x4 MSTORE PUSH1 0x24 PUSH1 0x0 REVERT JUMPDEST SWAP2 PUSH1 0x7F AND SWAP2 PUSH2 0x1E43 JUMP JUMPDEST SWAP1 PUSH1 0x40 MLOAD SWAP2 DUP3 PUSH1 0x0 DUP3 SLOAD SWAP3 PUSH2 0x1E82 DUP5 PUSH2 0x1E34 JUMP JUMPDEST DUP1 DUP5 MSTORE SWAP4 PUSH1 0x1 DUP2 AND SWAP1 DUP2 ISZERO PUSH2 0x1EF0 JUMPI POP PUSH1 0x1 EQ PUSH2 0x1EA9 JUMPI JUMPDEST POP PUSH2 0x1EA7 SWAP3 POP SUB DUP4 PUSH2 0x1D97 JUMP JUMPDEST JUMP JUMPDEST SWAP1 POP PUSH1 0x0 SWAP3 SWAP2 SWAP3 MSTORE PUSH1 0x20 PUSH1 0x0 KECCAK256 SWAP1 PUSH1 0x0 SWAP2 JUMPDEST DUP2 DUP4 LT PUSH2 0x1ED4 JUMPI POP POP SWAP1 PUSH1 0x20 PUSH2 0x1EA7 SWAP3 DUP3 ADD ADD CODESIZE PUSH2 0x1E9A JUMP JUMPDEST PUSH1 0x20 SWAP2 SWAP4 POP DUP1 PUSH1 0x1 SWAP2 SLOAD DUP4 DUP6 DUP10 ADD ADD MSTORE ADD SWAP2 ADD SWAP1 SWAP2 DUP5 SWAP3 PUSH2 0x1EBB JUMP JUMPDEST SWAP1 POP PUSH1 0x20 SWAP3 POP PUSH2 0x1EA7 SWAP5 SWAP2 POP PUSH1 0xFF NOT AND DUP3 DUP5 ADD MSTORE ISZERO ISZERO PUSH1 0x5 SHL DUP3 ADD ADD CODESIZE PUSH2 0x1E9A JUMP JUMPDEST DUP1 SLOAD DUP3 LT ISZERO PUSH2 0x1F2A JUMPI PUSH1 0x0 MSTORE PUSH1 0x20 PUSH1 0x0 KECCAK256 ADD SWAP1 PUSH1 0x0 SWAP1 JUMP JUMPDEST PUSH4 0x4E487B71 PUSH1 0xE0 SHL PUSH1 0x0 MSTORE PUSH1 0x32 PUSH1 0x4 MSTORE PUSH1 0x24 PUSH1 0x0 REVERT JUMPDEST ISZERO PUSH2 0x1F47 JUMPI JUMP JUMPDEST PUSH1 0x40 MLOAD PUSH3 0x461BCD PUSH1 0xE5 SHL DUP2 MSTORE PUSH1 0x20 PUSH1 0x4 DUP3 ADD MSTORE PUSH1 0x1B PUSH1 0x24 DUP3 ADD MSTORE PUSH32 0x4F6E6C7920626F72726F7765722063616E2063616C6C20746869730000000000 PUSH1 0x44 DUP3 ADD MSTORE PUSH1 0x64 SWAP1 REVERT JUMPDEST ISZERO PUSH2 0x1F93 JUMPI JUMP JUMPDEST PUSH1 0x40 MLOAD PUSH3 0x461BCD PUSH1 0xE5 SHL DUP2 MSTORE PUSH1 0x20 PUSH1 0x4 DUP3 ADD MSTORE PUSH1 0x13 PUSH1 0x24 DUP3 ADD MSTORE PUSH19 0x496E76616C6964206C6F616E20737461747573 PUSH1 0x68 SHL PUSH1 0x44 DUP3 ADD MSTORE PUSH1 0x64 SWAP1 REVERT JUMPDEST DUP2 DUP2 MUL SWAP3 SWAP2 DUP2 ISZERO SWAP2 DUP5 DIV EQ OR ISZERO PUSH2 0xF87 JUMPI JUMP JUMPDEST SWAP2 SWAP1 DUP3 SUB SWAP2 DUP3 GT PUSH2 0xF87 JUMPI JUMP JUMPDEST SWAP1 DUP2 PUSH1 0x20 SWAP2 SUB SLT PUSH2 0x205 JUMPI MLOAD DUP1 ISZERO ISZERO DUP2 SUB PUSH2 0x205 JUMPI SWAP1 JUMP JUMPDEST SWAP2 SWAP1 DUP3 ADD DUP1 SWAP3 GT PUSH2 0xF87 JUMPI JUMP JUMPDEST ISZERO PUSH2 0x201A JUMPI JUMP JUMPDEST PUSH1 0x40 MLOAD PUSH3 0x461BCD PUSH1 0xE5 SHL DUP2 MSTORE PUSH1 0x20 PUSH1 0x4 DUP3 ADD MSTORE PUSH1 0x1A PUSH1 0x24 DUP3 ADD MSTORE PUSH32 0x436F6C6C61746572616C207472616E73666572206661696C6564000000000000 PUSH1 0x44 DUP3 ADD MSTORE PUSH1 0x64 SWAP1 REVERT JUMPDEST RETURNDATASIZE ISZERO PUSH2 0x208A JUMPI RETURNDATASIZE SWAP1 PUSH2 0x2070 DUP3 PUSH2 0x1DB8 JUMP JUMPDEST SWAP2 PUSH2 0x207E PUSH1 0x40 MLOAD SWAP4 DUP5 PUSH2 0x1D97 JUMP JUMPDEST DUP3 MSTORE RETURNDATASIZE PUSH1 0x0 PUSH1 0x20 DUP5 ADD RETURNDATACOPY JUMP JUMPDEST PUSH1 0x60 SWAP1 JUMP JUMPDEST ISZERO PUSH2 0x2096 JUMPI JUMP JUMPDEST PUSH1 0x40 MLOAD PUSH3 0x461BCD PUSH1 0xE5 SHL DUP2 MSTORE PUSH1 0x20 PUSH1 0x4 DUP3 ADD MSTORE PUSH1 0x13 PUSH1 0x24 DUP3 ADD MSTORE PUSH19 0x115512081D1C985B9CD9995C8819985A5B1959 PUSH1 0x6A SHL PUSH1 0x44 DUP3 ADD MSTORE PUSH1 0x64 SWAP1 REVERT JUMPDEST SWAP1 PUSH1 0x5 DUP2 LT ISZERO PUSH2 0x5B3 JUMPI PUSH1 0xFF DUP1 NOT DUP4 SLOAD AND SWAP2 AND OR SWAP1 SSTORE JUMP JUMPDEST PUSH2 0x2101 SWAP1 PUSH1 0x20 PUSH1 0x40 MLOAD SWAP3 DUP3 DUP5 DUP1 SWAP5 MLOAD SWAP4 DUP5 SWAP3 ADD PUSH2 0x1D33 JUMP JUMPDEST DUP2 ADD SUB SWAP1 KECCAK256 SWAP1 JUMP JUMPDEST ISZERO PUSH2 0x2110 JUMPI JUMP JUMPDEST PUSH1 0x40 MLOAD PUSH3 0x461BCD PUSH1 0xE5 SHL DUP2 MSTORE PUSH1 0x20 PUSH1 0x4 DUP3 ADD MSTORE PUSH1 0x13 PUSH1 0x24 DUP3 ADD MSTORE PUSH19 0x4E6F206665657320746F207769746864726177 PUSH1 0x68 SHL PUSH1 0x44 DUP3 ADD MSTORE PUSH1 0x64 SWAP1 REVERT JUMPDEST PUSH1 0x2 DUP3 LT ISZERO PUSH2 0x5B3 JUMPI MSTORE JUMP JUMPDEST PUSH1 0x5 DUP3 LT ISZERO PUSH2 0x5B3 JUMPI MSTORE JUMP JUMPDEST ISZERO PUSH2 0x216A JUMPI JUMP JUMPDEST PUSH1 0x40 MLOAD PUSH3 0x461BCD PUSH1 0xE5 SHL DUP2 MSTORE PUSH1 0x20 PUSH1 0x4 DUP3 ADD MSTORE PUSH1 0xF PUSH1 0x24 DUP3 ADD MSTORE PUSH15 0x125B9D985B1A59081B1BD85B881251 PUSH1 0x8A SHL PUSH1 0x44 DUP3 ADD MSTORE PUSH1 0x64 SWAP1 REVERT JUMPDEST ISZERO PUSH2 0x21A8 JUMPI JUMP JUMPDEST PUSH1 0x40 MLOAD PUSH3 0x461BCD PUSH1 0xE5 SHL DUP2 MSTORE PUSH1 0x20 PUSH1 0x4 DUP3 ADD MSTORE PUSH1 0x16 PUSH1 0x24 DUP3 ADD MSTORE PUSH22 0x4C6F616E20494420616C726561647920657869737473 PUSH1 0x50 SHL PUSH1 0x44 DUP3 ADD MSTORE PUSH1 0x64 SWAP1 REVERT JUMPDEST ISZERO PUSH2 0x21ED JUMPI JUMP JUMPDEST PUSH1 0x40 MLOAD PUSH3 0x461BCD PUSH1 0xE5 SHL DUP2 MSTORE PUSH1 0x20 PUSH1 0x4 DUP3 ADD MSTORE PUSH1 0x15 PUSH1 0x24 DUP3 ADD MSTORE PUSH21 0x131BD85B88185B5BDD5B9D081D1BDBC81CDB585B1B PUSH1 0x5A SHL PUSH1 0x44 DUP3 ADD MSTORE PUSH1 0x64 SWAP1 REVERT JUMPDEST ISZERO PUSH2 0x2231 JUMPI JUMP JUMPDEST PUSH1 0x40 MLOAD PUSH3 0x461BCD PUSH1 0xE5 SHL DUP2 MSTORE PUSH1 0x20 PUSH1 0x4 DUP3 ADD MSTORE PUSH1 0x2D PUSH1 0x24 DUP3 ADD MSTORE PUSH32 0x526570617920616D6F756E74206D757374206265206772656174657220746861 PUSH1 0x44 DUP3 ADD MSTORE PUSH13 0x1B881B1BD85B88185B5BDD5B9D PUSH1 0x9A SHL PUSH1 0x64 DUP3 ADD MSTORE PUSH1 0x84 SWAP1 REVERT JUMPDEST ISZERO PUSH2 0x2293 JUMPI JUMP JUMPDEST PUSH1 0x40 MLOAD PUSH3 0x461BCD PUSH1 0xE5 SHL DUP2 MSTORE PUSH1 0x20 PUSH1 0x4 DUP3 ADD MSTORE PUSH1 0x16 PUSH1 0x24 DUP3 ADD MSTORE PUSH22 0x223AB2903A34B6B2B9BA30B6B8103A37B79039B7B7B7 PUSH1 0x51 SHL PUSH1 0x44 DUP3 ADD MSTORE PUSH1 0x64 SWAP1 REVERT JUMPDEST SWAP2 SWAP1 SWAP2 DUP3 MLOAD PUSH1 0x1 PUSH1 0x1 PUSH1 0x40 SHL SUB DUP2 GT PUSH2 0x1CD7 JUMPI PUSH2 0x22EE DUP3 SLOAD PUSH2 0x1E34 JUMP JUMPDEST PUSH1 0x1F DUP2 GT PUSH2 0x2394 JUMPI JUMPDEST POP PUSH1 0x20 PUSH1 0x1F DUP3 GT PUSH1 0x1 EQ PUSH2 0x2332 JUMPI DUP2 SWAP3 SWAP4 SWAP5 PUSH1 0x0 SWAP3 PUSH2 0x2327 JUMPI JUMPDEST POP POP DUP2 PUSH1 0x1 SHL SWAP2 PUSH1 0x0 NOT SWAP1 PUSH1 0x3 SHL SHR NOT AND OR SWAP1 SSTORE JUMP JUMPDEST ADD MLOAD SWAP1 POP CODESIZE DUP1 PUSH2 0x2311 JUMP JUMPDEST PUSH1 0x1F NOT DUP3 AND SWAP1 DUP4 PUSH1 0x0 MSTORE DUP1 PUSH1 0x0 KECCAK256 SWAP2 PUSH1 0x0 JUMPDEST DUP2 DUP2 LT PUSH2 0x237C JUMPI POP SWAP6 DUP4 PUSH1 0x1 SWAP6 SWAP7 SWAP8 LT PUSH2 0x2363 JUMPI JUMPDEST POP POP POP DUP2 SHL ADD SWAP1 SSTORE JUMP JUMPDEST ADD MLOAD PUSH1 0x0 NOT PUSH1 0xF8 DUP5 PUSH1 0x3 SHL AND SHR NOT AND SWAP1 SSTORE CODESIZE DUP1 DUP1 PUSH2 0x2359 JUMP JUMPDEST SWAP2 SWAP3 PUSH1 0x20 PUSH1 0x1 DUP2 SWAP3 DUP7 DUP12 ADD MLOAD DUP2 SSTORE ADD SWAP5 ADD SWAP3 ADD PUSH2 0x2344 JUMP JUMPDEST DUP3 PUSH1 0x0 MSTORE PUSH1 0x20 PUSH1 0x0 KECCAK256 PUSH1 0x1F DUP4 ADD PUSH1 0x5 SHR DUP2 ADD SWAP2 PUSH1 0x20 DUP5 LT PUSH2 0x23D2 JUMPI JUMPDEST PUSH1 0x1F ADD PUSH1 0x5 SHR ADD SWAP1 JUMPDEST DUP2 DUP2 LT PUSH2 0x23C6 JUMPI POP PUSH2 0x22F7 JUMP JUMPDEST PUSH1 0x0 DUP2 SSTORE PUSH1 0x1 ADD PUSH2 0x23B9 JUMP JUMPDEST SWAP1 SWAP2 POP DUP2 SWAP1 PUSH2 0x23B0 JUMP JUMPDEST DUP1 SLOAD PUSH9 0x10000000000000000 DUP2 LT ISZERO PUSH2 0x1CD7 JUMPI PUSH2 0x23FE SWAP2 PUSH1 0x1 DUP3 ADD DUP2 SSTORE PUSH2 0x1F12 JUMP JUMPDEST SWAP2 SWAP1 SWAP2 PUSH2 0x637 JUMPI PUSH2 0x1EA7 SWAP2 PUSH2 0x22D1 JUMP JUMPDEST ISZERO PUSH2 0x2415 JUMPI JUMP JUMPDEST PUSH1 0x40 MLOAD PUSH3 0x461BCD PUSH1 0xE5 SHL DUP2 MSTORE PUSH1 0x20 PUSH1 0x4 DUP3 ADD MSTORE PUSH1 0x15 PUSH1 0x24 DUP3 ADD MSTORE PUSH21 0x151BDAD95B881D1C985B9CD9995C8819985A5B1959 PUSH1 0x5A SHL PUSH1 0x44 DUP3 ADD MSTORE PUSH1 0x64 SWAP1 REVERT JUMPDEST PUSH1 0x2 PUSH1 0x1 SLOAD EQ PUSH2 0x2463 JUMPI PUSH1 0x2 PUSH1 0x1 SSTORE JUMP JUMPDEST PUSH4 0x3EE5AEB5 PUSH1 0xE0 SHL PUSH1 0x0 MSTORE PUSH1 0x4 PUSH1 0x0 REVERT JUMPDEST PUSH1 0x0 SLOAD PUSH1 0x1 PUSH1 0x1 PUSH1 0xA0 SHL SUB AND CALLER SUB PUSH2 0x2488 JUMPI JUMP JUMPDEST PUSH4 0x118CDAA7 PUSH1 0xE0 SHL PUSH1 0x0 MSTORE CALLER PUSH1 0x4 MSTORE PUSH1 0x24 PUSH1 0x0 REVERT INVALID LOG2 PUSH5 0x6970667358 0x22 SLT KECCAK256 STATICCALL 0xD9 PUSH17 0xCFA47795A676D1407F13DDD5F6DB578F55 CALLDATACOPY 0xDE 0xD4 PC SELFBALANCE LOG0 SIGNEXTEND PUSH6 0xF187E3BF6473 PUSH16 0x6C634300081B00330000000000000000 "},"methodIdentifiers":{"MIN_LOAN_AMOUNT()":"96fa212f","MIN_LOAN_DURATION()":"89d99a05","NATIVE_ETH()":"011e1167","cancelLoan(string)":"c70f2e2b","collectedETHFees()":"dfaaeb54","collectedTokenFees(address)":"4923a537","getContractETHBalance()":"8c89a0ad","getLoan(string)":"c47d2586","getUserLoans(address)":"02bf321f","isLiquidatable(string)":"513099c6","liquidateLoan(string)":"18a1cc09","loans(string)":"c6141f63","matchLoan(string)":"d947bee4","owner()":"8da5cb5b","platformFeeBps()":"22dcd13e","renounceOwnership()":"715018a6","repayLoan(string)":"035dc3d9","requestLoanWithETH(string,address,uint256,uint256,uint256)":"8fec8015","requestLoanWithToken(string,address,uint256,uint256,address,uint256,uint256)":"abdd46a4","setPlatformFee(uint256)":"12e8e2c3","transferOwnership(address)":"f2fde38b","userLoans(address,uint256)":"d8bad5bd","withdrawETHFees()":"393da550","withdrawTokenFees(address)":"f62722a0"}}}}}