{"contracts/PawnableLoan.sol":{"PawnableLoan":{"abi":[{"inputs":[],"stateMutability":"nonpayable","type":"constructor"},{"inputs":[{"internalType":"address","name":"owner","type":"address"}],"name":"OwnableInvalidOwner","type":"error"},{"inputs":[{"internalType":"address","name":"account","type":"address"}],"name":"OwnableUnauthorizedAccount","type":"error"},{"inputs":[],"name":"ReentrancyGuardReentrantCall","type":"error"},{"anonymous":false,"inputs":[{"indexed":true,"internalType":"address","name":"token","type":"address"},{"indexed":false,"internalType":"uint256","name":"amount","type":"uint256"}],"name":"FeeCollected","type":"event"},{"anonymous":false,"inputs":[{"indexed":true,"internalType":"string","name":"loanId","type":"string"},{"indexed":true,"internalType":"address","name":"borrower","type":"address"}],"name":"LoanCancelled","type":"event"},{"anonymous":false,"inputs":[{"indexed":true,"internalType":"string","name":"loanId","type":"string"},{"indexed":true,"internalType":"address","name":"lender","type":"address"},{"indexed":false,"internalType":"uint256","name":"collateralCount","type":"uint256"}],"name":"LoanLiquidated","type":"event"},{"anonymous":false,"inputs":[{"indexed":true,"internalType":"string","name":"loanId","type":"string"},{"indexed":true,"internalType":"address","name":"borrower","type":"address"},{"indexed":true,"internalType":"address","name":"lender","type":"address"},{"indexed":false,"internalType":"uint256","name":"loanAmount","type":"uint256"}],"name":"LoanMatched","type":"event"},{"anonymous":false,"inputs":[{"indexed":true,"internalType":"string","name":"loanId","type":"string"},{"indexed":true,"internalType":"address","name":"borrower","type":"address"},{"indexed":false,"internalType":"uint256","name":"repayAmount","type":"uint256"}],"name":"LoanRepaid","type":"event"},{"anonymous":false,"inputs":[{"indexed":true,"internalType":"string","name":"loanId","type":"string"},{"indexed":true,"internalType":"address","name":"borrower","type":"address"},{"indexed":false,"internalType":"address","name":"loanToken","type":"address"},{"indexed":false,"internalType":"uint256","name":"loanAmount","type":"uint256"},{"indexed":false,"internalType":"uint256","name":"repayAmount","type":"uint256"},{"indexed":false,"internalType":"uint256","name":"dueTimestamp","type":"uint256"}],"name":"LoanRequested","type":"event"},{"anonymous":false,"inputs":[{"indexed":true,"internalType":"address","name":"previousOwner","type":"address"},{"indexed":true,"internalType":"address","name":"newOwner","type":"address"}],"name":"OwnershipTransferred","type":"event"},{"inputs":[],"name":"MIN_LOAN_AMOUNT","outputs":[{"internalType":"uint256","name":"","type":"uint256"}],"stateMutability":"view","type":"function"},{"inputs":[],"name":"MIN_LOAN_DURATION","outputs":[{"internalType":"uint256","name":"","type":"uint256"}],"stateMutability":"view","type":"function"},{"inputs":[{"internalType":"string","name":"loanId","type":"string"}],"name":"cancelLoan","outputs":[],"stateMutability":"nonpayable","type":"function"},{"inputs":[{"internalType":"address","name":"","type":"address"}],"name":"collectedFees","outputs":[{"internalType":"uint256","name":"","type":"uint256"}],"stateMutability":"view","type":"function"},{"inputs":[{"internalType":"string","name":"loanId","type":"string"}],"name":"getLoan","outputs":[{"components":[{"internalType":"string","name":"loanId","type":"string"},{"internalType":"address","name":"borrower","type":"address"},{"internalType":"address","name":"lender","type":"address"},{"internalType":"address","name":"loanToken","type":"address"},{"internalType":"uint256","name":"loanAmount","type":"uint256"},{"internalType":"uint256","name":"repayAmount","type":"uint256"},{"internalType":"address","name":"collateralNFT","type":"address"},{"internalType":"uint256[]","name":"collateralTokenIds","type":"uint256[]"},{"internalType":"uint256","name":"dueTimestamp","type":"uint256"},{"internalType":"enum PawnableLoan.LoanStatus","name":"status","type":"uint8"},{"internalType":"uint256","name":"createdAt","type":"uint256"},{"internalType":"uint256","name":"matchedAt","type":"uint256"},{"internalType":"uint256","name":"closedAt","type":"uint256"}],"internalType":"struct PawnableLoan.Loan","name":"","type":"tuple"}],"stateMutability":"view","type":"function"},{"inputs":[{"internalType":"address","name":"user","type":"address"}],"name":"getUserLoans","outputs":[{"internalType":"string[]","name":"","type":"string[]"}],"stateMutability":"view","type":"function"},{"inputs":[{"internalType":"string","name":"loanId","type":"string"}],"name":"isLiquidatable","outputs":[{"internalType":"bool","name":"","type":"bool"}],"stateMutability":"view","type":"function"},{"inputs":[{"internalType":"string","name":"loanId","type":"string"}],"name":"liquidateLoan","outputs":[],"stateMutability":"nonpayable","type":"function"},{"inputs":[{"internalType":"string","name":"","type":"string"}],"name":"loans","outputs":[{"internalType":"string","name":"loanId","type":"string"},{"internalType":"address","name":"borrower","type":"address"},{"internalType":"address","name":"lender","type":"address"},{"internalType":"address","name":"loanToken","type":"address"},{"internalType":"uint256","name":"loanAmount","type":"uint256"},{"internalType":"uint256","name":"repayAmount","type":"uint256"},{"internalType":"address","name":"collateralNFT","type":"address"},{"internalType":"uint256","name":"dueTimestamp","type":"uint256"},{"internalType":"enum PawnableLoan.LoanStatus","name":"status","type":"uint8"},{"internalType":"uint256","name":"createdAt","type":"uint256"},{"internalType":"uint256","name":"matchedAt","type":"uint256"},{"internalType":"uint256","name":"closedAt","type":"uint256"}],"stateMutability":"view","type":"function"},{"inputs":[{"internalType":"string","name":"loanId","type":"string"}],"name":"matchLoan","outputs":[],"stateMutability":"nonpayable","type":"function"},{"inputs":[],"name":"owner","outputs":[{"internalType":"address","name":"","type":"address"}],"stateMutability":"view","type":"function"},{"inputs":[],"name":"platformFeeBps","outputs":[{"internalType":"uint256","name":"","type":"uint256"}],"stateMutability":"view","type":"function"},{"inputs":[],"name":"renounceOwnership","outputs":[],"stateMutability":"nonpayable","type":"function"},{"inputs":[{"internalType":"string","name":"loanId","type":"string"}],"name":"repayLoan","outputs":[],"stateMutability":"nonpayable","type":"function"},{"inputs":[{"internalType":"string","name":"loanId","type":"string"},{"internalType":"address","name":"loanToken","type":"address"},{"internalType":"uint256","name":"loanAmount","type":"uint256"},{"internalType":"uint256","name":"repayAmount","type":"uint256"},{"internalType":"address","name":"collateralNFT","type":"address"},{"internalType":"uint256[]","name":"collateralTokenIds","type":"uint256[]"},{"internalType":"uint256","name":"dueTimestamp","type":"uint256"}],"name":"requestLoan","outputs":[],"stateMutability":"nonpayable","type":"function"},{"inputs":[{"internalType":"uint256","name":"newFeeBps","type":"uint256"}],"name":"setPlatformFee","outputs":[],"stateMutability":"nonpayable","type":"function"},{"inputs":[{"internalType":"address","name":"newOwner","type":"address"}],"name":"transferOwnership","outputs":[],"stateMutability":"nonpayable","type":"function"},{"inputs":[{"internalType":"address","name":"","type":"address"},{"internalType":"uint256","name":"","type":"uint256"}],"name":"userLoans","outputs":[{"internalType":"string","name":"","type":"string"}],"stateMutability":"view","type":"function"},{"inputs":[{"internalType":"address","name":"token","type":"address"}],"name":"withdrawFees","outputs":[],"stateMutability":"nonpayable","type":"function"}],"evm":{"bytecode":{"linkReferences":{},"object":"60808060405234607e57331560685760008054336001600160a01b0319821681178355916001600160a01b03909116907f8be0079c531659141344cd1fd0a4f28419497f9722a3daafe3b4186f6b6457e09080a360018055600a60045561208190816100848239f35b631e4fbdf760e01b600052600060045260246000fd5b600080fdfe6080604052600436101561001257600080fd5b60003560e01c806302bf321f14611a9f578063035dc3d91461170857806312e8e2c3146116ab578063164e68de146115c557806318a1cc09146113ec5780631cead9a7146113b257806322dcd13e14611394578063513099c614611210578063715018a6146111b75780638258e3d314610b3657806389d99a0514610b185780638da5cb5b14610aef57806396fa212f14610ad1578063c47d258614610838578063c6141f631461071c578063c70f2e2b14610571578063d8bad5bd146104ed578063d947bee41461017b5763f2fde38b146100ed57600080fd5b3461017657602036600319011261017657610106611b88565b61010e612022565b6001600160a01b0316801561016057600080546001600160a01b03198116831782556001600160a01b0316907f8be0079c531659141344cd1fd0a4f28419497f9722a3daafe3b4186f6b6457e09080a3005b631e4fbdf760e01b600052600060045260246000fd5b600080fd5b34610176576020366003190112610176576004356001600160401b038111610176576101ab903690600401611c23565b6101b3612000565b60405160ff6009835192602081818701956101cf818389611b9e565b8101600281520301902001541660058110156104d757610206916101f560209215611df5565b604051809381928651928391611b9e565b81016002815203019020600381019060018060a01b03825416600482019283549061271061023660045484611e37565b049161027560206102478584611e4a565b6040516323b872dd60e01b815233600482015230602482015260448101949094529291829081906064820190565b03816000895af1908115610410576000916104b8575b501561047b57826020926102df9461041c575b505060018501805460405163a9059cbb60e01b81526001600160a01b0390911660048201526024810192909252939092839190829060009082906044820190565b03925af1908115610410576000916103e1575b501561039257816002610360930160018060a01b0333166bffffffffffffffffffffffff60a01b82541617905560098101600160ff19825416179055600b4291015533600052600360205261034b846040600020611fd3565b549154926001600160a01b0390921691611e7c565b6040519283527fdcb74595a412006c9aad3b7ae905952ef1e2c5b1d9e7b1046cde54bfb809360a60203394a460018055005b60405162461bcd60e51b815260206004820152602160248201527f546f6b656e207472616e7366657220746f20626f72726f776572206661696c656044820152601960fa1b6064820152608490fd5b610403915060203d602011610409575b6103fb8183611c02565b810190611e57565b856102f2565b503d6103f1565b6040513d6000823e3d90fd5b837f06c5efeff5c320943d265dc4e5f1af95ad523555ce0c1957e367dda5514572df9160018060a01b03815416600052600582526040600020610460858254611e6f565b9055546040519384526001600160a01b031692a2878061029e565b60405162461bcd60e51b8152602060048201526015602482015274151bdad95b881d1c985b9cd9995c8819985a5b1959605a1b6044820152606490fd5b6104d1915060203d602011610409576103fb8183611c02565b8861028b565b634e487b7160e01b600052602160045260246000fd5b3461017657604036600319011261017657610506611b88565b6001600160a01b031660009081526003602052604090208054602435908110156101765761053391611d7b565b61055b5761054361055791611cd7565b604051918291602083526020830190611bc1565b0390f35b634e487b7160e01b600052600060045260246000fd5b34610176576020366003190112610176576004356001600160401b038111610176576105a1903690600401611c23565b6105a9612000565b6040516105e3825191600160208501936105c4818487611b9e565b82019160028352602081838060a01b0394030190200154163314611da9565b60ff600960405160208186516105fa818389611b9e565b8101600281520301902001541660058110156104d757610620916101f560209215611df5565b60029082019081520301902060098101805460ff1916600417905542600c82015560068101546001600160a01b03169190600781019060010160005b82548110156106e75781546001600160a01b03169061067b8185611d7b565b90549060031b1c91863b15610176576040516323b872dd60e01b81523060048201526001600160a01b039190911660248201526044810192909252600082606481838a5af1918215610410576001926106d6575b500161065c565b60006106e191611c02565b866106cf565b336106f185611e7c565b7fe64b74c222b0e5d5c4f084fd3f5a27b69274a73d3b805b014653748a5e09f06c600080a360018055005b34610176576020366003190112610176576004356001600160401b0381116101765761074c903690600401611c23565b604051818180935160208193019161076392611b9e565b81016002815203602001902061077881611cd7565b60018201546002830154600384015460048501546005860154600687015460088801546009890154600a8a0154600b8b0154600c909b0154604051610180808252909c8d9c6001600160a01b039c8d169c939b919a949960ff9096169896978416969594841693909116916107f091908e0190611bc1565b9a60208d015260408c015260608b015260808a015260a089015260c088015260e0870152610100860161082291611c90565b6101208501526101408401526101608301520390f35b34610176576020366003190112610176576004356001600160401b03811161017657602061086d6108dd923690600401611c23565b600061018060405161087e81611be6565b6060815282858201528260408201528260608201528260808201528260a08201528260c0820152606060e08201528261010082015282610120820152826101408201528261016082015201528160405193828580945193849201611b9e565b81016002815203019020604051906108f482611be6565b6108fd81611cd7565b825260018101546001600160a01b0390811660208085019182526002840154831660408087019182526003860154851660608801908152600487015460808901908152600588015460a08a01908152600689015490971660c08a01908152925160078901805480835260009182528782209783019b949a9899949897939592949293915b818110610abb5750505061099b836101c09a9b0384611c02565b60e08701928352600886015493610100880194855260ff6009880154169a6109c86101208a019c8d611e9c565b600a880154966101408a01978852610a0f600c600b8b01549a6101608d019b8c5201549a61018081019b8c526040519d8e916020835251916101a060208201520190611bc1565b9a516001600160a01b0390811660408e01529051811660608d01529051811660808c0152905160a08b0152905160c08a015290511660e088015251868603601f190161010088015280518087526020968701969091019060005b818110610aa5575050508596610a8c915161012088015251610140870190611c90565b5161016085015251610180840152516101a08301520390f35b8251885260209788019790920191600101610a69565b82548d526020909c019b60019283019201610981565b34610176576000366003190112610176576020604051620f42408152f35b34610176576000366003190112610176576000546040516001600160a01b039091168152602090f35b34610176576000366003190112610176576020604051620151808152f35b346101765760e0366003190112610176576004356001600160401b03811161017657610b66903690600401611c23565b6024356001600160a01b0381168103610176576084356001600160a01b03811692908390036101765760a435906001600160401b038211610176573660238301121561017657816004013591610bbb83611c79565b92610bc96040519485611c02565b8084526024602085019160051b8301019136831161017657602401905b8282106111a757505050610bf8612000565b8051156111705760405160018251610c14818460208701611b9e565b82019160028352602081838060a01b03940301902001541661113257620f4240604435106110f557604435606435111561109a5781511561105c576201518042018042116110465760c43511156110085760005b8251811015610d9e57610c7b8184611ea8565b51604051906331a9108f60e11b82526004820152602081602481895afa90811561041057600091610d56575b50336001600160a01b0390911603610d1e57610cc38184611ea8565b5190853b15610176576040516323b872dd60e01b81523360048201523060248201526044810192909252600082606481838a5af191821561041057600192610d0d575b5001610c68565b6000610d1891611c02565b86610d06565b60405162461bcd60e51b815260206004820152601060248201526f139bdd081bdddb995c881bd98813919560821b6044820152606490fd5b6020813d8211610d96575b81610d6e60209383611c02565b81010312610d925751906001600160a01b0382168203610d8f575086610ca7565b80fd5b5080fd5b3d9150610d61565b50929060405191610dae83611be6565b8483523360208401526000604084015260018060a01b0384166060840152604435608084015260643560a084015260c083015260e082015260c4356101008201526000610120820152426101408201526000610160820152610180810192600084526040516020818351610e258183858801611b9e565b81016002815203019020610e3a835182611ed3565b60208301516001820180546001600160a01b03199081166001600160a01b039384161790915560408501516002840180548316918416919091179055606085015160038401805483169184169190911790556080850151600484015560a0850151600584015560c0850151600684018054909216921691909117905560e083015180519060078301906001600160401b038311610ff257600160401b8311610ff2576020908254848455808510610fd5575b500190600052602060002060005b838110610fc15750505050610100830151600882015560098101926101208101519560058710156104d757610160600c92610f6e9660009960ff80198354169116179055610140810151600a8601550151600b840155519101553384526003602052610f698160408620611fd3565b611e7c565b6040519160018060a01b031682526044356020830152606435604083015260c43560608301527f1d5dfe67e28fff937a5d2a995f0c5d7b0ddbd4705c2dfdab322a870d227dd06660803393a36001805580f35b600190602084519401938184015501610efa565b610fec908460005285846000209182019101611ebc565b89610eec565b634e487b7160e01b600052604160045260246000fd5b60405162461bcd60e51b8152602060048201526016602482015275223ab2903a34b6b2b9ba30b6b8103a37b79039b7b7b760511b6044820152606490fd5b634e487b7160e01b600052601160045260246000fd5b60405162461bcd60e51b8152602060048201526016602482015275139bc818dbdb1b185d195c985b081c1c9bdd9a59195960521b6044820152606490fd5b60405162461bcd60e51b815260206004820152602d60248201527f526570617920616d6f756e74206d75737420626520677265617465722074686160448201526c1b881b1bd85b88185b5bdd5b9d609a1b6064820152608490fd5b60405162461bcd60e51b8152602060048201526015602482015274131bd85b88185b5bdd5b9d081d1bdbc81cdb585b1b605a1b6044820152606490fd5b60405162461bcd60e51b81526020600482015260166024820152754c6f616e20494420616c72656164792065786973747360501b6044820152606490fd5b60405162461bcd60e51b815260206004820152600f60248201526e125b9d985b1a59081b1bd85b881251608a1b6044820152606490fd5b8135815260209182019101610be6565b34610176576000366003190112610176576111d0612022565b600080546001600160a01b0319811682556001600160a01b03167f8be0079c531659141344cd1fd0a4f28419497f9722a3daafe3b4186f6b6457e08280a3005b34610176576020366003190112610176576004356001600160401b038111610176576020611245611258923690600401611c23565b8160405193828580945193849201611b9e565b810160028152030190206040519061126f82611be6565b61127881611cd7565b825260018101546001600160a01b039081166020808501919091526002830154821660408086019190915260038401548316606086015260048401546080860152600584015460a0860152600684015490921660c0850152905160078301805480835260009182528382209293849290830191905b81811061137b57505061130292500382611c02565b60e08301526008810154916101008101928352610180600c60ff6009850154169361133261012085019586611e9c565b600a810154610140850152600b8101546101608501520154910152519060058210156104d7576001602092149081611370575b506040519015158152f35b905051421182611365565b84548352600194850194869450602090930192016112ed565b34610176576000366003190112610176576020600454604051908152f35b34610176576020366003190112610176576001600160a01b036113d3611b88565b1660005260056020526020604060002054604051908152f35b34610176576020366003190112610176576004356001600160401b0381116101765761141c903690600401611c23565b611424612000565b60405160ff600983519260208181870195611440818389611b9e565b8101600281520301902001541660058110156104d757611468916101f5600160209314611df5565b8101600281520301902060088101544211156115895760068101546001600160a01b0316916007820190600283019060005b83548110156115255782546001600160a01b0316906114b98186611d7b565b90549060031b1c91873b15610176576040516323b872dd60e01b81523060048201526001600160a01b039190911660248201526044810192909252600082606481838b5af191821561041057600192611514575b500161149a565b600061151f91611c02565b8761150d565b5060098401805460ff1916600317905542600c850155905491546001600160a01b039290921691907ff1b8949e4896d4133c11d16389f3c895052aea3f32798e8fd296115d24a9884c9060209061157b90611e7c565b92604051908152a360018055005b60405162461bcd60e51b8152602060048201526014602482015273131bd85b881b9bdd081bdd995c991d59481e595d60621b6044820152606490fd5b34610176576020366003190112610176576115de611b88565b6115e6612022565b6001600160a01b03166000818152600560205260409020549081156116705760008181526005602090815260408083208390558254905163a9059cbb60e01b81526001600160a01b03909116600482015260248101949094529183916044918391905af180156104105761165657005b61166e9060203d602011610409576103fb8183611c02565b005b60405162461bcd60e51b81526020600482015260136024820152724e6f206665657320746f20776974686472617760681b6044820152606490fd5b34610176576020366003190112610176576004356116c7612022565b606481116116d457600455005b60405162461bcd60e51b815260206004820152600c60248201526b08ccaca40e8dede40d0d2ced60a31b6044820152606490fd5b34610176576020366003190112610176576004356001600160401b03811161017657611738903690600401611c23565b611740612000565b60405161175b825191600160208501936105c4818487611b9e565b60ff60096040516020818651611772818389611b9e565b8101600281520301902001541660058110156104d75761179a916101f5600160209314611df5565b81016002815203019020906003820160018060a01b03815416600584019182546127106117c960045483611e37565b049261180860206117da8685611e4a565b6040516323b872dd60e01b815233600482015230602482015260448101959095529391829081906064820190565b03816000865af190811561041057600091611a80575b5015611a485783602093611870956119e9575b5050600287015460405163a9059cbb60e01b81526001600160a01b03909116600482015260248101929092529092839190829060009082906044820190565b03925af1908115610410576000916119ca575b50156119855760068301546001600160a01b03169183916007830191600184019160005b84548110156119325783546001600160a01b0316906118c68187611d7b565b90549060031b1c91883b15610176576040516323b872dd60e01b81523060048201526001600160a01b039190911660248201526044810192909252600082606481838c5af191821561041057600192611921575b50016118a7565b600061192c91611c02565b8861191a565b5060098501805460ff1916600217905542600c860155549061195390611e7c565b6040519182527fffe64c5ec0aefbe73dc8a169259738e2b8cb8a537f6dce448f1e932db6f2047960203393a360018055005b60405162461bcd60e51b815260206004820152601960248201527f5472616e7366657220746f206c656e646572206661696c6564000000000000006044820152606490fd5b6119e3915060203d602011610409576103fb8183611c02565b84611883565b847f06c5efeff5c320943d265dc4e5f1af95ad523555ce0c1957e367dda5514572df9160018060a01b03815416600052600582526040600020611a2d858254611e6f565b9055546040519384526001600160a01b031692a28780611831565b60405162461bcd60e51b815260206004820152601060248201526f14995c185e5b595b9d0819985a5b195960821b6044820152606490fd5b611a99915060203d602011610409576103fb8183611c02565b8861181e565b34610176576020366003190112610176576001600160a01b03611ac0611b88565b1660005260036020526040600020805490611ada82611c79565b91611ae86040519384611c02565b80835260208301809260005260206000206000915b838310611b6b57848660405191829160208301906020845251809152604083019060408160051b85010192916000905b828210611b3c57505050500390f35b91936001919395506020611b5b8192603f198a82030186528851611bc1565b9601920192018594939192611b2d565b600160208192611b7a85611cd7565b815201920192019190611afd565b600435906001600160a01b038216820361017657565b60005b838110611bb15750506000910152565b8181015183820152602001611ba1565b90602091611bda81518092818552858086019101611b9e565b601f01601f1916010190565b6101a081019081106001600160401b03821117610ff257604052565b90601f801991011681019081106001600160401b03821117610ff257604052565b81601f82011215610176578035906001600160401b038211610ff25760405192611c57601f8401601f191660200185611c02565b8284526020838301011161017657816000926020809301838601378301015290565b6001600160401b038111610ff25760051b60200190565b9060058210156104d75752565b90600182811c92168015611ccd575b6020831014611cb757565b634e487b7160e01b600052602260045260246000fd5b91607f1691611cac565b9060405191826000825492611ceb84611c9d565b8084529360018116908115611d595750600114611d12575b50611d1092500383611c02565b565b90506000929192526020600020906000915b818310611d3d575050906020611d109282010138611d03565b6020919350806001915483858901015201910190918492611d24565b905060209250611d1094915060ff191682840152151560051b82010138611d03565b8054821015611d935760005260206000200190600090565b634e487b7160e01b600052603260045260246000fd5b15611db057565b60405162461bcd60e51b815260206004820152601b60248201527f4f6e6c7920626f72726f7765722063616e2063616c6c207468697300000000006044820152606490fd5b15611dfc57565b60405162461bcd60e51b8152602060048201526013602482015272496e76616c6964206c6f616e2073746174757360681b6044820152606490fd5b8181029291811591840414171561104657565b9190820391821161104657565b90816020910312610176575180151581036101765790565b9190820180921161104657565b611e9490602060405192828480945193849201611b9e565b810103902090565b60058210156104d75752565b8051821015611d935760209160051b010190565b818110611ec7575050565b60008155600101611ebc565b91909182516001600160401b038111610ff257611ef08254611c9d565b601f8111611f96575b506020601f8211600114611f345781929394600092611f29575b50508160011b916000199060031b1c1916179055565b015190503880611f13565b601f1982169083600052806000209160005b818110611f7e57509583600195969710611f65575b505050811b019055565b015160001960f88460031b161c19169055388080611f5b565b9192602060018192868b015181550194019201611f46565b611fc390836000526020600020601f840160051c81019160208510611fc9575b601f0160051c0190611ebc565b38611ef9565b9091508190611fb6565b8054600160401b811015610ff257611ff091600182018155611d7b565b91909161055b57611d1091611ed3565b600260015414612011576002600155565b633ee5aeb560e01b60005260046000fd5b6000546001600160a01b0316330361203657565b63118cdaa760e01b6000523360045260246000fdfea264697066735822122091ce489b10cb972c12880aadcecbcd2628c03e730bdc91b3b846ea58cf7e918764736f6c634300081b0033","opcodes":"PUSH1 0x80 DUP1 PUSH1 0x40 MSTORE CALLVALUE PUSH1 0x7E JUMPI CALLER ISZERO PUSH1 0x68 JUMPI PUSH1 0x0 DUP1 SLOAD CALLER PUSH1 0x1 PUSH1 0x1 PUSH1 0xA0 SHL SUB NOT DUP3 AND DUP2 OR DUP4 SSTORE SWAP2 PUSH1 0x1 PUSH1 0x1 PUSH1 0xA0 SHL SUB SWAP1 SWAP2 AND SWAP1 PUSH32 0x8BE0079C531659141344CD1FD0A4F28419497F9722A3DAAFE3B4186F6B6457E0 SWAP1 DUP1 LOG3 PUSH1 0x1 DUP1 SSTORE PUSH1 0xA PUSH1 0x4 SSTORE PUSH2 0x2081 SWAP1 DUP2 PUSH2 0x84 DUP3 CODECOPY RETURN JUMPDEST PUSH4 0x1E4FBDF7 PUSH1 0xE0 SHL PUSH1 0x0 MSTORE PUSH1 0x0 PUSH1 0x4 MSTORE PUSH1 0x24 PUSH1 0x0 REVERT JUMPDEST PUSH1 0x0 DUP1 REVERT INVALID PUSH1 0x80 PUSH1 0x40 MSTORE PUSH1 0x4 CALLDATASIZE LT ISZERO PUSH2 0x12 JUMPI PUSH1 0x0 DUP1 REVERT JUMPDEST PUSH1 0x0 CALLDATALOAD PUSH1 0xE0 SHR DUP1 PUSH4 0x2BF321F EQ PUSH2 0x1A9F JUMPI DUP1 PUSH4 0x35DC3D9 EQ PUSH2 0x1708 JUMPI DUP1 PUSH4 0x12E8E2C3 EQ PUSH2 0x16AB JUMPI DUP1 PUSH4 0x164E68DE EQ PUSH2 0x15C5 JUMPI DUP1 PUSH4 0x18A1CC09 EQ PUSH2 0x13EC JUMPI DUP1 PUSH4 0x1CEAD9A7 EQ PUSH2 0x13B2 JUMPI DUP1 PUSH4 0x22DCD13E EQ PUSH2 0x1394 JUMPI DUP1 PUSH4 0x513099C6 EQ PUSH2 0x1210 JUMPI DUP1 PUSH4 0x715018A6 EQ PUSH2 0x11B7 JUMPI DUP1 PUSH4 0x8258E3D3 EQ PUSH2 0xB36 JUMPI DUP1 PUSH4 0x89D99A05 EQ PUSH2 0xB18 JUMPI DUP1 PUSH4 0x8DA5CB5B EQ PUSH2 0xAEF JUMPI DUP1 PUSH4 0x96FA212F EQ PUSH2 0xAD1 JUMPI DUP1 PUSH4 0xC47D2586 EQ PUSH2 0x838 JUMPI DUP1 PUSH4 0xC6141F63 EQ PUSH2 0x71C JUMPI DUP1 PUSH4 0xC70F2E2B EQ PUSH2 0x571 JUMPI DUP1 PUSH4 0xD8BAD5BD EQ PUSH2 0x4ED JUMPI DUP1 PUSH4 0xD947BEE4 EQ PUSH2 0x17B JUMPI PUSH4 0xF2FDE38B EQ PUSH2 0xED JUMPI PUSH1 0x0 DUP1 REVERT JUMPDEST CALLVALUE PUSH2 0x176 JUMPI PUSH1 0x20 CALLDATASIZE PUSH1 0x3 NOT ADD SLT PUSH2 0x176 JUMPI PUSH2 0x106 PUSH2 0x1B88 JUMP JUMPDEST PUSH2 0x10E PUSH2 0x2022 JUMP JUMPDEST PUSH1 0x1 PUSH1 0x1 PUSH1 0xA0 SHL SUB AND DUP1 ISZERO PUSH2 0x160 JUMPI PUSH1 0x0 DUP1 SLOAD PUSH1 0x1 PUSH1 0x1 PUSH1 0xA0 SHL SUB NOT DUP2 AND DUP4 OR DUP3 SSTORE PUSH1 0x1 PUSH1 0x1 PUSH1 0xA0 SHL SUB AND SWAP1 PUSH32 0x8BE0079C531659141344CD1FD0A4F28419497F9722A3DAAFE3B4186F6B6457E0 SWAP1 DUP1 LOG3 STOP JUMPDEST PUSH4 0x1E4FBDF7 PUSH1 0xE0 SHL PUSH1 0x0 MSTORE PUSH1 0x0 PUSH1 0x4 MSTORE PUSH1 0x24 PUSH1 0x0 REVERT JUMPDEST PUSH1 0x0 DUP1 REVERT JUMPDEST CALLVALUE PUSH2 0x176 JUMPI PUSH1 0x20 CALLDATASIZE PUSH1 0x3 NOT ADD SLT PUSH2 0x176 JUMPI PUSH1 0x4 CALLDATALOAD PUSH1 0x1 PUSH1 0x1 PUSH1 0x40 SHL SUB DUP2 GT PUSH2 0x176 JUMPI PUSH2 0x1AB SWAP1 CALLDATASIZE SWAP1 PUSH1 0x4 ADD PUSH2 0x1C23 JUMP JUMPDEST PUSH2 0x1B3 PUSH2 0x2000 JUMP JUMPDEST PUSH1 0x40 MLOAD PUSH1 0xFF PUSH1 0x9 DUP4 MLOAD SWAP3 PUSH1 0x20 DUP2 DUP2 DUP8 ADD SWAP6 PUSH2 0x1CF DUP2 DUP4 DUP10 PUSH2 0x1B9E JUMP JUMPDEST DUP2 ADD PUSH1 0x2 DUP2 MSTORE SUB ADD SWAP1 KECCAK256 ADD SLOAD AND PUSH1 0x5 DUP2 LT ISZERO PUSH2 0x4D7 JUMPI PUSH2 0x206 SWAP2 PUSH2 0x1F5 PUSH1 0x20 SWAP3 ISZERO PUSH2 0x1DF5 JUMP JUMPDEST PUSH1 0x40 MLOAD DUP1 SWAP4 DUP2 SWAP3 DUP7 MLOAD SWAP3 DUP4 SWAP2 PUSH2 0x1B9E JUMP JUMPDEST DUP2 ADD PUSH1 0x2 DUP2 MSTORE SUB ADD SWAP1 KECCAK256 PUSH1 0x3 DUP2 ADD SWAP1 PUSH1 0x1 DUP1 PUSH1 0xA0 SHL SUB DUP3 SLOAD AND PUSH1 0x4 DUP3 ADD SWAP3 DUP4 SLOAD SWAP1 PUSH2 0x2710 PUSH2 0x236 PUSH1 0x4 SLOAD DUP5 PUSH2 0x1E37 JUMP JUMPDEST DIV SWAP2 PUSH2 0x275 PUSH1 0x20 PUSH2 0x247 DUP6 DUP5 PUSH2 0x1E4A JUMP JUMPDEST PUSH1 0x40 MLOAD PUSH4 0x23B872DD PUSH1 0xE0 SHL DUP2 MSTORE CALLER PUSH1 0x4 DUP3 ADD MSTORE ADDRESS PUSH1 0x24 DUP3 ADD MSTORE PUSH1 0x44 DUP2 ADD SWAP5 SWAP1 SWAP5 MSTORE SWAP3 SWAP2 DUP3 SWAP1 DUP2 SWAP1 PUSH1 0x64 DUP3 ADD SWAP1 JUMP JUMPDEST SUB DUP2 PUSH1 0x0 DUP10 GAS CALL SWAP1 DUP2 ISZERO PUSH2 0x410 JUMPI PUSH1 0x0 SWAP2 PUSH2 0x4B8 JUMPI JUMPDEST POP ISZERO PUSH2 0x47B JUMPI DUP3 PUSH1 0x20 SWAP3 PUSH2 0x2DF SWAP5 PUSH2 0x41C JUMPI JUMPDEST POP POP PUSH1 0x1 DUP6 ADD DUP1 SLOAD PUSH1 0x40 MLOAD PUSH4 0xA9059CBB PUSH1 0xE0 SHL DUP2 MSTORE PUSH1 0x1 PUSH1 0x1 PUSH1 0xA0 SHL SUB SWAP1 SWAP2 AND PUSH1 0x4 DUP3 ADD MSTORE PUSH1 0x24 DUP2 ADD SWAP3 SWAP1 SWAP3 MSTORE SWAP4 SWAP1 SWAP3 DUP4 SWAP2 SWAP1 DUP3 SWAP1 PUSH1 0x0 SWAP1 DUP3 SWAP1 PUSH1 0x44 DUP3 ADD SWAP1 JUMP JUMPDEST SUB SWAP3 GAS CALL SWAP1 DUP2 ISZERO PUSH2 0x410 JUMPI PUSH1 0x0 SWAP2 PUSH2 0x3E1 JUMPI JUMPDEST POP ISZERO PUSH2 0x392 JUMPI DUP2 PUSH1 0x2 PUSH2 0x360 SWAP4 ADD PUSH1 0x1 DUP1 PUSH1 0xA0 SHL SUB CALLER AND PUSH12 0xFFFFFFFFFFFFFFFFFFFFFFFF PUSH1 0xA0 SHL DUP3 SLOAD AND OR SWAP1 SSTORE PUSH1 0x9 DUP2 ADD PUSH1 0x1 PUSH1 0xFF NOT DUP3 SLOAD AND OR SWAP1 SSTORE PUSH1 0xB TIMESTAMP SWAP2 ADD SSTORE CALLER PUSH1 0x0 MSTORE PUSH1 0x3 PUSH1 0x20 MSTORE PUSH2 0x34B DUP5 PUSH1 0x40 PUSH1 0x0 KECCAK256 PUSH2 0x1FD3 JUMP JUMPDEST SLOAD SWAP2 SLOAD SWAP3 PUSH1 0x1 PUSH1 0x1 PUSH1 0xA0 SHL SUB SWAP1 SWAP3 AND SWAP2 PUSH2 0x1E7C JUMP JUMPDEST PUSH1 0x40 MLOAD SWAP3 DUP4 MSTORE PUSH32 0xDCB74595A412006C9AAD3B7AE905952EF1E2C5B1D9E7B1046CDE54BFB809360A PUSH1 0x20 CALLER SWAP5 LOG4 PUSH1 0x1 DUP1 SSTORE STOP JUMPDEST PUSH1 0x40 MLOAD PUSH3 0x461BCD PUSH1 0xE5 SHL DUP2 MSTORE PUSH1 0x20 PUSH1 0x4 DUP3 ADD MSTORE PUSH1 0x21 PUSH1 0x24 DUP3 ADD MSTORE PUSH32 0x546F6B656E207472616E7366657220746F20626F72726F776572206661696C65 PUSH1 0x44 DUP3 ADD MSTORE PUSH1 0x19 PUSH1 0xFA SHL PUSH1 0x64 DUP3 ADD MSTORE PUSH1 0x84 SWAP1 REVERT JUMPDEST PUSH2 0x403 SWAP2 POP PUSH1 0x20 RETURNDATASIZE PUSH1 0x20 GT PUSH2 0x409 JUMPI JUMPDEST PUSH2 0x3FB DUP2 DUP4 PUSH2 0x1C02 JUMP JUMPDEST DUP2 ADD SWAP1 PUSH2 0x1E57 JUMP JUMPDEST DUP6 PUSH2 0x2F2 JUMP JUMPDEST POP RETURNDATASIZE PUSH2 0x3F1 JUMP JUMPDEST PUSH1 0x40 MLOAD RETURNDATASIZE PUSH1 0x0 DUP3 RETURNDATACOPY RETURNDATASIZE SWAP1 REVERT JUMPDEST DUP4 PUSH32 0x6C5EFEFF5C320943D265DC4E5F1AF95AD523555CE0C1957E367DDA5514572DF SWAP2 PUSH1 0x1 DUP1 PUSH1 0xA0 SHL SUB DUP2 SLOAD AND PUSH1 0x0 MSTORE PUSH1 0x5 DUP3 MSTORE PUSH1 0x40 PUSH1 0x0 KECCAK256 PUSH2 0x460 DUP6 DUP3 SLOAD PUSH2 0x1E6F JUMP JUMPDEST SWAP1 SSTORE SLOAD PUSH1 0x40 MLOAD SWAP4 DUP5 MSTORE PUSH1 0x1 PUSH1 0x1 PUSH1 0xA0 SHL SUB AND SWAP3 LOG2 DUP8 DUP1 PUSH2 0x29E JUMP JUMPDEST PUSH1 0x40 MLOAD PUSH3 0x461BCD PUSH1 0xE5 SHL DUP2 MSTORE PUSH1 0x20 PUSH1 0x4 DUP3 ADD MSTORE PUSH1 0x15 PUSH1 0x24 DUP3 ADD MSTORE PUSH21 0x151BDAD95B881D1C985B9CD9995C8819985A5B1959 PUSH1 0x5A SHL PUSH1 0x44 DUP3 ADD MSTORE PUSH1 0x64 SWAP1 REVERT JUMPDEST PUSH2 0x4D1 SWAP2 POP PUSH1 0x20 RETURNDATASIZE PUSH1 0x20 GT PUSH2 0x409 JUMPI PUSH2 0x3FB DUP2 DUP4 PUSH2 0x1C02 JUMP JUMPDEST DUP9 PUSH2 0x28B JUMP JUMPDEST PUSH4 0x4E487B71 PUSH1 0xE0 SHL PUSH1 0x0 MSTORE PUSH1 0x21 PUSH1 0x4 MSTORE PUSH1 0x24 PUSH1 0x0 REVERT JUMPDEST CALLVALUE PUSH2 0x176 JUMPI PUSH1 0x40 CALLDATASIZE PUSH1 0x3 NOT ADD SLT PUSH2 0x176 JUMPI PUSH2 0x506 PUSH2 0x1B88 JUMP JUMPDEST PUSH1 0x1 PUSH1 0x1 PUSH1 0xA0 SHL SUB AND PUSH1 0x0 SWAP1 DUP2 MSTORE PUSH1 0x3 PUSH1 0x20 MSTORE PUSH1 0x40 SWAP1 KECCAK256 DUP1 SLOAD PUSH1 0x24 CALLDATALOAD SWAP1 DUP2 LT ISZERO PUSH2 0x176 JUMPI PUSH2 0x533 SWAP2 PUSH2 0x1D7B JUMP JUMPDEST PUSH2 0x55B JUMPI PUSH2 0x543 PUSH2 0x557 SWAP2 PUSH2 0x1CD7 JUMP JUMPDEST PUSH1 0x40 MLOAD SWAP2 DUP3 SWAP2 PUSH1 0x20 DUP4 MSTORE PUSH1 0x20 DUP4 ADD SWAP1 PUSH2 0x1BC1 JUMP JUMPDEST SUB SWAP1 RETURN JUMPDEST PUSH4 0x4E487B71 PUSH1 0xE0 SHL PUSH1 0x0 MSTORE PUSH1 0x0 PUSH1 0x4 MSTORE PUSH1 0x24 PUSH1 0x0 REVERT JUMPDEST CALLVALUE PUSH2 0x176 JUMPI PUSH1 0x20 CALLDATASIZE PUSH1 0x3 NOT ADD SLT PUSH2 0x176 JUMPI PUSH1 0x4 CALLDATALOAD PUSH1 0x1 PUSH1 0x1 PUSH1 0x40 SHL SUB DUP2 GT PUSH2 0x176 JUMPI PUSH2 0x5A1 SWAP1 CALLDATASIZE SWAP1 PUSH1 0x4 ADD PUSH2 0x1C23 JUMP JUMPDEST PUSH2 0x5A9 PUSH2 0x2000 JUMP JUMPDEST PUSH1 0x40 MLOAD PUSH2 0x5E3 DUP3 MLOAD SWAP2 PUSH1 0x1 PUSH1 0x20 DUP6 ADD SWAP4 PUSH2 0x5C4 DUP2 DUP5 DUP8 PUSH2 0x1B9E JUMP JUMPDEST DUP3 ADD SWAP2 PUSH1 0x2 DUP4 MSTORE PUSH1 0x20 DUP2 DUP4 DUP1 PUSH1 0xA0 SHL SUB SWAP5 SUB ADD SWAP1 KECCAK256 ADD SLOAD AND CALLER EQ PUSH2 0x1DA9 JUMP JUMPDEST PUSH1 0xFF PUSH1 0x9 PUSH1 0x40 MLOAD PUSH1 0x20 DUP2 DUP7 MLOAD PUSH2 0x5FA DUP2 DUP4 DUP10 PUSH2 0x1B9E JUMP JUMPDEST DUP2 ADD PUSH1 0x2 DUP2 MSTORE SUB ADD SWAP1 KECCAK256 ADD SLOAD AND PUSH1 0x5 DUP2 LT ISZERO PUSH2 0x4D7 JUMPI PUSH2 0x620 SWAP2 PUSH2 0x1F5 PUSH1 0x20 SWAP3 ISZERO PUSH2 0x1DF5 JUMP JUMPDEST PUSH1 0x2 SWAP1 DUP3 ADD SWAP1 DUP2 MSTORE SUB ADD SWAP1 KECCAK256 PUSH1 0x9 DUP2 ADD DUP1 SLOAD PUSH1 0xFF NOT AND PUSH1 0x4 OR SWAP1 SSTORE TIMESTAMP PUSH1 0xC DUP3 ADD SSTORE PUSH1 0x6 DUP2 ADD SLOAD PUSH1 0x1 PUSH1 0x1 PUSH1 0xA0 SHL SUB AND SWAP2 SWAP1 PUSH1 0x7 DUP2 ADD SWAP1 PUSH1 0x1 ADD PUSH1 0x0 JUMPDEST DUP3 SLOAD DUP2 LT ISZERO PUSH2 0x6E7 JUMPI DUP2 SLOAD PUSH1 0x1 PUSH1 0x1 PUSH1 0xA0 SHL SUB AND SWAP1 PUSH2 0x67B DUP2 DUP6 PUSH2 0x1D7B JUMP JUMPDEST SWAP1 SLOAD SWAP1 PUSH1 0x3 SHL SHR SWAP2 DUP7 EXTCODESIZE ISZERO PUSH2 0x176 JUMPI PUSH1 0x40 MLOAD PUSH4 0x23B872DD PUSH1 0xE0 SHL DUP2 MSTORE ADDRESS PUSH1 0x4 DUP3 ADD MSTORE PUSH1 0x1 PUSH1 0x1 PUSH1 0xA0 SHL SUB SWAP2 SWAP1 SWAP2 AND PUSH1 0x24 DUP3 ADD MSTORE PUSH1 0x44 DUP2 ADD SWAP3 SWAP1 SWAP3 MSTORE PUSH1 0x0 DUP3 PUSH1 0x64 DUP2 DUP4 DUP11 GAS CALL SWAP2 DUP3 ISZERO PUSH2 0x410 JUMPI PUSH1 0x1 SWAP3 PUSH2 0x6D6 JUMPI JUMPDEST POP ADD PUSH2 0x65C JUMP JUMPDEST PUSH1 0x0 PUSH2 0x6E1 SWAP2 PUSH2 0x1C02 JUMP JUMPDEST DUP7 PUSH2 0x6CF JUMP JUMPDEST CALLER PUSH2 0x6F1 DUP6 PUSH2 0x1E7C JUMP JUMPDEST PUSH32 0xE64B74C222B0E5D5C4F084FD3F5A27B69274A73D3B805B014653748A5E09F06C PUSH1 0x0 DUP1 LOG3 PUSH1 0x1 DUP1 SSTORE STOP JUMPDEST CALLVALUE PUSH2 0x176 JUMPI PUSH1 0x20 CALLDATASIZE PUSH1 0x3 NOT ADD SLT PUSH2 0x176 JUMPI PUSH1 0x4 CALLDATALOAD PUSH1 0x1 PUSH1 0x1 PUSH1 0x40 SHL SUB DUP2 GT PUSH2 0x176 JUMPI PUSH2 0x74C SWAP1 CALLDATASIZE SWAP1 PUSH1 0x4 ADD PUSH2 0x1C23 JUMP JUMPDEST PUSH1 0x40 MLOAD DUP2 DUP2 DUP1 SWAP4 MLOAD PUSH1 0x20 DUP2 SWAP4 ADD SWAP2 PUSH2 0x763 SWAP3 PUSH2 0x1B9E JUMP JUMPDEST DUP2 ADD PUSH1 0x2 DUP2 MSTORE SUB PUSH1 0x20 ADD SWAP1 KECCAK256 PUSH2 0x778 DUP2 PUSH2 0x1CD7 JUMP JUMPDEST PUSH1 0x1 DUP3 ADD SLOAD PUSH1 0x2 DUP4 ADD SLOAD PUSH1 0x3 DUP5 ADD SLOAD PUSH1 0x4 DUP6 ADD SLOAD PUSH1 0x5 DUP7 ADD SLOAD PUSH1 0x6 DUP8 ADD SLOAD PUSH1 0x8 DUP9 ADD SLOAD PUSH1 0x9 DUP10 ADD SLOAD PUSH1 0xA DUP11 ADD SLOAD PUSH1 0xB DUP12 ADD SLOAD PUSH1 0xC SWAP1 SWAP12 ADD SLOAD PUSH1 0x40 MLOAD PUSH2 0x180 DUP1 DUP3 MSTORE SWAP1 SWAP13 DUP14 SWAP13 PUSH1 0x1 PUSH1 0x1 PUSH1 0xA0 SHL SUB SWAP13 DUP14 AND SWAP13 SWAP4 SWAP12 SWAP2 SWAP11 SWAP5 SWAP10 PUSH1 0xFF SWAP1 SWAP7 AND SWAP9 SWAP7 SWAP8 DUP5 AND SWAP7 SWAP6 SWAP5 DUP5 AND SWAP4 SWAP1 SWAP2 AND SWAP2 PUSH2 0x7F0 SWAP2 SWAP1 DUP15 ADD SWAP1 PUSH2 0x1BC1 JUMP JUMPDEST SWAP11 PUSH1 0x20 DUP14 ADD MSTORE PUSH1 0x40 DUP13 ADD MSTORE PUSH1 0x60 DUP12 ADD MSTORE PUSH1 0x80 DUP11 ADD MSTORE PUSH1 0xA0 DUP10 ADD MSTORE PUSH1 0xC0 DUP9 ADD MSTORE PUSH1 0xE0 DUP8 ADD MSTORE PUSH2 0x100 DUP7 ADD PUSH2 0x822 SWAP2 PUSH2 0x1C90 JUMP JUMPDEST PUSH2 0x120 DUP6 ADD MSTORE PUSH2 0x140 DUP5 ADD MSTORE PUSH2 0x160 DUP4 ADD MSTORE SUB SWAP1 RETURN JUMPDEST CALLVALUE PUSH2 0x176 JUMPI PUSH1 0x20 CALLDATASIZE PUSH1 0x3 NOT ADD SLT PUSH2 0x176 JUMPI PUSH1 0x4 CALLDATALOAD PUSH1 0x1 PUSH1 0x1 PUSH1 0x40 SHL SUB DUP2 GT PUSH2 0x176 JUMPI PUSH1 0x20 PUSH2 0x86D PUSH2 0x8DD SWAP3 CALLDATASIZE SWAP1 PUSH1 0x4 ADD PUSH2 0x1C23 JUMP JUMPDEST PUSH1 0x0 PUSH2 0x180 PUSH1 0x40 MLOAD PUSH2 0x87E DUP2 PUSH2 0x1BE6 JUMP JUMPDEST PUSH1 0x60 DUP2 MSTORE DUP3 DUP6 DUP3 ADD MSTORE DUP3 PUSH1 0x40 DUP3 ADD MSTORE DUP3 PUSH1 0x60 DUP3 ADD MSTORE DUP3 PUSH1 0x80 DUP3 ADD MSTORE DUP3 PUSH1 0xA0 DUP3 ADD MSTORE DUP3 PUSH1 0xC0 DUP3 ADD MSTORE PUSH1 0x60 PUSH1 0xE0 DUP3 ADD MSTORE DUP3 PUSH2 0x100 DUP3 ADD MSTORE DUP3 PUSH2 0x120 DUP3 ADD MSTORE DUP3 PUSH2 0x140 DUP3 ADD MSTORE DUP3 PUSH2 0x160 DUP3 ADD MSTORE ADD MSTORE DUP2 PUSH1 0x40 MLOAD SWAP4 DUP3 DUP6 DUP1 SWAP5 MLOAD SWAP4 DUP5 SWAP3 ADD PUSH2 0x1B9E JUMP JUMPDEST DUP2 ADD PUSH1 0x2 DUP2 MSTORE SUB ADD SWAP1 KECCAK256 PUSH1 0x40 MLOAD SWAP1 PUSH2 0x8F4 DUP3 PUSH2 0x1BE6 JUMP JUMPDEST PUSH2 0x8FD DUP2 PUSH2 0x1CD7 JUMP JUMPDEST DUP3 MSTORE PUSH1 0x1 DUP2 ADD SLOAD PUSH1 0x1 PUSH1 0x1 PUSH1 0xA0 SHL SUB SWAP1 DUP2 AND PUSH1 0x20 DUP1 DUP6 ADD SWAP2 DUP3 MSTORE PUSH1 0x2 DUP5 ADD SLOAD DUP4 AND PUSH1 0x40 DUP1 DUP8 ADD SWAP2 DUP3 MSTORE PUSH1 0x3 DUP7 ADD SLOAD DUP6 AND PUSH1 0x60 DUP9 ADD SWAP1 DUP2 MSTORE PUSH1 0x4 DUP8 ADD SLOAD PUSH1 0x80 DUP10 ADD SWAP1 DUP2 MSTORE PUSH1 0x5 DUP9 ADD SLOAD PUSH1 0xA0 DUP11 ADD SWAP1 DUP2 MSTORE PUSH1 0x6 DUP10 ADD SLOAD SWAP1 SWAP8 AND PUSH1 0xC0 DUP11 ADD SWAP1 DUP2 MSTORE SWAP3 MLOAD PUSH1 0x7 DUP10 ADD DUP1 SLOAD DUP1 DUP4 MSTORE PUSH1 0x0 SWAP2 DUP3 MSTORE DUP8 DUP3 KECCAK256 SWAP8 DUP4 ADD SWAP12 SWAP5 SWAP11 SWAP9 SWAP10 SWAP5 SWAP9 SWAP8 SWAP4 SWAP6 SWAP3 SWAP5 SWAP3 SWAP4 SWAP2 JUMPDEST DUP2 DUP2 LT PUSH2 0xABB JUMPI POP POP POP PUSH2 0x99B DUP4 PUSH2 0x1C0 SWAP11 SWAP12 SUB DUP5 PUSH2 0x1C02 JUMP JUMPDEST PUSH1 0xE0 DUP8 ADD SWAP3 DUP4 MSTORE PUSH1 0x8 DUP7 ADD SLOAD SWAP4 PUSH2 0x100 DUP9 ADD SWAP5 DUP6 MSTORE PUSH1 0xFF PUSH1 0x9 DUP9 ADD SLOAD AND SWAP11 PUSH2 0x9C8 PUSH2 0x120 DUP11 ADD SWAP13 DUP14 PUSH2 0x1E9C JUMP JUMPDEST PUSH1 0xA DUP9 ADD SLOAD SWAP7 PUSH2 0x140 DUP11 ADD SWAP8 DUP9 MSTORE PUSH2 0xA0F PUSH1 0xC PUSH1 0xB DUP12 ADD SLOAD SWAP11 PUSH2 0x160 DUP14 ADD SWAP12 DUP13 MSTORE ADD SLOAD SWAP11 PUSH2 0x180 DUP2 ADD SWAP12 DUP13 MSTORE PUSH1 0x40 MLOAD SWAP14 DUP15 SWAP2 PUSH1 0x20 DUP4 MSTORE MLOAD SWAP2 PUSH2 0x1A0 PUSH1 0x20 DUP3 ADD MSTORE ADD SWAP1 PUSH2 0x1BC1 JUMP JUMPDEST SWAP11 MLOAD PUSH1 0x1 PUSH1 0x1 PUSH1 0xA0 SHL SUB SWAP1 DUP2 AND PUSH1 0x40 DUP15 ADD MSTORE SWAP1 MLOAD DUP2 AND PUSH1 0x60 DUP14 ADD MSTORE SWAP1 MLOAD DUP2 AND PUSH1 0x80 DUP13 ADD MSTORE SWAP1 MLOAD PUSH1 0xA0 DUP12 ADD MSTORE SWAP1 MLOAD PUSH1 0xC0 DUP11 ADD MSTORE SWAP1 MLOAD AND PUSH1 0xE0 DUP9 ADD MSTORE MLOAD DUP7 DUP7 SUB PUSH1 0x1F NOT ADD PUSH2 0x100 DUP9 ADD MSTORE DUP1 MLOAD DUP1 DUP8 MSTORE PUSH1 0x20 SWAP7 DUP8 ADD SWAP7 SWAP1 SWAP2 ADD SWAP1 PUSH1 0x0 JUMPDEST DUP2 DUP2 LT PUSH2 0xAA5 JUMPI POP POP POP DUP6 SWAP7 PUSH2 0xA8C SWAP2 MLOAD PUSH2 0x120 DUP9 ADD MSTORE MLOAD PUSH2 0x140 DUP8 ADD SWAP1 PUSH2 0x1C90 JUMP JUMPDEST MLOAD PUSH2 0x160 DUP6 ADD MSTORE MLOAD PUSH2 0x180 DUP5 ADD MSTORE MLOAD PUSH2 0x1A0 DUP4 ADD MSTORE SUB SWAP1 RETURN JUMPDEST DUP3 MLOAD DUP9 MSTORE PUSH1 0x20 SWAP8 DUP9 ADD SWAP8 SWAP1 SWAP3 ADD SWAP2 PUSH1 0x1 ADD PUSH2 0xA69 JUMP JUMPDEST DUP3 SLOAD DUP14 MSTORE PUSH1 0x20 SWAP1 SWAP13 ADD SWAP12 PUSH1 0x1 SWAP3 DUP4 ADD SWAP3 ADD PUSH2 0x981 JUMP JUMPDEST CALLVALUE PUSH2 0x176 JUMPI PUSH1 0x0 CALLDATASIZE PUSH1 0x3 NOT ADD SLT PUSH2 0x176 JUMPI PUSH1 0x20 PUSH1 0x40 MLOAD PUSH3 0xF4240 DUP2 MSTORE RETURN JUMPDEST CALLVALUE PUSH2 0x176 JUMPI PUSH1 0x0 CALLDATASIZE PUSH1 0x3 NOT ADD SLT PUSH2 0x176 JUMPI PUSH1 0x0 SLOAD PUSH1 0x40 MLOAD PUSH1 0x1 PUSH1 0x1 PUSH1 0xA0 SHL SUB SWAP1 SWAP2 AND DUP2 MSTORE PUSH1 0x20 SWAP1 RETURN JUMPDEST CALLVALUE PUSH2 0x176 JUMPI PUSH1 0x0 CALLDATASIZE PUSH1 0x3 NOT ADD SLT PUSH2 0x176 JUMPI PUSH1 0x20 PUSH1 0x40 MLOAD PUSH3 0x15180 DUP2 MSTORE RETURN JUMPDEST CALLVALUE PUSH2 0x176 JUMPI PUSH1 0xE0 CALLDATASIZE PUSH1 0x3 NOT ADD SLT PUSH2 0x176 JUMPI PUSH1 0x4 CALLDATALOAD PUSH1 0x1 PUSH1 0x1 PUSH1 0x40 SHL SUB DUP2 GT PUSH2 0x176 JUMPI PUSH2 0xB66 SWAP1 CALLDATASIZE SWAP1 PUSH1 0x4 ADD PUSH2 0x1C23 JUMP JUMPDEST PUSH1 0x24 CALLDATALOAD PUSH1 0x1 PUSH1 0x1 PUSH1 0xA0 SHL SUB DUP2 AND DUP2 SUB PUSH2 0x176 JUMPI PUSH1 0x84 CALLDATALOAD PUSH1 0x1 PUSH1 0x1 PUSH1 0xA0 SHL SUB DUP2 AND SWAP3 SWAP1 DUP4 SWAP1 SUB PUSH2 0x176 JUMPI PUSH1 0xA4 CALLDATALOAD SWAP1 PUSH1 0x1 PUSH1 0x1 PUSH1 0x40 SHL SUB DUP3 GT PUSH2 0x176 JUMPI CALLDATASIZE PUSH1 0x23 DUP4 ADD SLT ISZERO PUSH2 0x176 JUMPI DUP2 PUSH1 0x4 ADD CALLDATALOAD SWAP2 PUSH2 0xBBB DUP4 PUSH2 0x1C79 JUMP JUMPDEST SWAP3 PUSH2 0xBC9 PUSH1 0x40 MLOAD SWAP5 DUP6 PUSH2 0x1C02 JUMP JUMPDEST DUP1 DUP5 MSTORE PUSH1 0x24 PUSH1 0x20 DUP6 ADD SWAP2 PUSH1 0x5 SHL DUP4 ADD ADD SWAP2 CALLDATASIZE DUP4 GT PUSH2 0x176 JUMPI PUSH1 0x24 ADD SWAP1 JUMPDEST DUP3 DUP3 LT PUSH2 0x11A7 JUMPI POP POP POP PUSH2 0xBF8 PUSH2 0x2000 JUMP JUMPDEST DUP1 MLOAD ISZERO PUSH2 0x1170 JUMPI PUSH1 0x40 MLOAD PUSH1 0x1 DUP3 MLOAD PUSH2 0xC14 DUP2 DUP5 PUSH1 0x20 DUP8 ADD PUSH2 0x1B9E JUMP JUMPDEST DUP3 ADD SWAP2 PUSH1 0x2 DUP4 MSTORE PUSH1 0x20 DUP2 DUP4 DUP1 PUSH1 0xA0 SHL SUB SWAP5 SUB ADD SWAP1 KECCAK256 ADD SLOAD AND PUSH2 0x1132 JUMPI PUSH3 0xF4240 PUSH1 0x44 CALLDATALOAD LT PUSH2 0x10F5 JUMPI PUSH1 0x44 CALLDATALOAD PUSH1 0x64 CALLDATALOAD GT ISZERO PUSH2 0x109A JUMPI DUP2 MLOAD ISZERO PUSH2 0x105C JUMPI PUSH3 0x15180 TIMESTAMP ADD DUP1 TIMESTAMP GT PUSH2 0x1046 JUMPI PUSH1 0xC4 CALLDATALOAD GT ISZERO PUSH2 0x1008 JUMPI PUSH1 0x0 JUMPDEST DUP3 MLOAD DUP2 LT ISZERO PUSH2 0xD9E JUMPI PUSH2 0xC7B DUP2 DUP5 PUSH2 0x1EA8 JUMP JUMPDEST MLOAD PUSH1 0x40 MLOAD SWAP1 PUSH4 0x31A9108F PUSH1 0xE1 SHL DUP3 MSTORE PUSH1 0x4 DUP3 ADD MSTORE PUSH1 0x20 DUP2 PUSH1 0x24 DUP2 DUP10 GAS STATICCALL SWAP1 DUP2 ISZERO PUSH2 0x410 JUMPI PUSH1 0x0 SWAP2 PUSH2 0xD56 JUMPI JUMPDEST POP CALLER PUSH1 0x1 PUSH1 0x1 PUSH1 0xA0 SHL SUB SWAP1 SWAP2 AND SUB PUSH2 0xD1E JUMPI PUSH2 0xCC3 DUP2 DUP5 PUSH2 0x1EA8 JUMP JUMPDEST MLOAD SWAP1 DUP6 EXTCODESIZE ISZERO PUSH2 0x176 JUMPI PUSH1 0x40 MLOAD PUSH4 0x23B872DD PUSH1 0xE0 SHL DUP2 MSTORE CALLER PUSH1 0x4 DUP3 ADD MSTORE ADDRESS PUSH1 0x24 DUP3 ADD MSTORE PUSH1 0x44 DUP2 ADD SWAP3 SWAP1 SWAP3 MSTORE PUSH1 0x0 DUP3 PUSH1 0x64 DUP2 DUP4 DUP11 GAS CALL SWAP2 DUP3 ISZERO PUSH2 0x410 JUMPI PUSH1 0x1 SWAP3 PUSH2 0xD0D JUMPI JUMPDEST POP ADD PUSH2 0xC68 JUMP JUMPDEST PUSH1 0x0 PUSH2 0xD18 SWAP2 PUSH2 0x1C02 JUMP JUMPDEST DUP7 PUSH2 0xD06 JUMP JUMPDEST PUSH1 0x40 MLOAD PUSH3 0x461BCD PUSH1 0xE5 SHL DUP2 MSTORE PUSH1 0x20 PUSH1 0x4 DUP3 ADD MSTORE PUSH1 0x10 PUSH1 0x24 DUP3 ADD MSTORE PUSH16 0x139BDD081BDDDB995C881BD988139195 PUSH1 0x82 SHL PUSH1 0x44 DUP3 ADD MSTORE PUSH1 0x64 SWAP1 REVERT JUMPDEST PUSH1 0x20 DUP2 RETURNDATASIZE DUP3 GT PUSH2 0xD96 JUMPI JUMPDEST DUP2 PUSH2 0xD6E PUSH1 0x20 SWAP4 DUP4 PUSH2 0x1C02 JUMP JUMPDEST DUP2 ADD SUB SLT PUSH2 0xD92 JUMPI MLOAD SWAP1 PUSH1 0x1 PUSH1 0x1 PUSH1 0xA0 SHL SUB DUP3 AND DUP3 SUB PUSH2 0xD8F JUMPI POP DUP7 PUSH2 0xCA7 JUMP JUMPDEST DUP1 REVERT JUMPDEST POP DUP1 REVERT JUMPDEST RETURNDATASIZE SWAP2 POP PUSH2 0xD61 JUMP JUMPDEST POP SWAP3 SWAP1 PUSH1 0x40 MLOAD SWAP2 PUSH2 0xDAE DUP4 PUSH2 0x1BE6 JUMP JUMPDEST DUP5 DUP4 MSTORE CALLER PUSH1 0x20 DUP5 ADD MSTORE PUSH1 0x0 PUSH1 0x40 DUP5 ADD MSTORE PUSH1 0x1 DUP1 PUSH1 0xA0 SHL SUB DUP5 AND PUSH1 0x60 DUP5 ADD MSTORE PUSH1 0x44 CALLDATALOAD PUSH1 0x80 DUP5 ADD MSTORE PUSH1 0x64 CALLDATALOAD PUSH1 0xA0 DUP5 ADD MSTORE PUSH1 0xC0 DUP4 ADD MSTORE PUSH1 0xE0 DUP3 ADD MSTORE PUSH1 0xC4 CALLDATALOAD PUSH2 0x100 DUP3 ADD MSTORE PUSH1 0x0 PUSH2 0x120 DUP3 ADD MSTORE TIMESTAMP PUSH2 0x140 DUP3 ADD MSTORE PUSH1 0x0 PUSH2 0x160 DUP3 ADD MSTORE PUSH2 0x180 DUP2 ADD SWAP3 PUSH1 0x0 DUP5 MSTORE PUSH1 0x40 MLOAD PUSH1 0x20 DUP2 DUP4 MLOAD PUSH2 0xE25 DUP2 DUP4 DUP6 DUP9 ADD PUSH2 0x1B9E JUMP JUMPDEST DUP2 ADD PUSH1 0x2 DUP2 MSTORE SUB ADD SWAP1 KECCAK256 PUSH2 0xE3A DUP4 MLOAD DUP3 PUSH2 0x1ED3 JUMP JUMPDEST PUSH1 0x20 DUP4 ADD MLOAD PUSH1 0x1 DUP3 ADD DUP1 SLOAD PUSH1 0x1 PUSH1 0x1 PUSH1 0xA0 SHL SUB NOT SWAP1 DUP2 AND PUSH1 0x1 PUSH1 0x1 PUSH1 0xA0 SHL SUB SWAP4 DUP5 AND OR SWAP1 SWAP2 SSTORE PUSH1 0x40 DUP6 ADD MLOAD PUSH1 0x2 DUP5 ADD DUP1 SLOAD DUP4 AND SWAP2 DUP5 AND SWAP2 SWAP1 SWAP2 OR SWAP1 SSTORE PUSH1 0x60 DUP6 ADD MLOAD PUSH1 0x3 DUP5 ADD DUP1 SLOAD DUP4 AND SWAP2 DUP5 AND SWAP2 SWAP1 SWAP2 OR SWAP1 SSTORE PUSH1 0x80 DUP6 ADD MLOAD PUSH1 0x4 DUP5 ADD SSTORE PUSH1 0xA0 DUP6 ADD MLOAD PUSH1 0x5 DUP5 ADD SSTORE PUSH1 0xC0 DUP6 ADD MLOAD PUSH1 0x6 DUP5 ADD DUP1 SLOAD SWAP1 SWAP3 AND SWAP3 AND SWAP2 SWAP1 SWAP2 OR SWAP1 SSTORE PUSH1 0xE0 DUP4 ADD MLOAD DUP1 MLOAD SWAP1 PUSH1 0x7 DUP4 ADD SWAP1 PUSH1 0x1 PUSH1 0x1 PUSH1 0x40 SHL SUB DUP4 GT PUSH2 0xFF2 JUMPI PUSH1 0x1 PUSH1 0x40 SHL DUP4 GT PUSH2 0xFF2 JUMPI PUSH1 0x20 SWAP1 DUP3 SLOAD DUP5 DUP5 SSTORE DUP1 DUP6 LT PUSH2 0xFD5 JUMPI JUMPDEST POP ADD SWAP1 PUSH1 0x0 MSTORE PUSH1 0x20 PUSH1 0x0 KECCAK256 PUSH1 0x0 JUMPDEST DUP4 DUP2 LT PUSH2 0xFC1 JUMPI POP POP POP POP PUSH2 0x100 DUP4 ADD MLOAD PUSH1 0x8 DUP3 ADD SSTORE PUSH1 0x9 DUP2 ADD SWAP3 PUSH2 0x120 DUP2 ADD MLOAD SWAP6 PUSH1 0x5 DUP8 LT ISZERO PUSH2 0x4D7 JUMPI PUSH2 0x160 PUSH1 0xC SWAP3 PUSH2 0xF6E SWAP7 PUSH1 0x0 SWAP10 PUSH1 0xFF DUP1 NOT DUP4 SLOAD AND SWAP2 AND OR SWAP1 SSTORE PUSH2 0x140 DUP2 ADD MLOAD PUSH1 0xA DUP7 ADD SSTORE ADD MLOAD PUSH1 0xB DUP5 ADD SSTORE MLOAD SWAP2 ADD SSTORE CALLER DUP5 MSTORE PUSH1 0x3 PUSH1 0x20 MSTORE PUSH2 0xF69 DUP2 PUSH1 0x40 DUP7 KECCAK256 PUSH2 0x1FD3 JUMP JUMPDEST PUSH2 0x1E7C JUMP JUMPDEST PUSH1 0x40 MLOAD SWAP2 PUSH1 0x1 DUP1 PUSH1 0xA0 SHL SUB AND DUP3 MSTORE PUSH1 0x44 CALLDATALOAD PUSH1 0x20 DUP4 ADD MSTORE PUSH1 0x64 CALLDATALOAD PUSH1 0x40 DUP4 ADD MSTORE PUSH1 0xC4 CALLDATALOAD PUSH1 0x60 DUP4 ADD MSTORE PUSH32 0x1D5DFE67E28FFF937A5D2A995F0C5D7B0DDBD4705C2DFDAB322A870D227DD066 PUSH1 0x80 CALLER SWAP4 LOG3 PUSH1 0x1 DUP1 SSTORE DUP1 RETURN JUMPDEST PUSH1 0x1 SWAP1 PUSH1 0x20 DUP5 MLOAD SWAP5 ADD SWAP4 DUP2 DUP5 ADD SSTORE ADD PUSH2 0xEFA JUMP JUMPDEST PUSH2 0xFEC SWAP1 DUP5 PUSH1 0x0 MSTORE DUP6 DUP5 PUSH1 0x0 KECCAK256 SWAP2 DUP3 ADD SWAP2 ADD PUSH2 0x1EBC JUMP JUMPDEST DUP10 PUSH2 0xEEC JUMP JUMPDEST PUSH4 0x4E487B71 PUSH1 0xE0 SHL PUSH1 0x0 MSTORE PUSH1 0x41 PUSH1 0x4 MSTORE PUSH1 0x24 PUSH1 0x0 REVERT JUMPDEST PUSH1 0x40 MLOAD PUSH3 0x461BCD PUSH1 0xE5 SHL DUP2 MSTORE PUSH1 0x20 PUSH1 0x4 DUP3 ADD MSTORE PUSH1 0x16 PUSH1 0x24 DUP3 ADD MSTORE PUSH22 0x223AB2903A34B6B2B9BA30B6B8103A37B79039B7B7B7 PUSH1 0x51 SHL PUSH1 0x44 DUP3 ADD MSTORE PUSH1 0x64 SWAP1 REVERT JUMPDEST PUSH4 0x4E487B71 PUSH1 0xE0 SHL PUSH1 0x0 MSTORE PUSH1 0x11 PUSH1 0x4 MSTORE PUSH1 0x24 PUSH1 0x0 REVERT JUMPDEST PUSH1 0x40 MLOAD PUSH3 0x461BCD PUSH1 0xE5 SHL DUP2 MSTORE PUSH1 0x20 PUSH1 0x4 DUP3 ADD MSTORE PUSH1 0x16 PUSH1 0x24 DUP3 ADD MSTORE PUSH22 0x139BC818DBDB1B185D195C985B081C1C9BDD9A591959 PUSH1 0x52 SHL PUSH1 0x44 DUP3 ADD MSTORE PUSH1 0x64 SWAP1 REVERT JUMPDEST PUSH1 0x40 MLOAD PUSH3 0x461BCD PUSH1 0xE5 SHL DUP2 MSTORE PUSH1 0x20 PUSH1 0x4 DUP3 ADD MSTORE PUSH1 0x2D PUSH1 0x24 DUP3 ADD MSTORE PUSH32 0x526570617920616D6F756E74206D757374206265206772656174657220746861 PUSH1 0x44 DUP3 ADD MSTORE PUSH13 0x1B881B1BD85B88185B5BDD5B9D PUSH1 0x9A SHL PUSH1 0x64 DUP3 ADD MSTORE PUSH1 0x84 SWAP1 REVERT JUMPDEST PUSH1 0x40 MLOAD PUSH3 0x461BCD PUSH1 0xE5 SHL DUP2 MSTORE PUSH1 0x20 PUSH1 0x4 DUP3 ADD MSTORE PUSH1 0x15 PUSH1 0x24 DUP3 ADD MSTORE PUSH21 0x131BD85B88185B5BDD5B9D081D1BDBC81CDB585B1B PUSH1 0x5A SHL PUSH1 0x44 DUP3 ADD MSTORE PUSH1 0x64 SWAP1 REVERT JUMPDEST PUSH1 0x40 MLOAD PUSH3 0x461BCD PUSH1 0xE5 SHL DUP2 MSTORE PUSH1 0x20 PUSH1 0x4 DUP3 ADD MSTORE PUSH1 0x16 PUSH1 0x24 DUP3 ADD MSTORE PUSH22 0x4C6F616E20494420616C726561647920657869737473 PUSH1 0x50 SHL PUSH1 0x44 DUP3 ADD MSTORE PUSH1 0x64 SWAP1 REVERT JUMPDEST PUSH1 0x40 MLOAD PUSH3 0x461BCD PUSH1 0xE5 SHL DUP2 MSTORE PUSH1 0x20 PUSH1 0x4 DUP3 ADD MSTORE PUSH1 0xF PUSH1 0x24 DUP3 ADD MSTORE PUSH15 0x125B9D985B1A59081B1BD85B881251 PUSH1 0x8A SHL PUSH1 0x44 DUP3 ADD MSTORE PUSH1 0x64 SWAP1 REVERT JUMPDEST DUP2 CALLDATALOAD DUP2 MSTORE PUSH1 0x20 SWAP2 DUP3 ADD SWAP2 ADD PUSH2 0xBE6 JUMP JUMPDEST CALLVALUE PUSH2 0x176 JUMPI PUSH1 0x0 CALLDATASIZE PUSH1 0x3 NOT ADD SLT PUSH2 0x176 JUMPI PUSH2 0x11D0 PUSH2 0x2022 JUMP JUMPDEST PUSH1 0x0 DUP1 SLOAD PUSH1 0x1 PUSH1 0x1 PUSH1 0xA0 SHL SUB NOT DUP2 AND DUP3 SSTORE PUSH1 0x1 PUSH1 0x1 PUSH1 0xA0 SHL SUB AND PUSH32 0x8BE0079C531659141344CD1FD0A4F28419497F9722A3DAAFE3B4186F6B6457E0 DUP3 DUP1 LOG3 STOP JUMPDEST CALLVALUE PUSH2 0x176 JUMPI PUSH1 0x20 CALLDATASIZE PUSH1 0x3 NOT ADD SLT PUSH2 0x176 JUMPI PUSH1 0x4 CALLDATALOAD PUSH1 0x1 PUSH1 0x1 PUSH1 0x40 SHL SUB DUP2 GT PUSH2 0x176 JUMPI PUSH1 0x20 PUSH2 0x1245 PUSH2 0x1258 SWAP3 CALLDATASIZE SWAP1 PUSH1 0x4 ADD PUSH2 0x1C23 JUMP JUMPDEST DUP2 PUSH1 0x40 MLOAD SWAP4 DUP3 DUP6 DUP1 SWAP5 MLOAD SWAP4 DUP5 SWAP3 ADD PUSH2 0x1B9E JUMP JUMPDEST DUP2 ADD PUSH1 0x2 DUP2 MSTORE SUB ADD SWAP1 KECCAK256 PUSH1 0x40 MLOAD SWAP1 PUSH2 0x126F DUP3 PUSH2 0x1BE6 JUMP JUMPDEST PUSH2 0x1278 DUP2 PUSH2 0x1CD7 JUMP JUMPDEST DUP3 MSTORE PUSH1 0x1 DUP2 ADD SLOAD PUSH1 0x1 PUSH1 0x1 PUSH1 0xA0 SHL SUB SWAP1 DUP2 AND PUSH1 0x20 DUP1 DUP6 ADD SWAP2 SWAP1 SWAP2 MSTORE PUSH1 0x2 DUP4 ADD SLOAD DUP3 AND PUSH1 0x40 DUP1 DUP7 ADD SWAP2 SWAP1 SWAP2 MSTORE PUSH1 0x3 DUP5 ADD SLOAD DUP4 AND PUSH1 0x60 DUP7 ADD MSTORE PUSH1 0x4 DUP5 ADD SLOAD PUSH1 0x80 DUP7 ADD MSTORE PUSH1 0x5 DUP5 ADD SLOAD PUSH1 0xA0 DUP7 ADD MSTORE PUSH1 0x6 DUP5 ADD SLOAD SWAP1 SWAP3 AND PUSH1 0xC0 DUP6 ADD MSTORE SWAP1 MLOAD PUSH1 0x7 DUP4 ADD DUP1 SLOAD DUP1 DUP4 MSTORE PUSH1 0x0 SWAP2 DUP3 MSTORE DUP4 DUP3 KECCAK256 SWAP3 SWAP4 DUP5 SWAP3 SWAP1 DUP4 ADD SWAP2 SWAP1 JUMPDEST DUP2 DUP2 LT PUSH2 0x137B JUMPI POP POP PUSH2 0x1302 SWAP3 POP SUB DUP3 PUSH2 0x1C02 JUMP JUMPDEST PUSH1 0xE0 DUP4 ADD MSTORE PUSH1 0x8 DUP2 ADD SLOAD SWAP2 PUSH2 0x100 DUP2 ADD SWAP3 DUP4 MSTORE PUSH2 0x180 PUSH1 0xC PUSH1 0xFF PUSH1 0x9 DUP6 ADD SLOAD AND SWAP4 PUSH2 0x1332 PUSH2 0x120 DUP6 ADD SWAP6 DUP7 PUSH2 0x1E9C JUMP JUMPDEST PUSH1 0xA DUP2 ADD SLOAD PUSH2 0x140 DUP6 ADD MSTORE PUSH1 0xB DUP2 ADD SLOAD PUSH2 0x160 DUP6 ADD MSTORE ADD SLOAD SWAP2 ADD MSTORE MLOAD SWAP1 PUSH1 0x5 DUP3 LT ISZERO PUSH2 0x4D7 JUMPI PUSH1 0x1 PUSH1 0x20 SWAP3 EQ SWAP1 DUP2 PUSH2 0x1370 JUMPI JUMPDEST POP PUSH1 0x40 MLOAD SWAP1 ISZERO ISZERO DUP2 MSTORE RETURN JUMPDEST SWAP1 POP MLOAD TIMESTAMP GT DUP3 PUSH2 0x1365 JUMP JUMPDEST DUP5 SLOAD DUP4 MSTORE PUSH1 0x1 SWAP5 DUP6 ADD SWAP5 DUP7 SWAP5 POP PUSH1 0x20 SWAP1 SWAP4 ADD SWAP3 ADD PUSH2 0x12ED JUMP JUMPDEST CALLVALUE PUSH2 0x176 JUMPI PUSH1 0x0 CALLDATASIZE PUSH1 0x3 NOT ADD SLT PUSH2 0x176 JUMPI PUSH1 0x20 PUSH1 0x4 SLOAD PUSH1 0x40 MLOAD SWAP1 DUP2 MSTORE RETURN JUMPDEST CALLVALUE PUSH2 0x176 JUMPI PUSH1 0x20 CALLDATASIZE PUSH1 0x3 NOT ADD SLT PUSH2 0x176 JUMPI PUSH1 0x1 PUSH1 0x1 PUSH1 0xA0 SHL SUB PUSH2 0x13D3 PUSH2 0x1B88 JUMP JUMPDEST AND PUSH1 0x0 MSTORE PUSH1 0x5 PUSH1 0x20 MSTORE PUSH1 0x20 PUSH1 0x40 PUSH1 0x0 KECCAK256 SLOAD PUSH1 0x40 MLOAD SWAP1 DUP2 MSTORE RETURN JUMPDEST CALLVALUE PUSH2 0x176 JUMPI PUSH1 0x20 CALLDATASIZE PUSH1 0x3 NOT ADD SLT PUSH2 0x176 JUMPI PUSH1 0x4 CALLDATALOAD PUSH1 0x1 PUSH1 0x1 PUSH1 0x40 SHL SUB DUP2 GT PUSH2 0x176 JUMPI PUSH2 0x141C SWAP1 CALLDATASIZE SWAP1 PUSH1 0x4 ADD PUSH2 0x1C23 JUMP JUMPDEST PUSH2 0x1424 PUSH2 0x2000 JUMP JUMPDEST PUSH1 0x40 MLOAD PUSH1 0xFF PUSH1 0x9 DUP4 MLOAD SWAP3 PUSH1 0x20 DUP2 DUP2 DUP8 ADD SWAP6 PUSH2 0x1440 DUP2 DUP4 DUP10 PUSH2 0x1B9E JUMP JUMPDEST DUP2 ADD PUSH1 0x2 DUP2 MSTORE SUB ADD SWAP1 KECCAK256 ADD SLOAD AND PUSH1 0x5 DUP2 LT ISZERO PUSH2 0x4D7 JUMPI PUSH2 0x1468 SWAP2 PUSH2 0x1F5 PUSH1 0x1 PUSH1 0x20 SWAP4 EQ PUSH2 0x1DF5 JUMP JUMPDEST DUP2 ADD PUSH1 0x2 DUP2 MSTORE SUB ADD SWAP1 KECCAK256 PUSH1 0x8 DUP2 ADD SLOAD TIMESTAMP GT ISZERO PUSH2 0x1589 JUMPI PUSH1 0x6 DUP2 ADD SLOAD PUSH1 0x1 PUSH1 0x1 PUSH1 0xA0 SHL SUB AND SWAP2 PUSH1 0x7 DUP3 ADD SWAP1 PUSH1 0x2 DUP4 ADD SWAP1 PUSH1 0x0 JUMPDEST DUP4 SLOAD DUP2 LT ISZERO PUSH2 0x1525 JUMPI DUP3 SLOAD PUSH1 0x1 PUSH1 0x1 PUSH1 0xA0 SHL SUB AND SWAP1 PUSH2 0x14B9 DUP2 DUP7 PUSH2 0x1D7B JUMP JUMPDEST SWAP1 SLOAD SWAP1 PUSH1 0x3 SHL SHR SWAP2 DUP8 EXTCODESIZE ISZERO PUSH2 0x176 JUMPI PUSH1 0x40 MLOAD PUSH4 0x23B872DD PUSH1 0xE0 SHL DUP2 MSTORE ADDRESS PUSH1 0x4 DUP3 ADD MSTORE PUSH1 0x1 PUSH1 0x1 PUSH1 0xA0 SHL SUB SWAP2 SWAP1 SWAP2 AND PUSH1 0x24 DUP3 ADD MSTORE PUSH1 0x44 DUP2 ADD SWAP3 SWAP1 SWAP3 MSTORE PUSH1 0x0 DUP3 PUSH1 0x64 DUP2 DUP4 DUP12 GAS CALL SWAP2 DUP3 ISZERO PUSH2 0x410 JUMPI PUSH1 0x1 SWAP3 PUSH2 0x1514 JUMPI JUMPDEST POP ADD PUSH2 0x149A JUMP JUMPDEST PUSH1 0x0 PUSH2 0x151F SWAP2 PUSH2 0x1C02 JUMP JUMPDEST DUP8 PUSH2 0x150D JUMP JUMPDEST POP PUSH1 0x9 DUP5 ADD DUP1 SLOAD PUSH1 0xFF NOT AND PUSH1 0x3 OR SWAP1 SSTORE TIMESTAMP PUSH1 0xC DUP6 ADD SSTORE SWAP1 SLOAD SWAP2 SLOAD PUSH1 0x1 PUSH1 0x1 PUSH1 0xA0 SHL SUB SWAP3 SWAP1 SWAP3 AND SWAP2 SWAP1 PUSH32 0xF1B8949E4896D4133C11D16389F3C895052AEA3F32798E8FD296115D24A9884C SWAP1 PUSH1 0x20 SWAP1 PUSH2 0x157B SWAP1 PUSH2 0x1E7C JUMP JUMPDEST SWAP3 PUSH1 0x40 MLOAD SWAP1 DUP2 MSTORE LOG3 PUSH1 0x1 DUP1 SSTORE STOP JUMPDEST PUSH1 0x40 MLOAD PUSH3 0x461BCD PUSH1 0xE5 SHL DUP2 MSTORE PUSH1 0x20 PUSH1 0x4 DUP3 ADD MSTORE PUSH1 0x14 PUSH1 0x24 DUP3 ADD MSTORE PUSH20 0x131BD85B881B9BDD081BDD995C991D59481E595D PUSH1 0x62 SHL PUSH1 0x44 DUP3 ADD MSTORE PUSH1 0x64 SWAP1 REVERT JUMPDEST CALLVALUE PUSH2 0x176 JUMPI PUSH1 0x20 CALLDATASIZE PUSH1 0x3 NOT ADD SLT PUSH2 0x176 JUMPI PUSH2 0x15DE PUSH2 0x1B88 JUMP JUMPDEST PUSH2 0x15E6 PUSH2 0x2022 JUMP JUMPDEST PUSH1 0x1 PUSH1 0x1 PUSH1 0xA0 SHL SUB AND PUSH1 0x0 DUP2 DUP2 MSTORE PUSH1 0x5 PUSH1 0x20 MSTORE PUSH1 0x40 SWAP1 KECCAK256 SLOAD SWAP1 DUP2 ISZERO PUSH2 0x1670 JUMPI PUSH1 0x0 DUP2 DUP2 MSTORE PUSH1 0x5 PUSH1 0x20 SWAP1 DUP2 MSTORE PUSH1 0x40 DUP1 DUP4 KECCAK256 DUP4 SWAP1 SSTORE DUP3 SLOAD SWAP1 MLOAD PUSH4 0xA9059CBB PUSH1 0xE0 SHL DUP2 MSTORE PUSH1 0x1 PUSH1 0x1 PUSH1 0xA0 SHL SUB SWAP1 SWAP2 AND PUSH1 0x4 DUP3 ADD MSTORE PUSH1 0x24 DUP2 ADD SWAP5 SWAP1 SWAP5 MSTORE SWAP2 DUP4 SWAP2 PUSH1 0x44 SWAP2 DUP4 SWAP2 SWAP1 GAS CALL DUP1 ISZERO PUSH2 0x410 JUMPI PUSH2 0x1656 JUMPI STOP JUMPDEST PUSH2 0x166E SWAP1 PUSH1 0x20 RETURNDATASIZE PUSH1 0x20 GT PUSH2 0x409 JUMPI PUSH2 0x3FB DUP2 DUP4 PUSH2 0x1C02 JUMP JUMPDEST STOP JUMPDEST PUSH1 0x40 MLOAD PUSH3 0x461BCD PUSH1 0xE5 SHL DUP2 MSTORE PUSH1 0x20 PUSH1 0x4 DUP3 ADD MSTORE PUSH1 0x13 PUSH1 0x24 DUP3 ADD MSTORE PUSH19 0x4E6F206665657320746F207769746864726177 PUSH1 0x68 SHL PUSH1 0x44 DUP3 ADD MSTORE PUSH1 0x64 SWAP1 REVERT JUMPDEST CALLVALUE PUSH2 0x176 JUMPI PUSH1 0x20 CALLDATASIZE PUSH1 0x3 NOT ADD SLT PUSH2 0x176 JUMPI PUSH1 0x4 CALLDATALOAD PUSH2 0x16C7 PUSH2 0x2022 JUMP JUMPDEST PUSH1 0x64 DUP2 GT PUSH2 0x16D4 JUMPI PUSH1 0x4 SSTORE STOP JUMPDEST PUSH1 0x40 MLOAD PUSH3 0x461BCD PUSH1 0xE5 SHL DUP2 MSTORE PUSH1 0x20 PUSH1 0x4 DUP3 ADD MSTORE PUSH1 0xC PUSH1 0x24 DUP3 ADD MSTORE PUSH12 0x8CCACA40E8DEDE40D0D2CED PUSH1 0xA3 SHL PUSH1 0x44 DUP3 ADD MSTORE PUSH1 0x64 SWAP1 REVERT JUMPDEST CALLVALUE PUSH2 0x176 JUMPI PUSH1 0x20 CALLDATASIZE PUSH1 0x3 NOT ADD SLT PUSH2 0x176 JUMPI PUSH1 0x4 CALLDATALOAD PUSH1 0x1 PUSH1 0x1 PUSH1 0x40 SHL SUB DUP2 GT PUSH2 0x176 JUMPI PUSH2 0x1738 SWAP1 CALLDATASIZE SWAP1 PUSH1 0x4 ADD PUSH2 0x1C23 JUMP JUMPDEST PUSH2 0x1740 PUSH2 0x2000 JUMP JUMPDEST PUSH1 0x40 MLOAD PUSH2 0x175B DUP3 MLOAD SWAP2 PUSH1 0x1 PUSH1 0x20 DUP6 ADD SWAP4 PUSH2 0x5C4 DUP2 DUP5 DUP8 PUSH2 0x1B9E JUMP JUMPDEST PUSH1 0xFF PUSH1 0x9 PUSH1 0x40 MLOAD PUSH1 0x20 DUP2 DUP7 MLOAD PUSH2 0x1772 DUP2 DUP4 DUP10 PUSH2 0x1B9E JUMP JUMPDEST DUP2 ADD PUSH1 0x2 DUP2 MSTORE SUB ADD SWAP1 KECCAK256 ADD SLOAD AND PUSH1 0x5 DUP2 LT ISZERO PUSH2 0x4D7 JUMPI PUSH2 0x179A SWAP2 PUSH2 0x1F5 PUSH1 0x1 PUSH1 0x20 SWAP4 EQ PUSH2 0x1DF5 JUMP JUMPDEST DUP2 ADD PUSH1 0x2 DUP2 MSTORE SUB ADD SWAP1 KECCAK256 SWAP1 PUSH1 0x3 DUP3 ADD PUSH1 0x1 DUP1 PUSH1 0xA0 SHL SUB DUP2 SLOAD AND PUSH1 0x5 DUP5 ADD SWAP2 DUP3 SLOAD PUSH2 0x2710 PUSH2 0x17C9 PUSH1 0x4 SLOAD DUP4 PUSH2 0x1E37 JUMP JUMPDEST DIV SWAP3 PUSH2 0x1808 PUSH1 0x20 PUSH2 0x17DA DUP7 DUP6 PUSH2 0x1E4A JUMP JUMPDEST PUSH1 0x40 MLOAD PUSH4 0x23B872DD PUSH1 0xE0 SHL DUP2 MSTORE CALLER PUSH1 0x4 DUP3 ADD MSTORE ADDRESS PUSH1 0x24 DUP3 ADD MSTORE PUSH1 0x44 DUP2 ADD SWAP6 SWAP1 SWAP6 MSTORE SWAP4 SWAP2 DUP3 SWAP1 DUP2 SWAP1 PUSH1 0x64 DUP3 ADD SWAP1 JUMP JUMPDEST SUB DUP2 PUSH1 0x0 DUP7 GAS CALL SWAP1 DUP2 ISZERO PUSH2 0x410 JUMPI PUSH1 0x0 SWAP2 PUSH2 0x1A80 JUMPI JUMPDEST POP ISZERO PUSH2 0x1A48 JUMPI DUP4 PUSH1 0x20 SWAP4 PUSH2 0x1870 SWAP6 PUSH2 0x19E9 JUMPI JUMPDEST POP POP PUSH1 0x2 DUP8 ADD SLOAD PUSH1 0x40 MLOAD PUSH4 0xA9059CBB PUSH1 0xE0 SHL DUP2 MSTORE PUSH1 0x1 PUSH1 0x1 PUSH1 0xA0 SHL SUB SWAP1 SWAP2 AND PUSH1 0x4 DUP3 ADD MSTORE PUSH1 0x24 DUP2 ADD SWAP3 SWAP1 SWAP3 MSTORE SWAP1 SWAP3 DUP4 SWAP2 SWAP1 DUP3 SWAP1 PUSH1 0x0 SWAP1 DUP3 SWAP1 PUSH1 0x44 DUP3 ADD SWAP1 JUMP JUMPDEST SUB SWAP3 GAS CALL SWAP1 DUP2 ISZERO PUSH2 0x410 JUMPI PUSH1 0x0 SWAP2 PUSH2 0x19CA JUMPI JUMPDEST POP ISZERO PUSH2 0x1985 JUMPI PUSH1 0x6 DUP4 ADD SLOAD PUSH1 0x1 PUSH1 0x1 PUSH1 0xA0 SHL SUB AND SWAP2 DUP4 SWAP2 PUSH1 0x7 DUP4 ADD SWAP2 PUSH1 0x1 DUP5 ADD SWAP2 PUSH1 0x0 JUMPDEST DUP5 SLOAD DUP2 LT ISZERO PUSH2 0x1932 JUMPI DUP4 SLOAD PUSH1 0x1 PUSH1 0x1 PUSH1 0xA0 SHL SUB AND SWAP1 PUSH2 0x18C6 DUP2 DUP8 PUSH2 0x1D7B JUMP JUMPDEST SWAP1 SLOAD SWAP1 PUSH1 0x3 SHL SHR SWAP2 DUP9 EXTCODESIZE ISZERO PUSH2 0x176 JUMPI PUSH1 0x40 MLOAD PUSH4 0x23B872DD PUSH1 0xE0 SHL DUP2 MSTORE ADDRESS PUSH1 0x4 DUP3 ADD MSTORE PUSH1 0x1 PUSH1 0x1 PUSH1 0xA0 SHL SUB SWAP2 SWAP1 SWAP2 AND PUSH1 0x24 DUP3 ADD MSTORE PUSH1 0x44 DUP2 ADD SWAP3 SWAP1 SWAP3 MSTORE PUSH1 0x0 DUP3 PUSH1 0x64 DUP2 DUP4 DUP13 GAS CALL SWAP2 DUP3 ISZERO PUSH2 0x410 JUMPI PUSH1 0x1 SWAP3 PUSH2 0x1921 JUMPI JUMPDEST POP ADD PUSH2 0x18A7 JUMP JUMPDEST PUSH1 0x0 PUSH2 0x192C SWAP2 PUSH2 0x1C02 JUMP JUMPDEST DUP9 PUSH2 0x191A JUMP JUMPDEST POP PUSH1 0x9 DUP6 ADD DUP1 SLOAD PUSH1 0xFF NOT AND PUSH1 0x2 OR SWAP1 SSTORE TIMESTAMP PUSH1 0xC DUP7 ADD SSTORE SLOAD SWAP1 PUSH2 0x1953 SWAP1 PUSH2 0x1E7C JUMP JUMPDEST PUSH1 0x40 MLOAD SWAP2 DUP3 MSTORE PUSH32 0xFFE64C5EC0AEFBE73DC8A169259738E2B8CB8A537F6DCE448F1E932DB6F20479 PUSH1 0x20 CALLER SWAP4 LOG3 PUSH1 0x1 DUP1 SSTORE STOP JUMPDEST PUSH1 0x40 MLOAD PUSH3 0x461BCD PUSH1 0xE5 SHL DUP2 MSTORE PUSH1 0x20 PUSH1 0x4 DUP3 ADD MSTORE PUSH1 0x19 PUSH1 0x24 DUP3 ADD MSTORE PUSH32 0x5472616E7366657220746F206C656E646572206661696C656400000000000000 PUSH1 0x44 DUP3 ADD MSTORE PUSH1 0x64 SWAP1 REVERT JUMPDEST PUSH2 0x19E3 SWAP2 POP PUSH1 0x20 RETURNDATASIZE PUSH1 0x20 GT PUSH2 0x409 JUMPI PUSH2 0x3FB DUP2 DUP4 PUSH2 0x1C02 JUMP JUMPDEST DUP5 PUSH2 0x1883 JUMP JUMPDEST DUP5 PUSH32 0x6C5EFEFF5C320943D265DC4E5F1AF95AD523555CE0C1957E367DDA5514572DF SWAP2 PUSH1 0x1 DUP1 PUSH1 0xA0 SHL SUB DUP2 SLOAD AND PUSH1 0x0 MSTORE PUSH1 0x5 DUP3 MSTORE PUSH1 0x40 PUSH1 0x0 KECCAK256 PUSH2 0x1A2D DUP6 DUP3 SLOAD PUSH2 0x1E6F JUMP JUMPDEST SWAP1 SSTORE SLOAD PUSH1 0x40 MLOAD SWAP4 DUP5 MSTORE PUSH1 0x1 PUSH1 0x1 PUSH1 0xA0 SHL SUB AND SWAP3 LOG2 DUP8 DUP1 PUSH2 0x1831 JUMP JUMPDEST PUSH1 0x40 MLOAD PUSH3 0x461BCD PUSH1 0xE5 SHL DUP2 MSTORE PUSH1 0x20 PUSH1 0x4 DUP3 ADD MSTORE PUSH1 0x10 PUSH1 0x24 DUP3 ADD MSTORE PUSH16 0x14995C185E5B595B9D0819985A5B1959 PUSH1 0x82 SHL PUSH1 0x44 DUP3 ADD MSTORE PUSH1 0x64 SWAP1 REVERT JUMPDEST PUSH2 0x1A99 SWAP2 POP PUSH1 0x20 RETURNDATASIZE PUSH1 0x20 GT PUSH2 0x409 JUMPI PUSH2 0x3FB DUP2 DUP4 PUSH2 0x1C02 JUMP JUMPDEST DUP9 PUSH2 0x181E JUMP JUMPDEST CALLVALUE PUSH2 0x176 JUMPI PUSH1 0x20 CALLDATASIZE PUSH1 0x3 NOT ADD SLT PUSH2 0x176 JUMPI PUSH1 0x1 PUSH1 0x1 PUSH1 0xA0 SHL SUB PUSH2 0x1AC0 PUSH2 0x1B88 JUMP JUMPDEST AND PUSH1 0x0 MSTORE PUSH1 0x3 PUSH1 0x20 MSTORE PUSH1 0x40 PUSH1 0x0 KECCAK256 DUP1 SLOAD SWAP1 PUSH2 0x1ADA DUP3 PUSH2 0x1C79 JUMP JUMPDEST SWAP2 PUSH2 0x1AE8 PUSH1 0x40 MLOAD SWAP4 DUP5 PUSH2 0x1C02 JUMP JUMPDEST DUP1 DUP4 MSTORE PUSH1 0x20 DUP4 ADD DUP1 SWAP3 PUSH1 0x0 MSTORE PUSH1 0x20 PUSH1 0x0 KECCAK256 PUSH1 0x0 SWAP2 JUMPDEST DUP4 DUP4 LT PUSH2 0x1B6B JUMPI DUP5 DUP7 PUSH1 0x40 MLOAD SWAP2 DUP3 SWAP2 PUSH1 0x20 DUP4 ADD SWAP1 PUSH1 0x20 DUP5 MSTORE MLOAD DUP1 SWAP2 MSTORE PUSH1 0x40 DUP4 ADD SWAP1 PUSH1 0x40 DUP2 PUSH1 0x5 SHL DUP6 ADD ADD SWAP3 SWAP2 PUSH1 0x0 SWAP1 JUMPDEST DUP3 DUP3 LT PUSH2 0x1B3C JUMPI POP POP POP POP SUB SWAP1 RETURN JUMPDEST SWAP2 SWAP4 PUSH1 0x1 SWAP2 SWAP4 SWAP6 POP PUSH1 0x20 PUSH2 0x1B5B DUP2 SWAP3 PUSH1 0x3F NOT DUP11 DUP3 SUB ADD DUP7 MSTORE DUP9 MLOAD PUSH2 0x1BC1 JUMP JUMPDEST SWAP7 ADD SWAP3 ADD SWAP3 ADD DUP6 SWAP5 SWAP4 SWAP2 SWAP3 PUSH2 0x1B2D JUMP JUMPDEST PUSH1 0x1 PUSH1 0x20 DUP2 SWAP3 PUSH2 0x1B7A DUP6 PUSH2 0x1CD7 JUMP JUMPDEST DUP2 MSTORE ADD SWAP3 ADD SWAP3 ADD SWAP2 SWAP1 PUSH2 0x1AFD JUMP JUMPDEST PUSH1 0x4 CALLDATALOAD SWAP1 PUSH1 0x1 PUSH1 0x1 PUSH1 0xA0 SHL SUB DUP3 AND DUP3 SUB PUSH2 0x176 JUMPI JUMP JUMPDEST PUSH1 0x0 JUMPDEST DUP4 DUP2 LT PUSH2 0x1BB1 JUMPI POP POP PUSH1 0x0 SWAP2 ADD MSTORE JUMP JUMPDEST DUP2 DUP2 ADD MLOAD DUP4 DUP3 ADD MSTORE PUSH1 0x20 ADD PUSH2 0x1BA1 JUMP JUMPDEST SWAP1 PUSH1 0x20 SWAP2 PUSH2 0x1BDA DUP2 MLOAD DUP1 SWAP3 DUP2 DUP6 MSTORE DUP6 DUP1 DUP7 ADD SWAP2 ADD PUSH2 0x1B9E JUMP JUMPDEST PUSH1 0x1F ADD PUSH1 0x1F NOT AND ADD ADD SWAP1 JUMP JUMPDEST PUSH2 0x1A0 DUP2 ADD SWAP1 DUP2 LT PUSH1 0x1 PUSH1 0x1 PUSH1 0x40 SHL SUB DUP3 GT OR PUSH2 0xFF2 JUMPI PUSH1 0x40 MSTORE JUMP JUMPDEST SWAP1 PUSH1 0x1F DUP1 NOT SWAP2 ADD AND DUP2 ADD SWAP1 DUP2 LT PUSH1 0x1 PUSH1 0x1 PUSH1 0x40 SHL SUB DUP3 GT OR PUSH2 0xFF2 JUMPI PUSH1 0x40 MSTORE JUMP JUMPDEST DUP2 PUSH1 0x1F DUP3 ADD SLT ISZERO PUSH2 0x176 JUMPI DUP1 CALLDATALOAD SWAP1 PUSH1 0x1 PUSH1 0x1 PUSH1 0x40 SHL SUB DUP3 GT PUSH2 0xFF2 JUMPI PUSH1 0x40 MLOAD SWAP3 PUSH2 0x1C57 PUSH1 0x1F DUP5 ADD PUSH1 0x1F NOT AND PUSH1 0x20 ADD DUP6 PUSH2 0x1C02 JUMP JUMPDEST DUP3 DUP5 MSTORE PUSH1 0x20 DUP4 DUP4 ADD ADD GT PUSH2 0x176 JUMPI DUP2 PUSH1 0x0 SWAP3 PUSH1 0x20 DUP1 SWAP4 ADD DUP4 DUP7 ADD CALLDATACOPY DUP4 ADD ADD MSTORE SWAP1 JUMP JUMPDEST PUSH1 0x1 PUSH1 0x1 PUSH1 0x40 SHL SUB DUP2 GT PUSH2 0xFF2 JUMPI PUSH1 0x5 SHL PUSH1 0x20 ADD SWAP1 JUMP JUMPDEST SWAP1 PUSH1 0x5 DUP3 LT ISZERO PUSH2 0x4D7 JUMPI MSTORE JUMP JUMPDEST SWAP1 PUSH1 0x1 DUP3 DUP2 SHR SWAP3 AND DUP1 ISZERO PUSH2 0x1CCD JUMPI JUMPDEST PUSH1 0x20 DUP4 LT EQ PUSH2 0x1CB7 JUMPI JUMP JUMPDEST PUSH4 0x4E487B71 PUSH1 0xE0 SHL PUSH1 0x0 MSTORE PUSH1 0x22 PUSH1 0x4 MSTORE PUSH1 0x24 PUSH1 0x0 REVERT JUMPDEST SWAP2 PUSH1 0x7F AND SWAP2 PUSH2 0x1CAC JUMP JUMPDEST SWAP1 PUSH1 0x40 MLOAD SWAP2 DUP3 PUSH1 0x0 DUP3 SLOAD SWAP3 PUSH2 0x1CEB DUP5 PUSH2 0x1C9D JUMP JUMPDEST DUP1 DUP5 MSTORE SWAP4 PUSH1 0x1 DUP2 AND SWAP1 DUP2 ISZERO PUSH2 0x1D59 JUMPI POP PUSH1 0x1 EQ PUSH2 0x1D12 JUMPI JUMPDEST POP PUSH2 0x1D10 SWAP3 POP SUB DUP4 PUSH2 0x1C02 JUMP JUMPDEST JUMP JUMPDEST SWAP1 POP PUSH1 0x0 SWAP3 SWAP2 SWAP3 MSTORE PUSH1 0x20 PUSH1 0x0 KECCAK256 SWAP1 PUSH1 0x0 SWAP2 JUMPDEST DUP2 DUP4 LT PUSH2 0x1D3D JUMPI POP POP SWAP1 PUSH1 0x20 PUSH2 0x1D10 SWAP3 DUP3 ADD ADD CODESIZE PUSH2 0x1D03 JUMP JUMPDEST PUSH1 0x20 SWAP2 SWAP4 POP DUP1 PUSH1 0x1 SWAP2 SLOAD DUP4 DUP6 DUP10 ADD ADD MSTORE ADD SWAP2 ADD SWAP1 SWAP2 DUP5 SWAP3 PUSH2 0x1D24 JUMP JUMPDEST SWAP1 POP PUSH1 0x20 SWAP3 POP PUSH2 0x1D10 SWAP5 SWAP2 POP PUSH1 0xFF NOT AND DUP3 DUP5 ADD MSTORE ISZERO ISZERO PUSH1 0x5 SHL DUP3 ADD ADD CODESIZE PUSH2 0x1D03 JUMP JUMPDEST DUP1 SLOAD DUP3 LT ISZERO PUSH2 0x1D93 JUMPI PUSH1 0x0 MSTORE PUSH1 0x20 PUSH1 0x0 KECCAK256 ADD SWAP1 PUSH1 0x0 SWAP1 JUMP JUMPDEST PUSH4 0x4E487B71 PUSH1 0xE0 SHL PUSH1 0x0 MSTORE PUSH1 0x32 PUSH1 0x4 MSTORE PUSH1 0x24 PUSH1 0x0 REVERT JUMPDEST ISZERO PUSH2 0x1DB0 JUMPI JUMP JUMPDEST PUSH1 0x40 MLOAD PUSH3 0x461BCD PUSH1 0xE5 SHL DUP2 MSTORE PUSH1 0x20 PUSH1 0x4 DUP3 ADD MSTORE PUSH1 0x1B PUSH1 0x24 DUP3 ADD MSTORE PUSH32 0x4F6E6C7920626F72726F7765722063616E2063616C6C20746869730000000000 PUSH1 0x44 DUP3 ADD MSTORE PUSH1 0x64 SWAP1 REVERT JUMPDEST ISZERO PUSH2 0x1DFC JUMPI JUMP JUMPDEST PUSH1 0x40 MLOAD PUSH3 0x461BCD PUSH1 0xE5 SHL DUP2 MSTORE PUSH1 0x20 PUSH1 0x4 DUP3 ADD MSTORE PUSH1 0x13 PUSH1 0x24 DUP3 ADD MSTORE PUSH19 0x496E76616C6964206C6F616E20737461747573 PUSH1 0x68 SHL PUSH1 0x44 DUP3 ADD MSTORE PUSH1 0x64 SWAP1 REVERT JUMPDEST DUP2 DUP2 MUL SWAP3 SWAP2 DUP2 ISZERO SWAP2 DUP5 DIV EQ OR ISZERO PUSH2 0x1046 JUMPI JUMP JUMPDEST SWAP2 SWAP1 DUP3 SUB SWAP2 DUP3 GT PUSH2 0x1046 JUMPI JUMP JUMPDEST SWAP1 DUP2 PUSH1 0x20 SWAP2 SUB SLT PUSH2 0x176 JUMPI MLOAD DUP1 ISZERO ISZERO DUP2 SUB PUSH2 0x176 JUMPI SWAP1 JUMP JUMPDEST SWAP2 SWAP1 DUP3 ADD DUP1 SWAP3 GT PUSH2 0x1046 JUMPI JUMP JUMPDEST PUSH2 0x1E94 SWAP1 PUSH1 0x20 PUSH1 0x40 MLOAD SWAP3 DUP3 DUP5 DUP1 SWAP5 MLOAD SWAP4 DUP5 SWAP3 ADD PUSH2 0x1B9E JUMP JUMPDEST DUP2 ADD SUB SWAP1 KECCAK256 SWAP1 JUMP JUMPDEST PUSH1 0x5 DUP3 LT ISZERO PUSH2 0x4D7 JUMPI MSTORE JUMP JUMPDEST DUP1 MLOAD DUP3 LT ISZERO PUSH2 0x1D93 JUMPI PUSH1 0x20 SWAP2 PUSH1 0x5 SHL ADD ADD SWAP1 JUMP JUMPDEST DUP2 DUP2 LT PUSH2 0x1EC7 JUMPI POP POP JUMP JUMPDEST PUSH1 0x0 DUP2 SSTORE PUSH1 0x1 ADD PUSH2 0x1EBC JUMP JUMPDEST SWAP2 SWAP1 SWAP2 DUP3 MLOAD PUSH1 0x1 PUSH1 0x1 PUSH1 0x40 SHL SUB DUP2 GT PUSH2 0xFF2 JUMPI PUSH2 0x1EF0 DUP3 SLOAD PUSH2 0x1C9D JUMP JUMPDEST PUSH1 0x1F DUP2 GT PUSH2 0x1F96 JUMPI JUMPDEST POP PUSH1 0x20 PUSH1 0x1F DUP3 GT PUSH1 0x1 EQ PUSH2 0x1F34 JUMPI DUP2 SWAP3 SWAP4 SWAP5 PUSH1 0x0 SWAP3 PUSH2 0x1F29 JUMPI JUMPDEST POP POP DUP2 PUSH1 0x1 SHL SWAP2 PUSH1 0x0 NOT SWAP1 PUSH1 0x3 SHL SHR NOT AND OR SWAP1 SSTORE JUMP JUMPDEST ADD MLOAD SWAP1 POP CODESIZE DUP1 PUSH2 0x1F13 JUMP JUMPDEST PUSH1 0x1F NOT DUP3 AND SWAP1 DUP4 PUSH1 0x0 MSTORE DUP1 PUSH1 0x0 KECCAK256 SWAP2 PUSH1 0x0 JUMPDEST DUP2 DUP2 LT PUSH2 0x1F7E JUMPI POP SWAP6 DUP4 PUSH1 0x1 SWAP6 SWAP7 SWAP8 LT PUSH2 0x1F65 JUMPI JUMPDEST POP POP POP DUP2 SHL ADD SWAP1 SSTORE JUMP JUMPDEST ADD MLOAD PUSH1 0x0 NOT PUSH1 0xF8 DUP5 PUSH1 0x3 SHL AND SHR NOT AND SWAP1 SSTORE CODESIZE DUP1 DUP1 PUSH2 0x1F5B JUMP JUMPDEST SWAP2 SWAP3 PUSH1 0x20 PUSH1 0x1 DUP2 SWAP3 DUP7 DUP12 ADD MLOAD DUP2 SSTORE ADD SWAP5 ADD SWAP3 ADD PUSH2 0x1F46 JUMP JUMPDEST PUSH2 0x1FC3 SWAP1 DUP4 PUSH1 0x0 MSTORE PUSH1 0x20 PUSH1 0x0 KECCAK256 PUSH1 0x1F DUP5 ADD PUSH1 0x5 SHR DUP2 ADD SWAP2 PUSH1 0x20 DUP6 LT PUSH2 0x1FC9 JUMPI JUMPDEST PUSH1 0x1F ADD PUSH1 0x5 SHR ADD SWAP1 PUSH2 0x1EBC JUMP JUMPDEST CODESIZE PUSH2 0x1EF9 JUMP JUMPDEST SWAP1 SWAP2 POP DUP2 SWAP1 PUSH2 0x1FB6 JUMP JUMPDEST DUP1 SLOAD PUSH1 0x1 PUSH1 0x40 SHL DUP2 LT ISZERO PUSH2 0xFF2 JUMPI PUSH2 0x1FF0 SWAP2 PUSH1 0x1 DUP3 ADD DUP2 SSTORE PUSH2 0x1D7B JUMP JUMPDEST SWAP2 SWAP1 SWAP2 PUSH2 0x55B JUMPI PUSH2 0x1D10 SWAP2 PUSH2 0x1ED3 JUMP JUMPDEST PUSH1 0x2 PUSH1 0x1 SLOAD EQ PUSH2 0x2011 JUMPI PUSH1 0x2 PUSH1 0x1 SSTORE JUMP JUMPDEST PUSH4 0x3EE5AEB5 PUSH1 0xE0 SHL PUSH1 0x0 MSTORE PUSH1 0x4 PUSH1 0x0 REVERT JUMPDEST PUSH1 0x0 SLOAD PUSH1 0x1 PUSH1 0x1 PUSH1 0xA0 SHL SUB AND CALLER SUB PUSH2 0x2036 JUMPI JUMP JUMPDEST PUSH4 0x118CDAA7 PUSH1 0xE0 SHL PUSH1 0x0 MSTORE CALLER PUSH1 0x4 MSTORE PUSH1 0x24 PUSH1 0x0 REVERT INVALID LOG2 PUSH5 0x6970667358 0x22 SLT KECCAK256 SWAP2 0xCE BASEFEE SWAP12 LT 0xCB SWAP8 0x2C SLT DUP9 EXP 0xAD 0xCE 0xCB 0xCD 0x26 0x28 0xC0 RETURNDATACOPY PUSH20 0xBDC91B3B846EA58CF7E918764736F6C63430008 SHL STOP CALLER "},"methodIdentifiers":{"MIN_LOAN_AMOUNT()":"96fa212f","MIN_LOAN_DURATION()":"89d99a05","cancelLoan(string)":"c70f2e2b","collectedFees(address)":"1cead9a7","getLoan(string)":"c47d2586","getUserLoans(address)":"02bf321f","isLiquidatable(string)":"513099c6","liquidateLoan(string)":"18a1cc09","loans(string)":"c6141f63","matchLoan(string)":"d947bee4","owner()":"8da5cb5b","platformFeeBps()":"22dcd13e","renounceOwnership()":"715018a6","repayLoan(string)":"035dc3d9","requestLoan(string,address,uint256,uint256,address,uint256[],uint256)":"8258e3d3","setPlatformFee(uint256)":"12e8e2c3","transferOwnership(address)":"f2fde38b","userLoans(address,uint256)":"d8bad5bd","withdrawFees(address)":"164e68de"}}}}}