{"contracts/PawnableLoan.sol":{"PawnableLoan":{"abi":[{"inputs":[],"stateMutability":"nonpayable","type":"constructor"},{"inputs":[{"internalType":"address","name":"owner","type":"address"}],"name":"OwnableInvalidOwner","type":"error"},{"inputs":[{"internalType":"address","name":"account","type":"address"}],"name":"OwnableUnauthorizedAccount","type":"error"},{"inputs":[],"name":"ReentrancyGuardReentrantCall","type":"error"},{"anonymous":false,"inputs":[{"indexed":true,"internalType":"address","name":"token","type":"address"},{"indexed":false,"internalType":"uint256","name":"amount","type":"uint256"}],"name":"FeeCollected","type":"event"},{"anonymous":false,"inputs":[{"indexed":true,"internalType":"string","name":"loanId","type":"string"},{"indexed":true,"internalType":"address","name":"borrower","type":"address"}],"name":"LoanCancelled","type":"event"},{"anonymous":false,"inputs":[{"indexed":true,"internalType":"string","name":"loanId","type":"string"},{"indexed":true,"internalType":"address","name":"lender","type":"address"},{"indexed":false,"internalType":"uint256","name":"collateralAmount","type":"uint256"}],"name":"LoanLiquidated","type":"event"},{"anonymous":false,"inputs":[{"indexed":true,"internalType":"string","name":"loanId","type":"string"},{"indexed":true,"internalType":"address","name":"borrower","type":"address"},{"indexed":true,"internalType":"address","name":"lender","type":"address"},{"indexed":false,"internalType":"uint256","name":"loanAmount","type":"uint256"}],"name":"LoanMatched","type":"event"},{"anonymous":false,"inputs":[{"indexed":true,"internalType":"string","name":"loanId","type":"string"},{"indexed":true,"internalType":"address","name":"borrower","type":"address"},{"indexed":false,"internalType":"uint256","name":"repayAmount","type":"uint256"}],"name":"LoanRepaid","type":"event"},{"anonymous":false,"inputs":[{"indexed":true,"internalType":"string","name":"loanId","type":"string"},{"indexed":true,"internalType":"address","name":"borrower","type":"address"},{"indexed":false,"internalType":"address","name":"loanToken","type":"address"},{"indexed":false,"internalType":"uint256","name":"loanAmount","type":"uint256"},{"indexed":false,"internalType":"uint256","name":"repayAmount","type":"uint256"},{"indexed":false,"internalType":"uint256","name":"dueTimestamp","type":"uint256"}],"name":"LoanRequested","type":"event"},{"anonymous":false,"inputs":[{"indexed":true,"internalType":"address","name":"previousOwner","type":"address"},{"indexed":true,"internalType":"address","name":"newOwner","type":"address"}],"name":"OwnershipTransferred","type":"event"},{"inputs":[],"name":"MIN_LOAN_AMOUNT","outputs":[{"internalType":"uint256","name":"","type":"uint256"}],"stateMutability":"view","type":"function"},{"inputs":[],"name":"MIN_LOAN_DURATION","outputs":[{"internalType":"uint256","name":"","type":"uint256"}],"stateMutability":"view","type":"function"},{"inputs":[{"internalType":"string","name":"loanId","type":"string"}],"name":"cancelLoan","outputs":[],"stateMutability":"nonpayable","type":"function"},{"inputs":[{"internalType":"address","name":"","type":"address"}],"name":"collectedFees","outputs":[{"internalType":"uint256","name":"","type":"uint256"}],"stateMutability":"view","type":"function"},{"inputs":[{"internalType":"string","name":"loanId","type":"string"}],"name":"getLoan","outputs":[{"components":[{"internalType":"string","name":"loanId","type":"string"},{"internalType":"address","name":"borrower","type":"address"},{"internalType":"address","name":"lender","type":"address"},{"internalType":"address","name":"loanToken","type":"address"},{"internalType":"uint256","name":"loanAmount","type":"uint256"},{"internalType":"uint256","name":"repayAmount","type":"uint256"},{"internalType":"address","name":"collateralToken","type":"address"},{"internalType":"uint256","name":"collateralAmount","type":"uint256"},{"internalType":"uint256","name":"dueTimestamp","type":"uint256"},{"internalType":"enum PawnableLoan.LoanStatus","name":"status","type":"uint8"},{"internalType":"uint256","name":"createdAt","type":"uint256"},{"internalType":"uint256","name":"matchedAt","type":"uint256"},{"internalType":"uint256","name":"closedAt","type":"uint256"}],"internalType":"struct PawnableLoan.Loan","name":"","type":"tuple"}],"stateMutability":"view","type":"function"},{"inputs":[{"internalType":"address","name":"user","type":"address"}],"name":"getUserLoans","outputs":[{"internalType":"string[]","name":"","type":"string[]"}],"stateMutability":"view","type":"function"},{"inputs":[{"internalType":"string","name":"loanId","type":"string"}],"name":"isLiquidatable","outputs":[{"internalType":"bool","name":"","type":"bool"}],"stateMutability":"view","type":"function"},{"inputs":[{"internalType":"string","name":"loanId","type":"string"}],"name":"liquidateLoan","outputs":[],"stateMutability":"nonpayable","type":"function"},{"inputs":[{"internalType":"string","name":"","type":"string"}],"name":"loans","outputs":[{"internalType":"string","name":"loanId","type":"string"},{"internalType":"address","name":"borrower","type":"address"},{"internalType":"address","name":"lender","type":"address"},{"internalType":"address","name":"loanToken","type":"address"},{"internalType":"uint256","name":"loanAmount","type":"uint256"},{"internalType":"uint256","name":"repayAmount","type":"uint256"},{"internalType":"address","name":"collateralToken","type":"address"},{"internalType":"uint256","name":"collateralAmount","type":"uint256"},{"internalType":"uint256","name":"dueTimestamp","type":"uint256"},{"internalType":"enum PawnableLoan.LoanStatus","name":"status","type":"uint8"},{"internalType":"uint256","name":"createdAt","type":"uint256"},{"internalType":"uint256","name":"matchedAt","type":"uint256"},{"internalType":"uint256","name":"closedAt","type":"uint256"}],"stateMutability":"view","type":"function"},{"inputs":[{"internalType":"string","name":"loanId","type":"string"}],"name":"matchLoan","outputs":[],"stateMutability":"nonpayable","type":"function"},{"inputs":[],"name":"owner","outputs":[{"internalType":"address","name":"","type":"address"}],"stateMutability":"view","type":"function"},{"inputs":[],"name":"platformFeeBps","outputs":[{"internalType":"uint256","name":"","type":"uint256"}],"stateMutability":"view","type":"function"},{"inputs":[],"name":"renounceOwnership","outputs":[],"stateMutability":"nonpayable","type":"function"},{"inputs":[{"internalType":"string","name":"loanId","type":"string"}],"name":"repayLoan","outputs":[],"stateMutability":"nonpayable","type":"function"},{"inputs":[{"internalType":"string","name":"loanId","type":"string"},{"internalType":"address","name":"loanToken","type":"address"},{"internalType":"uint256","name":"loanAmount","type":"uint256"},{"internalType":"uint256","name":"repayAmount","type":"uint256"},{"internalType":"address","name":"collateralToken","type":"address"},{"internalType":"uint256","name":"collateralAmount","type":"uint256"},{"internalType":"uint256","name":"dueTimestamp","type":"uint256"}],"name":"requestLoan","outputs":[],"stateMutability":"nonpayable","type":"function"},{"inputs":[{"internalType":"uint256","name":"newFeeBps","type":"uint256"}],"name":"setPlatformFee","outputs":[],"stateMutability":"nonpayable","type":"function"},{"inputs":[{"internalType":"address","name":"newOwner","type":"address"}],"name":"transferOwnership","outputs":[],"stateMutability":"nonpayable","type":"function"},{"inputs":[{"internalType":"address","name":"","type":"address"},{"internalType":"uint256","name":"","type":"uint256"}],"name":"userLoans","outputs":[{"internalType":"string","name":"","type":"string"}],"stateMutability":"view","type":"function"},{"inputs":[{"internalType":"address","name":"token","type":"address"}],"name":"withdrawFees","outputs":[],"stateMutability":"nonpayable","type":"function"}],"evm":{"bytecode":{"linkReferences":{},"object":"60808060405234607e57331560685760008054336001600160a01b0319821681178355916001600160a01b03909116907f8be0079c531659141344cd1fd0a4f28419497f9722a3daafe3b4186f6b6457e09080a360018055600a600455611e3490816100848239f35b631e4fbdf760e01b600052600060045260246000fd5b600080fdfe608080604052600436101561001357600080fd5b60003560e01c90816302bf321f146117d057508063035dc3d91461146757806312e8e2c31461140a578063164e68de1461132457806318a1cc09146111725780631cead9a71461113857806322dcd13e1461111a578063513099c614610fe15780635c396ed714610b33578063715018a614610ada57806389d99a0514610abc5780638da5cb5b14610a9357806396fa212f14610a75578063c47d25861461083f578063c6141f6314610717578063c70f2e2b14610574578063d8bad5bd146104f0578063d947bee41461017e5763f2fde38b146100f057600080fd5b34610179576020366003190112610179576101096118d5565b610111611dd5565b6001600160a01b0316801561016357600080546001600160a01b03198116831782556001600160a01b0316907f8be0079c531659141344cd1fd0a4f28419497f9722a3daafe3b4186f6b6457e09080a3005b631e4fbdf760e01b600052600060045260246000fd5b600080fd5b34610179576020366003190112610179576004356001600160401b038111610179576101ae903690600401611970565b6101b6611db3565b60405160ff6009835192602081818701956101d28183896118eb565b8101600281520301902001541660058110156104da57610209916101f860209215611b2b565b6040518093819286519283916118eb565b81016002815203019020600381019060018060a01b03825416600482019283549061271061023960045484611b6d565b0491610278602061024a8584611b80565b6040516323b872dd60e01b815233600482015230602482015260448101949094529291829081906064820190565b03816000895af1908115610413576000916104bb575b501561047e57826020926102e29461041f575b505060018501805460405163a9059cbb60e01b81526001600160a01b0390911660048201526024810192909252939092839190829060009082906044820190565b03925af1908115610413576000916103e4575b501561039557816002610363930160018060a01b0333166bffffffffffffffffffffffff60a01b82541617905560098101600160ff19825416179055600b4291015533600052600360205261034e846040600020611d81565b549154926001600160a01b0390921691611bfe565b6040519283527fdcb74595a412006c9aad3b7ae905952ef1e2c5b1d9e7b1046cde54bfb809360a60203394a460018055005b60405162461bcd60e51b815260206004820152602160248201527f546f6b656e207472616e7366657220746f20626f72726f776572206661696c656044820152601960fa1b6064820152608490fd5b610406915060203d60201161040c575b6103fe818361194f565b810190611b8d565b856102f5565b503d6103f4565b6040513d6000823e3d90fd5b837f06c5efeff5c320943d265dc4e5f1af95ad523555ce0c1957e367dda5514572df9160018060a01b03815416600052600582526040600020610463858254611ba5565b9055546040519384526001600160a01b031692a287806102a1565b60405162461bcd60e51b8152602060048201526015602482015274151bdad95b881d1c985b9cd9995c8819985a5b1959605a1b6044820152606490fd5b6104d4915060203d60201161040c576103fe818361194f565b8861028e565b634e487b7160e01b600052602160045260246000fd5b34610179576040366003190112610179576105096118d5565b6001600160a01b031660009081526003602052604090208054602435908110156101795761053691611ab1565b61055e5761054661055a91611a0d565b60405191829160208352602083019061190e565b0390f35b634e487b7160e01b600052600060045260246000fd5b34610179576020366003190112610179576004356001600160401b038111610179576105a4903690600401611970565b6105ac611db3565b6040516105e6825191600160208501936105c78184876118eb565b82019160028352602081838060a01b0394030190200154163314611adf565b60ff600960405160208186516105fd8183896118eb565b8101600281520301902001541660058110156104da5761063860206106a793610627829415611b2b565b6040518093819288519283916118eb565b60029082019081520301902060098101805460ff1916600490811790915542600c8301556006820154600183015460079093015460405163a9059cbb60e01b81526001600160a01b03948516938101939093526024830152909384929190911690829060009082906044820190565b03925af18015610413576106c3916000916106f8575b50611bb2565b6106cd3391611bfe565b7fe64b74c222b0e5d5c4f084fd3f5a27b69274a73d3b805b014653748a5e09f06c600080a360018055005b610711915060203d60201161040c576103fe818361194f565b836106bd565b34610179576020366003190112610179576004356001600160401b03811161017957610747903690600401611970565b604051818180935160208193019161075e926118eb565b81016002815203602001902061077381611a0d565b6001820154600283015460038401546004850154600586015460068701546007880154600889015460098a0154600a8b0154600b8c0154600c909c01546040516101a0808252909d8e9d8e9d939c919b949a60ff9096169996986001600160a01b03908116979695811694928116939216916107f291908f019061190e565b9c6020015260408d015260608c015260808b015260a08a015260c089015260e08801526101008701526101208601610829916119c6565b6101408501526101608401526101808301520390f35b34610179576020366003190112610179576004356001600160401b0381116101795761086f903690600401611970565b60405161087b81611933565b60608152602081016000905260408101600090526060810160009052608081016000905260a081016000905260c081016000905260e0810160009052610100810160009052610120810160009052610140810160009052610160810160009052610180016000905260405181818093516020819301916108fa926118eb565b81016002815203602001902060405161091281611933565b61091b82611a0d565b815260018201546001600160a01b039081166020830190815260028401548216604084019081526003850154831660608501908152600486015460808601908152600587015460a08701908152600688015490951660c08701908152600788015460e088019081526008890154610100890190815260098a01549599969794969593946101208a01949193916109b49060ff1686611c6a565b600a870154956101408b01968752600b880154976101608c01988952600c0154986101808c01998a526040519c8d809d6020825251602082016101a090526101c08201610a009161190e565b9c516001600160a01b039081166040909201919091529051811660608e01529051811660808d0152905160a08c0152905160c08b015290511660e0890152516101008801525161012087015251610a5c906101408701906119c6565b5161016085015251610180840152516101a08301520390f35b34610179576000366003190112610179576020604051620f42408152f35b34610179576000366003190112610179576000546040516001600160a01b039091168152602090f35b34610179576000366003190112610179576020604051620151808152f35b3461017957600036600319011261017957610af3611dd5565b600080546001600160a01b0319811682556001600160a01b03167f8be0079c531659141344cd1fd0a4f28419497f9722a3daafe3b4186f6b6457e08280a3005b346101795760e0366003190112610179576004356001600160401b03811161017957610b63903690600401611970565b6024356001600160a01b0381168103610179576084356001600160a01b038116908190036101795760a435610b96611db3565b835115610faa5760405160018551610bb2818460208a016118eb565b82019160028352602081838060a01b039403019020015416610f6c57620f424060443510610f2f576044356064351115610ed4578015610e9657620151804201804211610e805760c4351115610e42576040516323b872dd60e01b8152336004820152306024820152604481018290526020816064816000875af1801561041357610c4591600091610e23575b50611c1e565b60405191610c5283611933565b8483523360208401526000604084015260018060a01b0384166060840152604435608084015260643560a084015260c083015260e082015260c4356101008201526000610120820152426101408201526000610160820152610180810192600084526040516020818351610cc981838588016118eb565b81016002815203019020610cde835182611c76565b60208301516001820180546001600160a01b03199081166001600160a01b039384161790915560408501516002840180548316918416919091179055606085015160038401805483169184169190911790556080850151600484015560a085015160058085019190915560c0860151600685018054909316931692909217905560e084015160078301556101008401516008830155610120840151956009830194918710156104da57610160600c92610dd09660009960ff80198354169116179055610140810151600a8601550151600b840155519101553384526003602052610dcb8160408620611d81565b611bfe565b6040519160018060a01b031682526044356020830152606435604083015260c43560608301527f1d5dfe67e28fff937a5d2a995f0c5d7b0ddbd4705c2dfdab322a870d227dd06660803393a36001805580f35b610e3c915060203d60201161040c576103fe818361194f565b86610c3f565b60405162461bcd60e51b8152602060048201526016602482015275223ab2903a34b6b2b9ba30b6b8103a37b79039b7b7b760511b6044820152606490fd5b634e487b7160e01b600052601160045260246000fd5b60405162461bcd60e51b8152602060048201526016602482015275139bc818dbdb1b185d195c985b081c1c9bdd9a59195960521b6044820152606490fd5b60405162461bcd60e51b815260206004820152602d60248201527f526570617920616d6f756e74206d75737420626520677265617465722074686160448201526c1b881b1bd85b88185b5bdd5b9d609a1b6064820152608490fd5b60405162461bcd60e51b8152602060048201526015602482015274131bd85b88185b5bdd5b9d081d1bdbc81cdb585b1b605a1b6044820152606490fd5b60405162461bcd60e51b81526020600482015260166024820152754c6f616e20494420616c72656164792065786973747360501b6044820152606490fd5b60405162461bcd60e51b815260206004820152600f60248201526e125b9d985b1a59081b1bd85b881251608a1b6044820152606490fd5b34610179576020366003190112610179576004356001600160401b038111610179576020611016611029923690600401611970565b81604051938285809451938492016118eb565b810160028152030190206040519061104082611933565b61104981611a0d565b825260018101546001600160a01b03908116602084015260028201548116604084015260038201548116606084015260048201546080840152600582015460a084015260068201541660c0830152600781015460e08301526008810154610100830190815260098201549092610120810192909161018091600c916110d19060ff1686611c6a565b600a810154610140850152600b8101546101608501520154910152519060058210156104da57600160209214908161110f575b506040519015158152f35b905051421182611104565b34610179576000366003190112610179576020600454604051908152f35b34610179576020366003190112610179576001600160a01b036111596118d5565b1660005260056020526020604060002054604051908152f35b34610179576020366003190112610179576004356001600160401b038111610179576111a2903690600401611970565b6111aa611db3565b60405160ff6009835192602081818701956111c68183896118eb565b8101600281520301902001541660058110156104da576111ee916101f8600160209314611b2b565b810160028152030190209060088201544211156112e857600682015460028301805460078501805460405163a9059cbb60e01b81526001600160a01b039384166004820152602481019190915290959390929160209184916044918391600091165af1908115610413577ff1b8949e4896d4133c11d16389f3c895052aea3f32798e8fd296115d24a9884c936112916112bd936020956000916112cb5750611c1e565b60098101805460ff1916600317905542600c909101555494546001600160a01b03959095169493611bfe565b92604051908152a360018055005b6112e29150863d881161040c576103fe818361194f565b89610c3f565b60405162461bcd60e51b8152602060048201526014602482015273131bd85b881b9bdd081bdd995c991d59481e595d60621b6044820152606490fd5b346101795760203660031901126101795761133d6118d5565b611345611dd5565b6001600160a01b03166000818152600560205260409020549081156113cf5760008181526005602090815260408083208390558254905163a9059cbb60e01b81526001600160a01b03909116600482015260248101949094529183916044918391905af18015610413576113b557005b6113cd9060203d60201161040c576103fe818361194f565b005b60405162461bcd60e51b81526020600482015260136024820152724e6f206665657320746f20776974686472617760681b6044820152606490fd5b3461017957602036600319011261017957600435611426611dd5565b6064811161143357600455005b60405162461bcd60e51b815260206004820152600c60248201526b08ccaca40e8dede40d0d2ced60a31b6044820152606490fd5b34610179576020366003190112610179576004356001600160401b03811161017957611497903690600401611970565b61149f611db3565b6040516114ba825191600160208501936105c78184876118eb565b60ff600960405160208186516114d18183896118eb565b8101600281520301902001541660058110156104da576114f9916101f8600160209314611b2b565b810160028152030190206003810160018060a01b038154166005830191825461271061152760045483611b6d565b049261156660206115388685611b80565b6040516323b872dd60e01b815233600482015230602482015260448101959095529391829081906064820190565b03816000865af1908115610413576000916117b1575b501561177957836020936115ce9561171a575b5050600286015460405163a9059cbb60e01b81526001600160a01b03909116600482015260248101929092529092839190829060009082906044820190565b03925af1908115610413576000916116fb575b50156116b65760068201546001830154600784015460405163a9059cbb60e01b81526001600160a01b0392831660048201526024810191909152939160209185916044918391600091165af19283156104135761166593611649916000916116975750611bb2565b60098101600260ff19825416179055600c429101555491611bfe565b6040519182527fffe64c5ec0aefbe73dc8a169259738e2b8cb8a537f6dce448f1e932db6f2047960203393a360018055005b6116b0915060203d60201161040c576103fe818361194f565b866106bd565b60405162461bcd60e51b815260206004820152601960248201527f5472616e7366657220746f206c656e646572206661696c6564000000000000006044820152606490fd5b611714915060203d60201161040c576103fe818361194f565b846115e1565b847f06c5efeff5c320943d265dc4e5f1af95ad523555ce0c1957e367dda5514572df9160018060a01b0381541660005260058252604060002061175e858254611ba5565b9055546040519384526001600160a01b031692a2878061158f565b60405162461bcd60e51b815260206004820152601060248201526f14995c185e5b595b9d0819985a5b195960821b6044820152606490fd5b6117ca915060203d60201161040c576103fe818361194f565b8861157c565b34610179576020366003190112610179576001600160a01b036117f16118d5565b166000526003602052604060002080546001600160401b0381116118bf5761181f60208260051b018461194f565b80835260208301809260005260206000206000915b8383106118a257848660405191829160208301906020845251809152604083019060408160051b85010192916000905b82821061187357505050500390f35b919360019193955060206118928192603f198a8203018652885161190e565b9601920192018594939192611864565b6001602081926118b185611a0d565b815201920192019190611834565b634e487b7160e01b600052604160045260246000fd5b600435906001600160a01b038216820361017957565b60005b8381106118fe5750506000910152565b81810151838201526020016118ee565b90602091611927815180928185528580860191016118eb565b601f01601f1916010190565b6101a081019081106001600160401b038211176118bf57604052565b90601f801991011681019081106001600160401b038211176118bf57604052565b81601f82011215610179578035906001600160401b0382116118bf57604051926119a4601f8401601f19166020018561194f565b8284526020838301011161017957816000926020809301838601378301015290565b9060058210156104da5752565b90600182811c92168015611a03575b60208310146119ed57565b634e487b7160e01b600052602260045260246000fd5b91607f16916119e2565b9060405191826000825492611a21846119d3565b8084529360018116908115611a8f5750600114611a48575b50611a469250038361194f565b565b90506000929192526020600020906000915b818310611a73575050906020611a469282010138611a39565b6020919350806001915483858901015201910190918492611a5a565b905060209250611a4694915060ff191682840152151560051b82010138611a39565b8054821015611ac95760005260206000200190600090565b634e487b7160e01b600052603260045260246000fd5b15611ae657565b60405162461bcd60e51b815260206004820152601b60248201527f4f6e6c7920626f72726f7765722063616e2063616c6c207468697300000000006044820152606490fd5b15611b3257565b60405162461bcd60e51b8152602060048201526013602482015272496e76616c6964206c6f616e2073746174757360681b6044820152606490fd5b81810292918115918404141715610e8057565b91908203918211610e8057565b90816020910312610179575180151581036101795790565b91908201809211610e8057565b15611bb957565b60405162461bcd60e51b815260206004820152601860248201527f436f6c6c61746572616c2072657475726e206661696c656400000000000000006044820152606490fd5b611c16906020604051928284809451938492016118eb565b810103902090565b15611c2557565b60405162461bcd60e51b815260206004820152601a60248201527f436f6c6c61746572616c207472616e73666572206661696c65640000000000006044820152606490fd5b60058210156104da5752565b91909182516001600160401b0381116118bf57611c9382546119d3565b601f8111611d39575b506020601f8211600114611cd75781929394600092611ccc575b50508160011b916000199060031b1c1916179055565b015190503880611cb6565b601f1982169083600052806000209160005b818110611d2157509583600195969710611d08575b505050811b019055565b015160001960f88460031b161c19169055388080611cfe565b9192602060018192868b015181550194019201611ce9565b826000526020600020601f830160051c81019160208410611d77575b601f0160051c01905b818110611d6b5750611c9c565b60008155600101611d5e565b9091508190611d55565b8054680100000000000000008110156118bf57611da391600182018155611ab1565b91909161055e57611a4691611c76565b600260015414611dc4576002600155565b633ee5aeb560e01b60005260046000fd5b6000546001600160a01b03163303611de957565b63118cdaa760e01b6000523360045260246000fdfea2646970667358221220fccf569055be38fdc0300de65288b74bae171d4e2484a72f61b80050084b9af564736f6c634300081b0033","opcodes":"PUSH1 0x80 DUP1 PUSH1 0x40 MSTORE CALLVALUE PUSH1 0x7E JUMPI CALLER ISZERO PUSH1 0x68 JUMPI PUSH1 0x0 DUP1 SLOAD CALLER PUSH1 0x1 PUSH1 0x1 PUSH1 0xA0 SHL SUB NOT DUP3 AND DUP2 OR DUP4 SSTORE SWAP2 PUSH1 0x1 PUSH1 0x1 PUSH1 0xA0 SHL SUB SWAP1 SWAP2 AND SWAP1 PUSH32 0x8BE0079C531659141344CD1FD0A4F28419497F9722A3DAAFE3B4186F6B6457E0 SWAP1 DUP1 LOG3 PUSH1 0x1 DUP1 SSTORE PUSH1 0xA PUSH1 0x4 SSTORE PUSH2 0x1E34 SWAP1 DUP2 PUSH2 0x84 DUP3 CODECOPY RETURN JUMPDEST PUSH4 0x1E4FBDF7 PUSH1 0xE0 SHL PUSH1 0x0 MSTORE PUSH1 0x0 PUSH1 0x4 MSTORE PUSH1 0x24 PUSH1 0x0 REVERT JUMPDEST PUSH1 0x0 DUP1 REVERT INVALID PUSH1 0x80 DUP1 PUSH1 0x40 MSTORE PUSH1 0x4 CALLDATASIZE LT ISZERO PUSH2 0x13 JUMPI PUSH1 0x0 DUP1 REVERT JUMPDEST PUSH1 0x0 CALLDATALOAD PUSH1 0xE0 SHR SWAP1 DUP2 PUSH4 0x2BF321F EQ PUSH2 0x17D0 JUMPI POP DUP1 PUSH4 0x35DC3D9 EQ PUSH2 0x1467 JUMPI DUP1 PUSH4 0x12E8E2C3 EQ PUSH2 0x140A JUMPI DUP1 PUSH4 0x164E68DE EQ PUSH2 0x1324 JUMPI DUP1 PUSH4 0x18A1CC09 EQ PUSH2 0x1172 JUMPI DUP1 PUSH4 0x1CEAD9A7 EQ PUSH2 0x1138 JUMPI DUP1 PUSH4 0x22DCD13E EQ PUSH2 0x111A JUMPI DUP1 PUSH4 0x513099C6 EQ PUSH2 0xFE1 JUMPI DUP1 PUSH4 0x5C396ED7 EQ PUSH2 0xB33 JUMPI DUP1 PUSH4 0x715018A6 EQ PUSH2 0xADA JUMPI DUP1 PUSH4 0x89D99A05 EQ PUSH2 0xABC JUMPI DUP1 PUSH4 0x8DA5CB5B EQ PUSH2 0xA93 JUMPI DUP1 PUSH4 0x96FA212F EQ PUSH2 0xA75 JUMPI DUP1 PUSH4 0xC47D2586 EQ PUSH2 0x83F JUMPI DUP1 PUSH4 0xC6141F63 EQ PUSH2 0x717 JUMPI DUP1 PUSH4 0xC70F2E2B EQ PUSH2 0x574 JUMPI DUP1 PUSH4 0xD8BAD5BD EQ PUSH2 0x4F0 JUMPI DUP1 PUSH4 0xD947BEE4 EQ PUSH2 0x17E JUMPI PUSH4 0xF2FDE38B EQ PUSH2 0xF0 JUMPI PUSH1 0x0 DUP1 REVERT JUMPDEST CALLVALUE PUSH2 0x179 JUMPI PUSH1 0x20 CALLDATASIZE PUSH1 0x3 NOT ADD SLT PUSH2 0x179 JUMPI PUSH2 0x109 PUSH2 0x18D5 JUMP JUMPDEST PUSH2 0x111 PUSH2 0x1DD5 JUMP JUMPDEST PUSH1 0x1 PUSH1 0x1 PUSH1 0xA0 SHL SUB AND DUP1 ISZERO PUSH2 0x163 JUMPI PUSH1 0x0 DUP1 SLOAD PUSH1 0x1 PUSH1 0x1 PUSH1 0xA0 SHL SUB NOT DUP2 AND DUP4 OR DUP3 SSTORE PUSH1 0x1 PUSH1 0x1 PUSH1 0xA0 SHL SUB AND SWAP1 PUSH32 0x8BE0079C531659141344CD1FD0A4F28419497F9722A3DAAFE3B4186F6B6457E0 SWAP1 DUP1 LOG3 STOP JUMPDEST PUSH4 0x1E4FBDF7 PUSH1 0xE0 SHL PUSH1 0x0 MSTORE PUSH1 0x0 PUSH1 0x4 MSTORE PUSH1 0x24 PUSH1 0x0 REVERT JUMPDEST PUSH1 0x0 DUP1 REVERT JUMPDEST CALLVALUE PUSH2 0x179 JUMPI PUSH1 0x20 CALLDATASIZE PUSH1 0x3 NOT ADD SLT PUSH2 0x179 JUMPI PUSH1 0x4 CALLDATALOAD PUSH1 0x1 PUSH1 0x1 PUSH1 0x40 SHL SUB DUP2 GT PUSH2 0x179 JUMPI PUSH2 0x1AE SWAP1 CALLDATASIZE SWAP1 PUSH1 0x4 ADD PUSH2 0x1970 JUMP JUMPDEST PUSH2 0x1B6 PUSH2 0x1DB3 JUMP JUMPDEST PUSH1 0x40 MLOAD PUSH1 0xFF PUSH1 0x9 DUP4 MLOAD SWAP3 PUSH1 0x20 DUP2 DUP2 DUP8 ADD SWAP6 PUSH2 0x1D2 DUP2 DUP4 DUP10 PUSH2 0x18EB JUMP JUMPDEST DUP2 ADD PUSH1 0x2 DUP2 MSTORE SUB ADD SWAP1 KECCAK256 ADD SLOAD AND PUSH1 0x5 DUP2 LT ISZERO PUSH2 0x4DA JUMPI PUSH2 0x209 SWAP2 PUSH2 0x1F8 PUSH1 0x20 SWAP3 ISZERO PUSH2 0x1B2B JUMP JUMPDEST PUSH1 0x40 MLOAD DUP1 SWAP4 DUP2 SWAP3 DUP7 MLOAD SWAP3 DUP4 SWAP2 PUSH2 0x18EB JUMP JUMPDEST DUP2 ADD PUSH1 0x2 DUP2 MSTORE SUB ADD SWAP1 KECCAK256 PUSH1 0x3 DUP2 ADD SWAP1 PUSH1 0x1 DUP1 PUSH1 0xA0 SHL SUB DUP3 SLOAD AND PUSH1 0x4 DUP3 ADD SWAP3 DUP4 SLOAD SWAP1 PUSH2 0x2710 PUSH2 0x239 PUSH1 0x4 SLOAD DUP5 PUSH2 0x1B6D JUMP JUMPDEST DIV SWAP2 PUSH2 0x278 PUSH1 0x20 PUSH2 0x24A DUP6 DUP5 PUSH2 0x1B80 JUMP JUMPDEST PUSH1 0x40 MLOAD PUSH4 0x23B872DD PUSH1 0xE0 SHL DUP2 MSTORE CALLER PUSH1 0x4 DUP3 ADD MSTORE ADDRESS PUSH1 0x24 DUP3 ADD MSTORE PUSH1 0x44 DUP2 ADD SWAP5 SWAP1 SWAP5 MSTORE SWAP3 SWAP2 DUP3 SWAP1 DUP2 SWAP1 PUSH1 0x64 DUP3 ADD SWAP1 JUMP JUMPDEST SUB DUP2 PUSH1 0x0 DUP10 GAS CALL SWAP1 DUP2 ISZERO PUSH2 0x413 JUMPI PUSH1 0x0 SWAP2 PUSH2 0x4BB JUMPI JUMPDEST POP ISZERO PUSH2 0x47E JUMPI DUP3 PUSH1 0x20 SWAP3 PUSH2 0x2E2 SWAP5 PUSH2 0x41F JUMPI JUMPDEST POP POP PUSH1 0x1 DUP6 ADD DUP1 SLOAD PUSH1 0x40 MLOAD PUSH4 0xA9059CBB PUSH1 0xE0 SHL DUP2 MSTORE PUSH1 0x1 PUSH1 0x1 PUSH1 0xA0 SHL SUB SWAP1 SWAP2 AND PUSH1 0x4 DUP3 ADD MSTORE PUSH1 0x24 DUP2 ADD SWAP3 SWAP1 SWAP3 MSTORE SWAP4 SWAP1 SWAP3 DUP4 SWAP2 SWAP1 DUP3 SWAP1 PUSH1 0x0 SWAP1 DUP3 SWAP1 PUSH1 0x44 DUP3 ADD SWAP1 JUMP JUMPDEST SUB SWAP3 GAS CALL SWAP1 DUP2 ISZERO PUSH2 0x413 JUMPI PUSH1 0x0 SWAP2 PUSH2 0x3E4 JUMPI JUMPDEST POP ISZERO PUSH2 0x395 JUMPI DUP2 PUSH1 0x2 PUSH2 0x363 SWAP4 ADD PUSH1 0x1 DUP1 PUSH1 0xA0 SHL SUB CALLER AND PUSH12 0xFFFFFFFFFFFFFFFFFFFFFFFF PUSH1 0xA0 SHL DUP3 SLOAD AND OR SWAP1 SSTORE PUSH1 0x9 DUP2 ADD PUSH1 0x1 PUSH1 0xFF NOT DUP3 SLOAD AND OR SWAP1 SSTORE PUSH1 0xB TIMESTAMP SWAP2 ADD SSTORE CALLER PUSH1 0x0 MSTORE PUSH1 0x3 PUSH1 0x20 MSTORE PUSH2 0x34E DUP5 PUSH1 0x40 PUSH1 0x0 KECCAK256 PUSH2 0x1D81 JUMP JUMPDEST SLOAD SWAP2 SLOAD SWAP3 PUSH1 0x1 PUSH1 0x1 PUSH1 0xA0 SHL SUB SWAP1 SWAP3 AND SWAP2 PUSH2 0x1BFE JUMP JUMPDEST PUSH1 0x40 MLOAD SWAP3 DUP4 MSTORE PUSH32 0xDCB74595A412006C9AAD3B7AE905952EF1E2C5B1D9E7B1046CDE54BFB809360A PUSH1 0x20 CALLER SWAP5 LOG4 PUSH1 0x1 DUP1 SSTORE STOP JUMPDEST PUSH1 0x40 MLOAD PUSH3 0x461BCD PUSH1 0xE5 SHL DUP2 MSTORE PUSH1 0x20 PUSH1 0x4 DUP3 ADD MSTORE PUSH1 0x21 PUSH1 0x24 DUP3 ADD MSTORE PUSH32 0x546F6B656E207472616E7366657220746F20626F72726F776572206661696C65 PUSH1 0x44 DUP3 ADD MSTORE PUSH1 0x19 PUSH1 0xFA SHL PUSH1 0x64 DUP3 ADD MSTORE PUSH1 0x84 SWAP1 REVERT JUMPDEST PUSH2 0x406 SWAP2 POP PUSH1 0x20 RETURNDATASIZE PUSH1 0x20 GT PUSH2 0x40C JUMPI JUMPDEST PUSH2 0x3FE DUP2 DUP4 PUSH2 0x194F JUMP JUMPDEST DUP2 ADD SWAP1 PUSH2 0x1B8D JUMP JUMPDEST DUP6 PUSH2 0x2F5 JUMP JUMPDEST POP RETURNDATASIZE PUSH2 0x3F4 JUMP JUMPDEST PUSH1 0x40 MLOAD RETURNDATASIZE PUSH1 0x0 DUP3 RETURNDATACOPY RETURNDATASIZE SWAP1 REVERT JUMPDEST DUP4 PUSH32 0x6C5EFEFF5C320943D265DC4E5F1AF95AD523555CE0C1957E367DDA5514572DF SWAP2 PUSH1 0x1 DUP1 PUSH1 0xA0 SHL SUB DUP2 SLOAD AND PUSH1 0x0 MSTORE PUSH1 0x5 DUP3 MSTORE PUSH1 0x40 PUSH1 0x0 KECCAK256 PUSH2 0x463 DUP6 DUP3 SLOAD PUSH2 0x1BA5 JUMP JUMPDEST SWAP1 SSTORE SLOAD PUSH1 0x40 MLOAD SWAP4 DUP5 MSTORE PUSH1 0x1 PUSH1 0x1 PUSH1 0xA0 SHL SUB AND SWAP3 LOG2 DUP8 DUP1 PUSH2 0x2A1 JUMP JUMPDEST PUSH1 0x40 MLOAD PUSH3 0x461BCD PUSH1 0xE5 SHL DUP2 MSTORE PUSH1 0x20 PUSH1 0x4 DUP3 ADD MSTORE PUSH1 0x15 PUSH1 0x24 DUP3 ADD MSTORE PUSH21 0x151BDAD95B881D1C985B9CD9995C8819985A5B1959 PUSH1 0x5A SHL PUSH1 0x44 DUP3 ADD MSTORE PUSH1 0x64 SWAP1 REVERT JUMPDEST PUSH2 0x4D4 SWAP2 POP PUSH1 0x20 RETURNDATASIZE PUSH1 0x20 GT PUSH2 0x40C JUMPI PUSH2 0x3FE DUP2 DUP4 PUSH2 0x194F JUMP JUMPDEST DUP9 PUSH2 0x28E JUMP JUMPDEST PUSH4 0x4E487B71 PUSH1 0xE0 SHL PUSH1 0x0 MSTORE PUSH1 0x21 PUSH1 0x4 MSTORE PUSH1 0x24 PUSH1 0x0 REVERT JUMPDEST CALLVALUE PUSH2 0x179 JUMPI PUSH1 0x40 CALLDATASIZE PUSH1 0x3 NOT ADD SLT PUSH2 0x179 JUMPI PUSH2 0x509 PUSH2 0x18D5 JUMP JUMPDEST PUSH1 0x1 PUSH1 0x1 PUSH1 0xA0 SHL SUB AND PUSH1 0x0 SWAP1 DUP2 MSTORE PUSH1 0x3 PUSH1 0x20 MSTORE PUSH1 0x40 SWAP1 KECCAK256 DUP1 SLOAD PUSH1 0x24 CALLDATALOAD SWAP1 DUP2 LT ISZERO PUSH2 0x179 JUMPI PUSH2 0x536 SWAP2 PUSH2 0x1AB1 JUMP JUMPDEST PUSH2 0x55E JUMPI PUSH2 0x546 PUSH2 0x55A SWAP2 PUSH2 0x1A0D JUMP JUMPDEST PUSH1 0x40 MLOAD SWAP2 DUP3 SWAP2 PUSH1 0x20 DUP4 MSTORE PUSH1 0x20 DUP4 ADD SWAP1 PUSH2 0x190E JUMP JUMPDEST SUB SWAP1 RETURN JUMPDEST PUSH4 0x4E487B71 PUSH1 0xE0 SHL PUSH1 0x0 MSTORE PUSH1 0x0 PUSH1 0x4 MSTORE PUSH1 0x24 PUSH1 0x0 REVERT JUMPDEST CALLVALUE PUSH2 0x179 JUMPI PUSH1 0x20 CALLDATASIZE PUSH1 0x3 NOT ADD SLT PUSH2 0x179 JUMPI PUSH1 0x4 CALLDATALOAD PUSH1 0x1 PUSH1 0x1 PUSH1 0x40 SHL SUB DUP2 GT PUSH2 0x179 JUMPI PUSH2 0x5A4 SWAP1 CALLDATASIZE SWAP1 PUSH1 0x4 ADD PUSH2 0x1970 JUMP JUMPDEST PUSH2 0x5AC PUSH2 0x1DB3 JUMP JUMPDEST PUSH1 0x40 MLOAD PUSH2 0x5E6 DUP3 MLOAD SWAP2 PUSH1 0x1 PUSH1 0x20 DUP6 ADD SWAP4 PUSH2 0x5C7 DUP2 DUP5 DUP8 PUSH2 0x18EB JUMP JUMPDEST DUP3 ADD SWAP2 PUSH1 0x2 DUP4 MSTORE PUSH1 0x20 DUP2 DUP4 DUP1 PUSH1 0xA0 SHL SUB SWAP5 SUB ADD SWAP1 KECCAK256 ADD SLOAD AND CALLER EQ PUSH2 0x1ADF JUMP JUMPDEST PUSH1 0xFF PUSH1 0x9 PUSH1 0x40 MLOAD PUSH1 0x20 DUP2 DUP7 MLOAD PUSH2 0x5FD DUP2 DUP4 DUP10 PUSH2 0x18EB JUMP JUMPDEST DUP2 ADD PUSH1 0x2 DUP2 MSTORE SUB ADD SWAP1 KECCAK256 ADD SLOAD AND PUSH1 0x5 DUP2 LT ISZERO PUSH2 0x4DA JUMPI PUSH2 0x638 PUSH1 0x20 PUSH2 0x6A7 SWAP4 PUSH2 0x627 DUP3 SWAP5 ISZERO PUSH2 0x1B2B JUMP JUMPDEST PUSH1 0x40 MLOAD DUP1 SWAP4 DUP2 SWAP3 DUP9 MLOAD SWAP3 DUP4 SWAP2 PUSH2 0x18EB JUMP JUMPDEST PUSH1 0x2 SWAP1 DUP3 ADD SWAP1 DUP2 MSTORE SUB ADD SWAP1 KECCAK256 PUSH1 0x9 DUP2 ADD DUP1 SLOAD PUSH1 0xFF NOT AND PUSH1 0x4 SWAP1 DUP2 OR SWAP1 SWAP2 SSTORE TIMESTAMP PUSH1 0xC DUP4 ADD SSTORE PUSH1 0x6 DUP3 ADD SLOAD PUSH1 0x1 DUP4 ADD SLOAD PUSH1 0x7 SWAP1 SWAP4 ADD SLOAD PUSH1 0x40 MLOAD PUSH4 0xA9059CBB PUSH1 0xE0 SHL DUP2 MSTORE PUSH1 0x1 PUSH1 0x1 PUSH1 0xA0 SHL SUB SWAP5 DUP6 AND SWAP4 DUP2 ADD SWAP4 SWAP1 SWAP4 MSTORE PUSH1 0x24 DUP4 ADD MSTORE SWAP1 SWAP4 DUP5 SWAP3 SWAP2 SWAP1 SWAP2 AND SWAP1 DUP3 SWAP1 PUSH1 0x0 SWAP1 DUP3 SWAP1 PUSH1 0x44 DUP3 ADD SWAP1 JUMP JUMPDEST SUB SWAP3 GAS CALL DUP1 ISZERO PUSH2 0x413 JUMPI PUSH2 0x6C3 SWAP2 PUSH1 0x0 SWAP2 PUSH2 0x6F8 JUMPI JUMPDEST POP PUSH2 0x1BB2 JUMP JUMPDEST PUSH2 0x6CD CALLER SWAP2 PUSH2 0x1BFE JUMP JUMPDEST PUSH32 0xE64B74C222B0E5D5C4F084FD3F5A27B69274A73D3B805B014653748A5E09F06C PUSH1 0x0 DUP1 LOG3 PUSH1 0x1 DUP1 SSTORE STOP JUMPDEST PUSH2 0x711 SWAP2 POP PUSH1 0x20 RETURNDATASIZE PUSH1 0x20 GT PUSH2 0x40C JUMPI PUSH2 0x3FE DUP2 DUP4 PUSH2 0x194F JUMP JUMPDEST DUP4 PUSH2 0x6BD JUMP JUMPDEST CALLVALUE PUSH2 0x179 JUMPI PUSH1 0x20 CALLDATASIZE PUSH1 0x3 NOT ADD SLT PUSH2 0x179 JUMPI PUSH1 0x4 CALLDATALOAD PUSH1 0x1 PUSH1 0x1 PUSH1 0x40 SHL SUB DUP2 GT PUSH2 0x179 JUMPI PUSH2 0x747 SWAP1 CALLDATASIZE SWAP1 PUSH1 0x4 ADD PUSH2 0x1970 JUMP JUMPDEST PUSH1 0x40 MLOAD DUP2 DUP2 DUP1 SWAP4 MLOAD PUSH1 0x20 DUP2 SWAP4 ADD SWAP2 PUSH2 0x75E SWAP3 PUSH2 0x18EB JUMP JUMPDEST DUP2 ADD PUSH1 0x2 DUP2 MSTORE SUB PUSH1 0x20 ADD SWAP1 KECCAK256 PUSH2 0x773 DUP2 PUSH2 0x1A0D JUMP JUMPDEST PUSH1 0x1 DUP3 ADD SLOAD PUSH1 0x2 DUP4 ADD SLOAD PUSH1 0x3 DUP5 ADD SLOAD PUSH1 0x4 DUP6 ADD SLOAD PUSH1 0x5 DUP7 ADD SLOAD PUSH1 0x6 DUP8 ADD SLOAD PUSH1 0x7 DUP9 ADD SLOAD PUSH1 0x8 DUP10 ADD SLOAD PUSH1 0x9 DUP11 ADD SLOAD PUSH1 0xA DUP12 ADD SLOAD PUSH1 0xB DUP13 ADD SLOAD PUSH1 0xC SWAP1 SWAP13 ADD SLOAD PUSH1 0x40 MLOAD PUSH2 0x1A0 DUP1 DUP3 MSTORE SWAP1 SWAP14 DUP15 SWAP14 DUP15 SWAP14 SWAP4 SWAP13 SWAP2 SWAP12 SWAP5 SWAP11 PUSH1 0xFF SWAP1 SWAP7 AND SWAP10 SWAP7 SWAP9 PUSH1 0x1 PUSH1 0x1 PUSH1 0xA0 SHL SUB SWAP1 DUP2 AND SWAP8 SWAP7 SWAP6 DUP2 AND SWAP5 SWAP3 DUP2 AND SWAP4 SWAP3 AND SWAP2 PUSH2 0x7F2 SWAP2 SWAP1 DUP16 ADD SWAP1 PUSH2 0x190E JUMP JUMPDEST SWAP13 PUSH1 0x20 ADD MSTORE PUSH1 0x40 DUP14 ADD MSTORE PUSH1 0x60 DUP13 ADD MSTORE PUSH1 0x80 DUP12 ADD MSTORE PUSH1 0xA0 DUP11 ADD MSTORE PUSH1 0xC0 DUP10 ADD MSTORE PUSH1 0xE0 DUP9 ADD MSTORE PUSH2 0x100 DUP8 ADD MSTORE PUSH2 0x120 DUP7 ADD PUSH2 0x829 SWAP2 PUSH2 0x19C6 JUMP JUMPDEST PUSH2 0x140 DUP6 ADD MSTORE PUSH2 0x160 DUP5 ADD MSTORE PUSH2 0x180 DUP4 ADD MSTORE SUB SWAP1 RETURN JUMPDEST CALLVALUE PUSH2 0x179 JUMPI PUSH1 0x20 CALLDATASIZE PUSH1 0x3 NOT ADD SLT PUSH2 0x179 JUMPI PUSH1 0x4 CALLDATALOAD PUSH1 0x1 PUSH1 0x1 PUSH1 0x40 SHL SUB DUP2 GT PUSH2 0x179 JUMPI PUSH2 0x86F SWAP1 CALLDATASIZE SWAP1 PUSH1 0x4 ADD PUSH2 0x1970 JUMP JUMPDEST PUSH1 0x40 MLOAD PUSH2 0x87B DUP2 PUSH2 0x1933 JUMP JUMPDEST PUSH1 0x60 DUP2 MSTORE PUSH1 0x20 DUP2 ADD PUSH1 0x0 SWAP1 MSTORE PUSH1 0x40 DUP2 ADD PUSH1 0x0 SWAP1 MSTORE PUSH1 0x60 DUP2 ADD PUSH1 0x0 SWAP1 MSTORE PUSH1 0x80 DUP2 ADD PUSH1 0x0 SWAP1 MSTORE PUSH1 0xA0 DUP2 ADD PUSH1 0x0 SWAP1 MSTORE PUSH1 0xC0 DUP2 ADD PUSH1 0x0 SWAP1 MSTORE PUSH1 0xE0 DUP2 ADD PUSH1 0x0 SWAP1 MSTORE PUSH2 0x100 DUP2 ADD PUSH1 0x0 SWAP1 MSTORE PUSH2 0x120 DUP2 ADD PUSH1 0x0 SWAP1 MSTORE PUSH2 0x140 DUP2 ADD PUSH1 0x0 SWAP1 MSTORE PUSH2 0x160 DUP2 ADD PUSH1 0x0 SWAP1 MSTORE PUSH2 0x180 ADD PUSH1 0x0 SWAP1 MSTORE PUSH1 0x40 MLOAD DUP2 DUP2 DUP1 SWAP4 MLOAD PUSH1 0x20 DUP2 SWAP4 ADD SWAP2 PUSH2 0x8FA SWAP3 PUSH2 0x18EB JUMP JUMPDEST DUP2 ADD PUSH1 0x2 DUP2 MSTORE SUB PUSH1 0x20 ADD SWAP1 KECCAK256 PUSH1 0x40 MLOAD PUSH2 0x912 DUP2 PUSH2 0x1933 JUMP JUMPDEST PUSH2 0x91B DUP3 PUSH2 0x1A0D JUMP JUMPDEST DUP2 MSTORE PUSH1 0x1 DUP3 ADD SLOAD PUSH1 0x1 PUSH1 0x1 PUSH1 0xA0 SHL SUB SWAP1 DUP2 AND PUSH1 0x20 DUP4 ADD SWAP1 DUP2 MSTORE PUSH1 0x2 DUP5 ADD SLOAD DUP3 AND PUSH1 0x40 DUP5 ADD SWAP1 DUP2 MSTORE PUSH1 0x3 DUP6 ADD SLOAD DUP4 AND PUSH1 0x60 DUP6 ADD SWAP1 DUP2 MSTORE PUSH1 0x4 DUP7 ADD SLOAD PUSH1 0x80 DUP7 ADD SWAP1 DUP2 MSTORE PUSH1 0x5 DUP8 ADD SLOAD PUSH1 0xA0 DUP8 ADD SWAP1 DUP2 MSTORE PUSH1 0x6 DUP9 ADD SLOAD SWAP1 SWAP6 AND PUSH1 0xC0 DUP8 ADD SWAP1 DUP2 MSTORE PUSH1 0x7 DUP9 ADD SLOAD PUSH1 0xE0 DUP9 ADD SWAP1 DUP2 MSTORE PUSH1 0x8 DUP10 ADD SLOAD PUSH2 0x100 DUP10 ADD SWAP1 DUP2 MSTORE PUSH1 0x9 DUP11 ADD SLOAD SWAP6 SWAP10 SWAP7 SWAP8 SWAP5 SWAP7 SWAP6 SWAP4 SWAP5 PUSH2 0x120 DUP11 ADD SWAP5 SWAP2 SWAP4 SWAP2 PUSH2 0x9B4 SWAP1 PUSH1 0xFF AND DUP7 PUSH2 0x1C6A JUMP JUMPDEST PUSH1 0xA DUP8 ADD SLOAD SWAP6 PUSH2 0x140 DUP12 ADD SWAP7 DUP8 MSTORE PUSH1 0xB DUP9 ADD SLOAD SWAP8 PUSH2 0x160 DUP13 ADD SWAP9 DUP10 MSTORE PUSH1 0xC ADD SLOAD SWAP9 PUSH2 0x180 DUP13 ADD SWAP10 DUP11 MSTORE PUSH1 0x40 MLOAD SWAP13 DUP14 DUP1 SWAP14 PUSH1 0x20 DUP3 MSTORE MLOAD PUSH1 0x20 DUP3 ADD PUSH2 0x1A0 SWAP1 MSTORE PUSH2 0x1C0 DUP3 ADD PUSH2 0xA00 SWAP2 PUSH2 0x190E JUMP JUMPDEST SWAP13 MLOAD PUSH1 0x1 PUSH1 0x1 PUSH1 0xA0 SHL SUB SWAP1 DUP2 AND PUSH1 0x40 SWAP1 SWAP3 ADD SWAP2 SWAP1 SWAP2 MSTORE SWAP1 MLOAD DUP2 AND PUSH1 0x60 DUP15 ADD MSTORE SWAP1 MLOAD DUP2 AND PUSH1 0x80 DUP14 ADD MSTORE SWAP1 MLOAD PUSH1 0xA0 DUP13 ADD MSTORE SWAP1 MLOAD PUSH1 0xC0 DUP12 ADD MSTORE SWAP1 MLOAD AND PUSH1 0xE0 DUP10 ADD MSTORE MLOAD PUSH2 0x100 DUP9 ADD MSTORE MLOAD PUSH2 0x120 DUP8 ADD MSTORE MLOAD PUSH2 0xA5C SWAP1 PUSH2 0x140 DUP8 ADD SWAP1 PUSH2 0x19C6 JUMP JUMPDEST MLOAD PUSH2 0x160 DUP6 ADD MSTORE MLOAD PUSH2 0x180 DUP5 ADD MSTORE MLOAD PUSH2 0x1A0 DUP4 ADD MSTORE SUB SWAP1 RETURN JUMPDEST CALLVALUE PUSH2 0x179 JUMPI PUSH1 0x0 CALLDATASIZE PUSH1 0x3 NOT ADD SLT PUSH2 0x179 JUMPI PUSH1 0x20 PUSH1 0x40 MLOAD PUSH3 0xF4240 DUP2 MSTORE RETURN JUMPDEST CALLVALUE PUSH2 0x179 JUMPI PUSH1 0x0 CALLDATASIZE PUSH1 0x3 NOT ADD SLT PUSH2 0x179 JUMPI PUSH1 0x0 SLOAD PUSH1 0x40 MLOAD PUSH1 0x1 PUSH1 0x1 PUSH1 0xA0 SHL SUB SWAP1 SWAP2 AND DUP2 MSTORE PUSH1 0x20 SWAP1 RETURN JUMPDEST CALLVALUE PUSH2 0x179 JUMPI PUSH1 0x0 CALLDATASIZE PUSH1 0x3 NOT ADD SLT PUSH2 0x179 JUMPI PUSH1 0x20 PUSH1 0x40 MLOAD PUSH3 0x15180 DUP2 MSTORE RETURN JUMPDEST CALLVALUE PUSH2 0x179 JUMPI PUSH1 0x0 CALLDATASIZE PUSH1 0x3 NOT ADD SLT PUSH2 0x179 JUMPI PUSH2 0xAF3 PUSH2 0x1DD5 JUMP JUMPDEST PUSH1 0x0 DUP1 SLOAD PUSH1 0x1 PUSH1 0x1 PUSH1 0xA0 SHL SUB NOT DUP2 AND DUP3 SSTORE PUSH1 0x1 PUSH1 0x1 PUSH1 0xA0 SHL SUB AND PUSH32 0x8BE0079C531659141344CD1FD0A4F28419497F9722A3DAAFE3B4186F6B6457E0 DUP3 DUP1 LOG3 STOP JUMPDEST CALLVALUE PUSH2 0x179 JUMPI PUSH1 0xE0 CALLDATASIZE PUSH1 0x3 NOT ADD SLT PUSH2 0x179 JUMPI PUSH1 0x4 CALLDATALOAD PUSH1 0x1 PUSH1 0x1 PUSH1 0x40 SHL SUB DUP2 GT PUSH2 0x179 JUMPI PUSH2 0xB63 SWAP1 CALLDATASIZE SWAP1 PUSH1 0x4 ADD PUSH2 0x1970 JUMP JUMPDEST PUSH1 0x24 CALLDATALOAD PUSH1 0x1 PUSH1 0x1 PUSH1 0xA0 SHL SUB DUP2 AND DUP2 SUB PUSH2 0x179 JUMPI PUSH1 0x84 CALLDATALOAD PUSH1 0x1 PUSH1 0x1 PUSH1 0xA0 SHL SUB DUP2 AND SWAP1 DUP2 SWAP1 SUB PUSH2 0x179 JUMPI PUSH1 0xA4 CALLDATALOAD PUSH2 0xB96 PUSH2 0x1DB3 JUMP JUMPDEST DUP4 MLOAD ISZERO PUSH2 0xFAA JUMPI PUSH1 0x40 MLOAD PUSH1 0x1 DUP6 MLOAD PUSH2 0xBB2 DUP2 DUP5 PUSH1 0x20 DUP11 ADD PUSH2 0x18EB JUMP JUMPDEST DUP3 ADD SWAP2 PUSH1 0x2 DUP4 MSTORE PUSH1 0x20 DUP2 DUP4 DUP1 PUSH1 0xA0 SHL SUB SWAP5 SUB ADD SWAP1 KECCAK256 ADD SLOAD AND PUSH2 0xF6C JUMPI PUSH3 0xF4240 PUSH1 0x44 CALLDATALOAD LT PUSH2 0xF2F JUMPI PUSH1 0x44 CALLDATALOAD PUSH1 0x64 CALLDATALOAD GT ISZERO PUSH2 0xED4 JUMPI DUP1 ISZERO PUSH2 0xE96 JUMPI PUSH3 0x15180 TIMESTAMP ADD DUP1 TIMESTAMP GT PUSH2 0xE80 JUMPI PUSH1 0xC4 CALLDATALOAD GT ISZERO PUSH2 0xE42 JUMPI PUSH1 0x40 MLOAD PUSH4 0x23B872DD PUSH1 0xE0 SHL DUP2 MSTORE CALLER PUSH1 0x4 DUP3 ADD MSTORE ADDRESS PUSH1 0x24 DUP3 ADD MSTORE PUSH1 0x44 DUP2 ADD DUP3 SWAP1 MSTORE PUSH1 0x20 DUP2 PUSH1 0x64 DUP2 PUSH1 0x0 DUP8 GAS CALL DUP1 ISZERO PUSH2 0x413 JUMPI PUSH2 0xC45 SWAP2 PUSH1 0x0 SWAP2 PUSH2 0xE23 JUMPI JUMPDEST POP PUSH2 0x1C1E JUMP JUMPDEST PUSH1 0x40 MLOAD SWAP2 PUSH2 0xC52 DUP4 PUSH2 0x1933 JUMP JUMPDEST DUP5 DUP4 MSTORE CALLER PUSH1 0x20 DUP5 ADD MSTORE PUSH1 0x0 PUSH1 0x40 DUP5 ADD MSTORE PUSH1 0x1 DUP1 PUSH1 0xA0 SHL SUB DUP5 AND PUSH1 0x60 DUP5 ADD MSTORE PUSH1 0x44 CALLDATALOAD PUSH1 0x80 DUP5 ADD MSTORE PUSH1 0x64 CALLDATALOAD PUSH1 0xA0 DUP5 ADD MSTORE PUSH1 0xC0 DUP4 ADD MSTORE PUSH1 0xE0 DUP3 ADD MSTORE PUSH1 0xC4 CALLDATALOAD PUSH2 0x100 DUP3 ADD MSTORE PUSH1 0x0 PUSH2 0x120 DUP3 ADD MSTORE TIMESTAMP PUSH2 0x140 DUP3 ADD MSTORE PUSH1 0x0 PUSH2 0x160 DUP3 ADD MSTORE PUSH2 0x180 DUP2 ADD SWAP3 PUSH1 0x0 DUP5 MSTORE PUSH1 0x40 MLOAD PUSH1 0x20 DUP2 DUP4 MLOAD PUSH2 0xCC9 DUP2 DUP4 DUP6 DUP9 ADD PUSH2 0x18EB JUMP JUMPDEST DUP2 ADD PUSH1 0x2 DUP2 MSTORE SUB ADD SWAP1 KECCAK256 PUSH2 0xCDE DUP4 MLOAD DUP3 PUSH2 0x1C76 JUMP JUMPDEST PUSH1 0x20 DUP4 ADD MLOAD PUSH1 0x1 DUP3 ADD DUP1 SLOAD PUSH1 0x1 PUSH1 0x1 PUSH1 0xA0 SHL SUB NOT SWAP1 DUP2 AND PUSH1 0x1 PUSH1 0x1 PUSH1 0xA0 SHL SUB SWAP4 DUP5 AND OR SWAP1 SWAP2 SSTORE PUSH1 0x40 DUP6 ADD MLOAD PUSH1 0x2 DUP5 ADD DUP1 SLOAD DUP4 AND SWAP2 DUP5 AND SWAP2 SWAP1 SWAP2 OR SWAP1 SSTORE PUSH1 0x60 DUP6 ADD MLOAD PUSH1 0x3 DUP5 ADD DUP1 SLOAD DUP4 AND SWAP2 DUP5 AND SWAP2 SWAP1 SWAP2 OR SWAP1 SSTORE PUSH1 0x80 DUP6 ADD MLOAD PUSH1 0x4 DUP5 ADD SSTORE PUSH1 0xA0 DUP6 ADD MLOAD PUSH1 0x5 DUP1 DUP6 ADD SWAP2 SWAP1 SWAP2 SSTORE PUSH1 0xC0 DUP7 ADD MLOAD PUSH1 0x6 DUP6 ADD DUP1 SLOAD SWAP1 SWAP4 AND SWAP4 AND SWAP3 SWAP1 SWAP3 OR SWAP1 SSTORE PUSH1 0xE0 DUP5 ADD MLOAD PUSH1 0x7 DUP4 ADD SSTORE PUSH2 0x100 DUP5 ADD MLOAD PUSH1 0x8 DUP4 ADD SSTORE PUSH2 0x120 DUP5 ADD MLOAD SWAP6 PUSH1 0x9 DUP4 ADD SWAP5 SWAP2 DUP8 LT ISZERO PUSH2 0x4DA JUMPI PUSH2 0x160 PUSH1 0xC SWAP3 PUSH2 0xDD0 SWAP7 PUSH1 0x0 SWAP10 PUSH1 0xFF DUP1 NOT DUP4 SLOAD AND SWAP2 AND OR SWAP1 SSTORE PUSH2 0x140 DUP2 ADD MLOAD PUSH1 0xA DUP7 ADD SSTORE ADD MLOAD PUSH1 0xB DUP5 ADD SSTORE MLOAD SWAP2 ADD SSTORE CALLER DUP5 MSTORE PUSH1 0x3 PUSH1 0x20 MSTORE PUSH2 0xDCB DUP2 PUSH1 0x40 DUP7 KECCAK256 PUSH2 0x1D81 JUMP JUMPDEST PUSH2 0x1BFE JUMP JUMPDEST PUSH1 0x40 MLOAD SWAP2 PUSH1 0x1 DUP1 PUSH1 0xA0 SHL SUB AND DUP3 MSTORE PUSH1 0x44 CALLDATALOAD PUSH1 0x20 DUP4 ADD MSTORE PUSH1 0x64 CALLDATALOAD PUSH1 0x40 DUP4 ADD MSTORE PUSH1 0xC4 CALLDATALOAD PUSH1 0x60 DUP4 ADD MSTORE PUSH32 0x1D5DFE67E28FFF937A5D2A995F0C5D7B0DDBD4705C2DFDAB322A870D227DD066 PUSH1 0x80 CALLER SWAP4 LOG3 PUSH1 0x1 DUP1 SSTORE DUP1 RETURN JUMPDEST PUSH2 0xE3C SWAP2 POP PUSH1 0x20 RETURNDATASIZE PUSH1 0x20 GT PUSH2 0x40C JUMPI PUSH2 0x3FE DUP2 DUP4 PUSH2 0x194F JUMP JUMPDEST DUP7 PUSH2 0xC3F JUMP JUMPDEST PUSH1 0x40 MLOAD PUSH3 0x461BCD PUSH1 0xE5 SHL DUP2 MSTORE PUSH1 0x20 PUSH1 0x4 DUP3 ADD MSTORE PUSH1 0x16 PUSH1 0x24 DUP3 ADD MSTORE PUSH22 0x223AB2903A34B6B2B9BA30B6B8103A37B79039B7B7B7 PUSH1 0x51 SHL PUSH1 0x44 DUP3 ADD MSTORE PUSH1 0x64 SWAP1 REVERT JUMPDEST PUSH4 0x4E487B71 PUSH1 0xE0 SHL PUSH1 0x0 MSTORE PUSH1 0x11 PUSH1 0x4 MSTORE PUSH1 0x24 PUSH1 0x0 REVERT JUMPDEST PUSH1 0x40 MLOAD PUSH3 0x461BCD PUSH1 0xE5 SHL DUP2 MSTORE PUSH1 0x20 PUSH1 0x4 DUP3 ADD MSTORE PUSH1 0x16 PUSH1 0x24 DUP3 ADD MSTORE PUSH22 0x139BC818DBDB1B185D195C985B081C1C9BDD9A591959 PUSH1 0x52 SHL PUSH1 0x44 DUP3 ADD MSTORE PUSH1 0x64 SWAP1 REVERT JUMPDEST PUSH1 0x40 MLOAD PUSH3 0x461BCD PUSH1 0xE5 SHL DUP2 MSTORE PUSH1 0x20 PUSH1 0x4 DUP3 ADD MSTORE PUSH1 0x2D PUSH1 0x24 DUP3 ADD MSTORE PUSH32 0x526570617920616D6F756E74206D757374206265206772656174657220746861 PUSH1 0x44 DUP3 ADD MSTORE PUSH13 0x1B881B1BD85B88185B5BDD5B9D PUSH1 0x9A SHL PUSH1 0x64 DUP3 ADD MSTORE PUSH1 0x84 SWAP1 REVERT JUMPDEST PUSH1 0x40 MLOAD PUSH3 0x461BCD PUSH1 0xE5 SHL DUP2 MSTORE PUSH1 0x20 PUSH1 0x4 DUP3 ADD MSTORE PUSH1 0x15 PUSH1 0x24 DUP3 ADD MSTORE PUSH21 0x131BD85B88185B5BDD5B9D081D1BDBC81CDB585B1B PUSH1 0x5A SHL PUSH1 0x44 DUP3 ADD MSTORE PUSH1 0x64 SWAP1 REVERT JUMPDEST PUSH1 0x40 MLOAD PUSH3 0x461BCD PUSH1 0xE5 SHL DUP2 MSTORE PUSH1 0x20 PUSH1 0x4 DUP3 ADD MSTORE PUSH1 0x16 PUSH1 0x24 DUP3 ADD MSTORE PUSH22 0x4C6F616E20494420616C726561647920657869737473 PUSH1 0x50 SHL PUSH1 0x44 DUP3 ADD MSTORE PUSH1 0x64 SWAP1 REVERT JUMPDEST PUSH1 0x40 MLOAD PUSH3 0x461BCD PUSH1 0xE5 SHL DUP2 MSTORE PUSH1 0x20 PUSH1 0x4 DUP3 ADD MSTORE PUSH1 0xF PUSH1 0x24 DUP3 ADD MSTORE PUSH15 0x125B9D985B1A59081B1BD85B881251 PUSH1 0x8A SHL PUSH1 0x44 DUP3 ADD MSTORE PUSH1 0x64 SWAP1 REVERT JUMPDEST CALLVALUE PUSH2 0x179 JUMPI PUSH1 0x20 CALLDATASIZE PUSH1 0x3 NOT ADD SLT PUSH2 0x179 JUMPI PUSH1 0x4 CALLDATALOAD PUSH1 0x1 PUSH1 0x1 PUSH1 0x40 SHL SUB DUP2 GT PUSH2 0x179 JUMPI PUSH1 0x20 PUSH2 0x1016 PUSH2 0x1029 SWAP3 CALLDATASIZE SWAP1 PUSH1 0x4 ADD PUSH2 0x1970 JUMP JUMPDEST DUP2 PUSH1 0x40 MLOAD SWAP4 DUP3 DUP6 DUP1 SWAP5 MLOAD SWAP4 DUP5 SWAP3 ADD PUSH2 0x18EB JUMP JUMPDEST DUP2 ADD PUSH1 0x2 DUP2 MSTORE SUB ADD SWAP1 KECCAK256 PUSH1 0x40 MLOAD SWAP1 PUSH2 0x1040 DUP3 PUSH2 0x1933 JUMP JUMPDEST PUSH2 0x1049 DUP2 PUSH2 0x1A0D JUMP JUMPDEST DUP3 MSTORE PUSH1 0x1 DUP2 ADD SLOAD PUSH1 0x1 PUSH1 0x1 PUSH1 0xA0 SHL SUB SWAP1 DUP2 AND PUSH1 0x20 DUP5 ADD MSTORE PUSH1 0x2 DUP3 ADD SLOAD DUP2 AND PUSH1 0x40 DUP5 ADD MSTORE PUSH1 0x3 DUP3 ADD SLOAD DUP2 AND PUSH1 0x60 DUP5 ADD MSTORE PUSH1 0x4 DUP3 ADD SLOAD PUSH1 0x80 DUP5 ADD MSTORE PUSH1 0x5 DUP3 ADD SLOAD PUSH1 0xA0 DUP5 ADD MSTORE PUSH1 0x6 DUP3 ADD SLOAD AND PUSH1 0xC0 DUP4 ADD MSTORE PUSH1 0x7 DUP2 ADD SLOAD PUSH1 0xE0 DUP4 ADD MSTORE PUSH1 0x8 DUP2 ADD SLOAD PUSH2 0x100 DUP4 ADD SWAP1 DUP2 MSTORE PUSH1 0x9 DUP3 ADD SLOAD SWAP1 SWAP3 PUSH2 0x120 DUP2 ADD SWAP3 SWAP1 SWAP2 PUSH2 0x180 SWAP2 PUSH1 0xC SWAP2 PUSH2 0x10D1 SWAP1 PUSH1 0xFF AND DUP7 PUSH2 0x1C6A JUMP JUMPDEST PUSH1 0xA DUP2 ADD SLOAD PUSH2 0x140 DUP6 ADD MSTORE PUSH1 0xB DUP2 ADD SLOAD PUSH2 0x160 DUP6 ADD MSTORE ADD SLOAD SWAP2 ADD MSTORE MLOAD SWAP1 PUSH1 0x5 DUP3 LT ISZERO PUSH2 0x4DA JUMPI PUSH1 0x1 PUSH1 0x20 SWAP3 EQ SWAP1 DUP2 PUSH2 0x110F JUMPI JUMPDEST POP PUSH1 0x40 MLOAD SWAP1 ISZERO ISZERO DUP2 MSTORE RETURN JUMPDEST SWAP1 POP MLOAD TIMESTAMP GT DUP3 PUSH2 0x1104 JUMP JUMPDEST CALLVALUE PUSH2 0x179 JUMPI PUSH1 0x0 CALLDATASIZE PUSH1 0x3 NOT ADD SLT PUSH2 0x179 JUMPI PUSH1 0x20 PUSH1 0x4 SLOAD PUSH1 0x40 MLOAD SWAP1 DUP2 MSTORE RETURN JUMPDEST CALLVALUE PUSH2 0x179 JUMPI PUSH1 0x20 CALLDATASIZE PUSH1 0x3 NOT ADD SLT PUSH2 0x179 JUMPI PUSH1 0x1 PUSH1 0x1 PUSH1 0xA0 SHL SUB PUSH2 0x1159 PUSH2 0x18D5 JUMP JUMPDEST AND PUSH1 0x0 MSTORE PUSH1 0x5 PUSH1 0x20 MSTORE PUSH1 0x20 PUSH1 0x40 PUSH1 0x0 KECCAK256 SLOAD PUSH1 0x40 MLOAD SWAP1 DUP2 MSTORE RETURN JUMPDEST CALLVALUE PUSH2 0x179 JUMPI PUSH1 0x20 CALLDATASIZE PUSH1 0x3 NOT ADD SLT PUSH2 0x179 JUMPI PUSH1 0x4 CALLDATALOAD PUSH1 0x1 PUSH1 0x1 PUSH1 0x40 SHL SUB DUP2 GT PUSH2 0x179 JUMPI PUSH2 0x11A2 SWAP1 CALLDATASIZE SWAP1 PUSH1 0x4 ADD PUSH2 0x1970 JUMP JUMPDEST PUSH2 0x11AA PUSH2 0x1DB3 JUMP JUMPDEST PUSH1 0x40 MLOAD PUSH1 0xFF PUSH1 0x9 DUP4 MLOAD SWAP3 PUSH1 0x20 DUP2 DUP2 DUP8 ADD SWAP6 PUSH2 0x11C6 DUP2 DUP4 DUP10 PUSH2 0x18EB JUMP JUMPDEST DUP2 ADD PUSH1 0x2 DUP2 MSTORE SUB ADD SWAP1 KECCAK256 ADD SLOAD AND PUSH1 0x5 DUP2 LT ISZERO PUSH2 0x4DA JUMPI PUSH2 0x11EE SWAP2 PUSH2 0x1F8 PUSH1 0x1 PUSH1 0x20 SWAP4 EQ PUSH2 0x1B2B JUMP JUMPDEST DUP2 ADD PUSH1 0x2 DUP2 MSTORE SUB ADD SWAP1 KECCAK256 SWAP1 PUSH1 0x8 DUP3 ADD SLOAD TIMESTAMP GT ISZERO PUSH2 0x12E8 JUMPI PUSH1 0x6 DUP3 ADD SLOAD PUSH1 0x2 DUP4 ADD DUP1 SLOAD PUSH1 0x7 DUP6 ADD DUP1 SLOAD PUSH1 0x40 MLOAD PUSH4 0xA9059CBB PUSH1 0xE0 SHL DUP2 MSTORE PUSH1 0x1 PUSH1 0x1 PUSH1 0xA0 SHL SUB SWAP4 DUP5 AND PUSH1 0x4 DUP3 ADD MSTORE PUSH1 0x24 DUP2 ADD SWAP2 SWAP1 SWAP2 MSTORE SWAP1 SWAP6 SWAP4 SWAP1 SWAP3 SWAP2 PUSH1 0x20 SWAP2 DUP5 SWAP2 PUSH1 0x44 SWAP2 DUP4 SWAP2 PUSH1 0x0 SWAP2 AND GAS CALL SWAP1 DUP2 ISZERO PUSH2 0x413 JUMPI PUSH32 0xF1B8949E4896D4133C11D16389F3C895052AEA3F32798E8FD296115D24A9884C SWAP4 PUSH2 0x1291 PUSH2 0x12BD SWAP4 PUSH1 0x20 SWAP6 PUSH1 0x0 SWAP2 PUSH2 0x12CB JUMPI POP PUSH2 0x1C1E JUMP JUMPDEST PUSH1 0x9 DUP2 ADD DUP1 SLOAD PUSH1 0xFF NOT AND PUSH1 0x3 OR SWAP1 SSTORE TIMESTAMP PUSH1 0xC SWAP1 SWAP2 ADD SSTORE SLOAD SWAP5 SLOAD PUSH1 0x1 PUSH1 0x1 PUSH1 0xA0 SHL SUB SWAP6 SWAP1 SWAP6 AND SWAP5 SWAP4 PUSH2 0x1BFE JUMP JUMPDEST SWAP3 PUSH1 0x40 MLOAD SWAP1 DUP2 MSTORE LOG3 PUSH1 0x1 DUP1 SSTORE STOP JUMPDEST PUSH2 0x12E2 SWAP2 POP DUP7 RETURNDATASIZE DUP9 GT PUSH2 0x40C JUMPI PUSH2 0x3FE DUP2 DUP4 PUSH2 0x194F JUMP JUMPDEST DUP10 PUSH2 0xC3F JUMP JUMPDEST PUSH1 0x40 MLOAD PUSH3 0x461BCD PUSH1 0xE5 SHL DUP2 MSTORE PUSH1 0x20 PUSH1 0x4 DUP3 ADD MSTORE PUSH1 0x14 PUSH1 0x24 DUP3 ADD MSTORE PUSH20 0x131BD85B881B9BDD081BDD995C991D59481E595D PUSH1 0x62 SHL PUSH1 0x44 DUP3 ADD MSTORE PUSH1 0x64 SWAP1 REVERT JUMPDEST CALLVALUE PUSH2 0x179 JUMPI PUSH1 0x20 CALLDATASIZE PUSH1 0x3 NOT ADD SLT PUSH2 0x179 JUMPI PUSH2 0x133D PUSH2 0x18D5 JUMP JUMPDEST PUSH2 0x1345 PUSH2 0x1DD5 JUMP JUMPDEST PUSH1 0x1 PUSH1 0x1 PUSH1 0xA0 SHL SUB AND PUSH1 0x0 DUP2 DUP2 MSTORE PUSH1 0x5 PUSH1 0x20 MSTORE PUSH1 0x40 SWAP1 KECCAK256 SLOAD SWAP1 DUP2 ISZERO PUSH2 0x13CF JUMPI PUSH1 0x0 DUP2 DUP2 MSTORE PUSH1 0x5 PUSH1 0x20 SWAP1 DUP2 MSTORE PUSH1 0x40 DUP1 DUP4 KECCAK256 DUP4 SWAP1 SSTORE DUP3 SLOAD SWAP1 MLOAD PUSH4 0xA9059CBB PUSH1 0xE0 SHL DUP2 MSTORE PUSH1 0x1 PUSH1 0x1 PUSH1 0xA0 SHL SUB SWAP1 SWAP2 AND PUSH1 0x4 DUP3 ADD MSTORE PUSH1 0x24 DUP2 ADD SWAP5 SWAP1 SWAP5 MSTORE SWAP2 DUP4 SWAP2 PUSH1 0x44 SWAP2 DUP4 SWAP2 SWAP1 GAS CALL DUP1 ISZERO PUSH2 0x413 JUMPI PUSH2 0x13B5 JUMPI STOP JUMPDEST PUSH2 0x13CD SWAP1 PUSH1 0x20 RETURNDATASIZE PUSH1 0x20 GT PUSH2 0x40C JUMPI PUSH2 0x3FE DUP2 DUP4 PUSH2 0x194F JUMP JUMPDEST STOP JUMPDEST PUSH1 0x40 MLOAD PUSH3 0x461BCD PUSH1 0xE5 SHL DUP2 MSTORE PUSH1 0x20 PUSH1 0x4 DUP3 ADD MSTORE PUSH1 0x13 PUSH1 0x24 DUP3 ADD MSTORE PUSH19 0x4E6F206665657320746F207769746864726177 PUSH1 0x68 SHL PUSH1 0x44 DUP3 ADD MSTORE PUSH1 0x64 SWAP1 REVERT JUMPDEST CALLVALUE PUSH2 0x179 JUMPI PUSH1 0x20 CALLDATASIZE PUSH1 0x3 NOT ADD SLT PUSH2 0x179 JUMPI PUSH1 0x4 CALLDATALOAD PUSH2 0x1426 PUSH2 0x1DD5 JUMP JUMPDEST PUSH1 0x64 DUP2 GT PUSH2 0x1433 JUMPI PUSH1 0x4 SSTORE STOP JUMPDEST PUSH1 0x40 MLOAD PUSH3 0x461BCD PUSH1 0xE5 SHL DUP2 MSTORE PUSH1 0x20 PUSH1 0x4 DUP3 ADD MSTORE PUSH1 0xC PUSH1 0x24 DUP3 ADD MSTORE PUSH12 0x8CCACA40E8DEDE40D0D2CED PUSH1 0xA3 SHL PUSH1 0x44 DUP3 ADD MSTORE PUSH1 0x64 SWAP1 REVERT JUMPDEST CALLVALUE PUSH2 0x179 JUMPI PUSH1 0x20 CALLDATASIZE PUSH1 0x3 NOT ADD SLT PUSH2 0x179 JUMPI PUSH1 0x4 CALLDATALOAD PUSH1 0x1 PUSH1 0x1 PUSH1 0x40 SHL SUB DUP2 GT PUSH2 0x179 JUMPI PUSH2 0x1497 SWAP1 CALLDATASIZE SWAP1 PUSH1 0x4 ADD PUSH2 0x1970 JUMP JUMPDEST PUSH2 0x149F PUSH2 0x1DB3 JUMP JUMPDEST PUSH1 0x40 MLOAD PUSH2 0x14BA DUP3 MLOAD SWAP2 PUSH1 0x1 PUSH1 0x20 DUP6 ADD SWAP4 PUSH2 0x5C7 DUP2 DUP5 DUP8 PUSH2 0x18EB JUMP JUMPDEST PUSH1 0xFF PUSH1 0x9 PUSH1 0x40 MLOAD PUSH1 0x20 DUP2 DUP7 MLOAD PUSH2 0x14D1 DUP2 DUP4 DUP10 PUSH2 0x18EB JUMP JUMPDEST DUP2 ADD PUSH1 0x2 DUP2 MSTORE SUB ADD SWAP1 KECCAK256 ADD SLOAD AND PUSH1 0x5 DUP2 LT ISZERO PUSH2 0x4DA JUMPI PUSH2 0x14F9 SWAP2 PUSH2 0x1F8 PUSH1 0x1 PUSH1 0x20 SWAP4 EQ PUSH2 0x1B2B JUMP JUMPDEST DUP2 ADD PUSH1 0x2 DUP2 MSTORE SUB ADD SWAP1 KECCAK256 PUSH1 0x3 DUP2 ADD PUSH1 0x1 DUP1 PUSH1 0xA0 SHL SUB DUP2 SLOAD AND PUSH1 0x5 DUP4 ADD SWAP2 DUP3 SLOAD PUSH2 0x2710 PUSH2 0x1527 PUSH1 0x4 SLOAD DUP4 PUSH2 0x1B6D JUMP JUMPDEST DIV SWAP3 PUSH2 0x1566 PUSH1 0x20 PUSH2 0x1538 DUP7 DUP6 PUSH2 0x1B80 JUMP JUMPDEST PUSH1 0x40 MLOAD PUSH4 0x23B872DD PUSH1 0xE0 SHL DUP2 MSTORE CALLER PUSH1 0x4 DUP3 ADD MSTORE ADDRESS PUSH1 0x24 DUP3 ADD MSTORE PUSH1 0x44 DUP2 ADD SWAP6 SWAP1 SWAP6 MSTORE SWAP4 SWAP2 DUP3 SWAP1 DUP2 SWAP1 PUSH1 0x64 DUP3 ADD SWAP1 JUMP JUMPDEST SUB DUP2 PUSH1 0x0 DUP7 GAS CALL SWAP1 DUP2 ISZERO PUSH2 0x413 JUMPI PUSH1 0x0 SWAP2 PUSH2 0x17B1 JUMPI JUMPDEST POP ISZERO PUSH2 0x1779 JUMPI DUP4 PUSH1 0x20 SWAP4 PUSH2 0x15CE SWAP6 PUSH2 0x171A JUMPI JUMPDEST POP POP PUSH1 0x2 DUP7 ADD SLOAD PUSH1 0x40 MLOAD PUSH4 0xA9059CBB PUSH1 0xE0 SHL DUP2 MSTORE PUSH1 0x1 PUSH1 0x1 PUSH1 0xA0 SHL SUB SWAP1 SWAP2 AND PUSH1 0x4 DUP3 ADD MSTORE PUSH1 0x24 DUP2 ADD SWAP3 SWAP1 SWAP3 MSTORE SWAP1 SWAP3 DUP4 SWAP2 SWAP1 DUP3 SWAP1 PUSH1 0x0 SWAP1 DUP3 SWAP1 PUSH1 0x44 DUP3 ADD SWAP1 JUMP JUMPDEST SUB SWAP3 GAS CALL SWAP1 DUP2 ISZERO PUSH2 0x413 JUMPI PUSH1 0x0 SWAP2 PUSH2 0x16FB JUMPI JUMPDEST POP ISZERO PUSH2 0x16B6 JUMPI PUSH1 0x6 DUP3 ADD SLOAD PUSH1 0x1 DUP4 ADD SLOAD PUSH1 0x7 DUP5 ADD SLOAD PUSH1 0x40 MLOAD PUSH4 0xA9059CBB PUSH1 0xE0 SHL DUP2 MSTORE PUSH1 0x1 PUSH1 0x1 PUSH1 0xA0 SHL SUB SWAP3 DUP4 AND PUSH1 0x4 DUP3 ADD MSTORE PUSH1 0x24 DUP2 ADD SWAP2 SWAP1 SWAP2 MSTORE SWAP4 SWAP2 PUSH1 0x20 SWAP2 DUP6 SWAP2 PUSH1 0x44 SWAP2 DUP4 SWAP2 PUSH1 0x0 SWAP2 AND GAS CALL SWAP3 DUP4 ISZERO PUSH2 0x413 JUMPI PUSH2 0x1665 SWAP4 PUSH2 0x1649 SWAP2 PUSH1 0x0 SWAP2 PUSH2 0x1697 JUMPI POP PUSH2 0x1BB2 JUMP JUMPDEST PUSH1 0x9 DUP2 ADD PUSH1 0x2 PUSH1 0xFF NOT DUP3 SLOAD AND OR SWAP1 SSTORE PUSH1 0xC TIMESTAMP SWAP2 ADD SSTORE SLOAD SWAP2 PUSH2 0x1BFE JUMP JUMPDEST PUSH1 0x40 MLOAD SWAP2 DUP3 MSTORE PUSH32 0xFFE64C5EC0AEFBE73DC8A169259738E2B8CB8A537F6DCE448F1E932DB6F20479 PUSH1 0x20 CALLER SWAP4 LOG3 PUSH1 0x1 DUP1 SSTORE STOP JUMPDEST PUSH2 0x16B0 SWAP2 POP PUSH1 0x20 RETURNDATASIZE PUSH1 0x20 GT PUSH2 0x40C JUMPI PUSH2 0x3FE DUP2 DUP4 PUSH2 0x194F JUMP JUMPDEST DUP7 PUSH2 0x6BD JUMP JUMPDEST PUSH1 0x40 MLOAD PUSH3 0x461BCD PUSH1 0xE5 SHL DUP2 MSTORE PUSH1 0x20 PUSH1 0x4 DUP3 ADD MSTORE PUSH1 0x19 PUSH1 0x24 DUP3 ADD MSTORE PUSH32 0x5472616E7366657220746F206C656E646572206661696C656400000000000000 PUSH1 0x44 DUP3 ADD MSTORE PUSH1 0x64 SWAP1 REVERT JUMPDEST PUSH2 0x1714 SWAP2 POP PUSH1 0x20 RETURNDATASIZE PUSH1 0x20 GT PUSH2 0x40C JUMPI PUSH2 0x3FE DUP2 DUP4 PUSH2 0x194F JUMP JUMPDEST DUP5 PUSH2 0x15E1 JUMP JUMPDEST DUP5 PUSH32 0x6C5EFEFF5C320943D265DC4E5F1AF95AD523555CE0C1957E367DDA5514572DF SWAP2 PUSH1 0x1 DUP1 PUSH1 0xA0 SHL SUB DUP2 SLOAD AND PUSH1 0x0 MSTORE PUSH1 0x5 DUP3 MSTORE PUSH1 0x40 PUSH1 0x0 KECCAK256 PUSH2 0x175E DUP6 DUP3 SLOAD PUSH2 0x1BA5 JUMP JUMPDEST SWAP1 SSTORE SLOAD PUSH1 0x40 MLOAD SWAP4 DUP5 MSTORE PUSH1 0x1 PUSH1 0x1 PUSH1 0xA0 SHL SUB AND SWAP3 LOG2 DUP8 DUP1 PUSH2 0x158F JUMP JUMPDEST PUSH1 0x40 MLOAD PUSH3 0x461BCD PUSH1 0xE5 SHL DUP2 MSTORE PUSH1 0x20 PUSH1 0x4 DUP3 ADD MSTORE PUSH1 0x10 PUSH1 0x24 DUP3 ADD MSTORE PUSH16 0x14995C185E5B595B9D0819985A5B1959 PUSH1 0x82 SHL PUSH1 0x44 DUP3 ADD MSTORE PUSH1 0x64 SWAP1 REVERT JUMPDEST PUSH2 0x17CA SWAP2 POP PUSH1 0x20 RETURNDATASIZE PUSH1 0x20 GT PUSH2 0x40C JUMPI PUSH2 0x3FE DUP2 DUP4 PUSH2 0x194F JUMP JUMPDEST DUP9 PUSH2 0x157C JUMP JUMPDEST CALLVALUE PUSH2 0x179 JUMPI PUSH1 0x20 CALLDATASIZE PUSH1 0x3 NOT ADD SLT PUSH2 0x179 JUMPI PUSH1 0x1 PUSH1 0x1 PUSH1 0xA0 SHL SUB PUSH2 0x17F1 PUSH2 0x18D5 JUMP JUMPDEST AND PUSH1 0x0 MSTORE PUSH1 0x3 PUSH1 0x20 MSTORE PUSH1 0x40 PUSH1 0x0 KECCAK256 DUP1 SLOAD PUSH1 0x1 PUSH1 0x1 PUSH1 0x40 SHL SUB DUP2 GT PUSH2 0x18BF JUMPI PUSH2 0x181F PUSH1 0x20 DUP3 PUSH1 0x5 SHL ADD DUP5 PUSH2 0x194F JUMP JUMPDEST DUP1 DUP4 MSTORE PUSH1 0x20 DUP4 ADD DUP1 SWAP3 PUSH1 0x0 MSTORE PUSH1 0x20 PUSH1 0x0 KECCAK256 PUSH1 0x0 SWAP2 JUMPDEST DUP4 DUP4 LT PUSH2 0x18A2 JUMPI DUP5 DUP7 PUSH1 0x40 MLOAD SWAP2 DUP3 SWAP2 PUSH1 0x20 DUP4 ADD SWAP1 PUSH1 0x20 DUP5 MSTORE MLOAD DUP1 SWAP2 MSTORE PUSH1 0x40 DUP4 ADD SWAP1 PUSH1 0x40 DUP2 PUSH1 0x5 SHL DUP6 ADD ADD SWAP3 SWAP2 PUSH1 0x0 SWAP1 JUMPDEST DUP3 DUP3 LT PUSH2 0x1873 JUMPI POP POP POP POP SUB SWAP1 RETURN JUMPDEST SWAP2 SWAP4 PUSH1 0x1 SWAP2 SWAP4 SWAP6 POP PUSH1 0x20 PUSH2 0x1892 DUP2 SWAP3 PUSH1 0x3F NOT DUP11 DUP3 SUB ADD DUP7 MSTORE DUP9 MLOAD PUSH2 0x190E JUMP JUMPDEST SWAP7 ADD SWAP3 ADD SWAP3 ADD DUP6 SWAP5 SWAP4 SWAP2 SWAP3 PUSH2 0x1864 JUMP JUMPDEST PUSH1 0x1 PUSH1 0x20 DUP2 SWAP3 PUSH2 0x18B1 DUP6 PUSH2 0x1A0D JUMP JUMPDEST DUP2 MSTORE ADD SWAP3 ADD SWAP3 ADD SWAP2 SWAP1 PUSH2 0x1834 JUMP JUMPDEST PUSH4 0x4E487B71 PUSH1 0xE0 SHL PUSH1 0x0 MSTORE PUSH1 0x41 PUSH1 0x4 MSTORE PUSH1 0x24 PUSH1 0x0 REVERT JUMPDEST PUSH1 0x4 CALLDATALOAD SWAP1 PUSH1 0x1 PUSH1 0x1 PUSH1 0xA0 SHL SUB DUP3 AND DUP3 SUB PUSH2 0x179 JUMPI JUMP JUMPDEST PUSH1 0x0 JUMPDEST DUP4 DUP2 LT PUSH2 0x18FE JUMPI POP POP PUSH1 0x0 SWAP2 ADD MSTORE JUMP JUMPDEST DUP2 DUP2 ADD MLOAD DUP4 DUP3 ADD MSTORE PUSH1 0x20 ADD PUSH2 0x18EE JUMP JUMPDEST SWAP1 PUSH1 0x20 SWAP2 PUSH2 0x1927 DUP2 MLOAD DUP1 SWAP3 DUP2 DUP6 MSTORE DUP6 DUP1 DUP7 ADD SWAP2 ADD PUSH2 0x18EB JUMP JUMPDEST PUSH1 0x1F ADD PUSH1 0x1F NOT AND ADD ADD SWAP1 JUMP JUMPDEST PUSH2 0x1A0 DUP2 ADD SWAP1 DUP2 LT PUSH1 0x1 PUSH1 0x1 PUSH1 0x40 SHL SUB DUP3 GT OR PUSH2 0x18BF JUMPI PUSH1 0x40 MSTORE JUMP JUMPDEST SWAP1 PUSH1 0x1F DUP1 NOT SWAP2 ADD AND DUP2 ADD SWAP1 DUP2 LT PUSH1 0x1 PUSH1 0x1 PUSH1 0x40 SHL SUB DUP3 GT OR PUSH2 0x18BF JUMPI PUSH1 0x40 MSTORE JUMP JUMPDEST DUP2 PUSH1 0x1F DUP3 ADD SLT ISZERO PUSH2 0x179 JUMPI DUP1 CALLDATALOAD SWAP1 PUSH1 0x1 PUSH1 0x1 PUSH1 0x40 SHL SUB DUP3 GT PUSH2 0x18BF JUMPI PUSH1 0x40 MLOAD SWAP3 PUSH2 0x19A4 PUSH1 0x1F DUP5 ADD PUSH1 0x1F NOT AND PUSH1 0x20 ADD DUP6 PUSH2 0x194F JUMP JUMPDEST DUP3 DUP5 MSTORE PUSH1 0x20 DUP4 DUP4 ADD ADD GT PUSH2 0x179 JUMPI DUP2 PUSH1 0x0 SWAP3 PUSH1 0x20 DUP1 SWAP4 ADD DUP4 DUP7 ADD CALLDATACOPY DUP4 ADD ADD MSTORE SWAP1 JUMP JUMPDEST SWAP1 PUSH1 0x5 DUP3 LT ISZERO PUSH2 0x4DA JUMPI MSTORE JUMP JUMPDEST SWAP1 PUSH1 0x1 DUP3 DUP2 SHR SWAP3 AND DUP1 ISZERO PUSH2 0x1A03 JUMPI JUMPDEST PUSH1 0x20 DUP4 LT EQ PUSH2 0x19ED JUMPI JUMP JUMPDEST PUSH4 0x4E487B71 PUSH1 0xE0 SHL PUSH1 0x0 MSTORE PUSH1 0x22 PUSH1 0x4 MSTORE PUSH1 0x24 PUSH1 0x0 REVERT JUMPDEST SWAP2 PUSH1 0x7F AND SWAP2 PUSH2 0x19E2 JUMP JUMPDEST SWAP1 PUSH1 0x40 MLOAD SWAP2 DUP3 PUSH1 0x0 DUP3 SLOAD SWAP3 PUSH2 0x1A21 DUP5 PUSH2 0x19D3 JUMP JUMPDEST DUP1 DUP5 MSTORE SWAP4 PUSH1 0x1 DUP2 AND SWAP1 DUP2 ISZERO PUSH2 0x1A8F JUMPI POP PUSH1 0x1 EQ PUSH2 0x1A48 JUMPI JUMPDEST POP PUSH2 0x1A46 SWAP3 POP SUB DUP4 PUSH2 0x194F JUMP JUMPDEST JUMP JUMPDEST SWAP1 POP PUSH1 0x0 SWAP3 SWAP2 SWAP3 MSTORE PUSH1 0x20 PUSH1 0x0 KECCAK256 SWAP1 PUSH1 0x0 SWAP2 JUMPDEST DUP2 DUP4 LT PUSH2 0x1A73 JUMPI POP POP SWAP1 PUSH1 0x20 PUSH2 0x1A46 SWAP3 DUP3 ADD ADD CODESIZE PUSH2 0x1A39 JUMP JUMPDEST PUSH1 0x20 SWAP2 SWAP4 POP DUP1 PUSH1 0x1 SWAP2 SLOAD DUP4 DUP6 DUP10 ADD ADD MSTORE ADD SWAP2 ADD SWAP1 SWAP2 DUP5 SWAP3 PUSH2 0x1A5A JUMP JUMPDEST SWAP1 POP PUSH1 0x20 SWAP3 POP PUSH2 0x1A46 SWAP5 SWAP2 POP PUSH1 0xFF NOT AND DUP3 DUP5 ADD MSTORE ISZERO ISZERO PUSH1 0x5 SHL DUP3 ADD ADD CODESIZE PUSH2 0x1A39 JUMP JUMPDEST DUP1 SLOAD DUP3 LT ISZERO PUSH2 0x1AC9 JUMPI PUSH1 0x0 MSTORE PUSH1 0x20 PUSH1 0x0 KECCAK256 ADD SWAP1 PUSH1 0x0 SWAP1 JUMP JUMPDEST PUSH4 0x4E487B71 PUSH1 0xE0 SHL PUSH1 0x0 MSTORE PUSH1 0x32 PUSH1 0x4 MSTORE PUSH1 0x24 PUSH1 0x0 REVERT JUMPDEST ISZERO PUSH2 0x1AE6 JUMPI JUMP JUMPDEST PUSH1 0x40 MLOAD PUSH3 0x461BCD PUSH1 0xE5 SHL DUP2 MSTORE PUSH1 0x20 PUSH1 0x4 DUP3 ADD MSTORE PUSH1 0x1B PUSH1 0x24 DUP3 ADD MSTORE PUSH32 0x4F6E6C7920626F72726F7765722063616E2063616C6C20746869730000000000 PUSH1 0x44 DUP3 ADD MSTORE PUSH1 0x64 SWAP1 REVERT JUMPDEST ISZERO PUSH2 0x1B32 JUMPI JUMP JUMPDEST PUSH1 0x40 MLOAD PUSH3 0x461BCD PUSH1 0xE5 SHL DUP2 MSTORE PUSH1 0x20 PUSH1 0x4 DUP3 ADD MSTORE PUSH1 0x13 PUSH1 0x24 DUP3 ADD MSTORE PUSH19 0x496E76616C6964206C6F616E20737461747573 PUSH1 0x68 SHL PUSH1 0x44 DUP3 ADD MSTORE PUSH1 0x64 SWAP1 REVERT JUMPDEST DUP2 DUP2 MUL SWAP3 SWAP2 DUP2 ISZERO SWAP2 DUP5 DIV EQ OR ISZERO PUSH2 0xE80 JUMPI JUMP JUMPDEST SWAP2 SWAP1 DUP3 SUB SWAP2 DUP3 GT PUSH2 0xE80 JUMPI JUMP JUMPDEST SWAP1 DUP2 PUSH1 0x20 SWAP2 SUB SLT PUSH2 0x179 JUMPI MLOAD DUP1 ISZERO ISZERO DUP2 SUB PUSH2 0x179 JUMPI SWAP1 JUMP JUMPDEST SWAP2 SWAP1 DUP3 ADD DUP1 SWAP3 GT PUSH2 0xE80 JUMPI JUMP JUMPDEST ISZERO PUSH2 0x1BB9 JUMPI JUMP JUMPDEST PUSH1 0x40 MLOAD PUSH3 0x461BCD PUSH1 0xE5 SHL DUP2 MSTORE PUSH1 0x20 PUSH1 0x4 DUP3 ADD MSTORE PUSH1 0x18 PUSH1 0x24 DUP3 ADD MSTORE PUSH32 0x436F6C6C61746572616C2072657475726E206661696C65640000000000000000 PUSH1 0x44 DUP3 ADD MSTORE PUSH1 0x64 SWAP1 REVERT JUMPDEST PUSH2 0x1C16 SWAP1 PUSH1 0x20 PUSH1 0x40 MLOAD SWAP3 DUP3 DUP5 DUP1 SWAP5 MLOAD SWAP4 DUP5 SWAP3 ADD PUSH2 0x18EB JUMP JUMPDEST DUP2 ADD SUB SWAP1 KECCAK256 SWAP1 JUMP JUMPDEST ISZERO PUSH2 0x1C25 JUMPI JUMP JUMPDEST PUSH1 0x40 MLOAD PUSH3 0x461BCD PUSH1 0xE5 SHL DUP2 MSTORE PUSH1 0x20 PUSH1 0x4 DUP3 ADD MSTORE PUSH1 0x1A PUSH1 0x24 DUP3 ADD MSTORE PUSH32 0x436F6C6C61746572616C207472616E73666572206661696C6564000000000000 PUSH1 0x44 DUP3 ADD MSTORE PUSH1 0x64 SWAP1 REVERT JUMPDEST PUSH1 0x5 DUP3 LT ISZERO PUSH2 0x4DA JUMPI MSTORE JUMP JUMPDEST SWAP2 SWAP1 SWAP2 DUP3 MLOAD PUSH1 0x1 PUSH1 0x1 PUSH1 0x40 SHL SUB DUP2 GT PUSH2 0x18BF JUMPI PUSH2 0x1C93 DUP3 SLOAD PUSH2 0x19D3 JUMP JUMPDEST PUSH1 0x1F DUP2 GT PUSH2 0x1D39 JUMPI JUMPDEST POP PUSH1 0x20 PUSH1 0x1F DUP3 GT PUSH1 0x1 EQ PUSH2 0x1CD7 JUMPI DUP2 SWAP3 SWAP4 SWAP5 PUSH1 0x0 SWAP3 PUSH2 0x1CCC JUMPI JUMPDEST POP POP DUP2 PUSH1 0x1 SHL SWAP2 PUSH1 0x0 NOT SWAP1 PUSH1 0x3 SHL SHR NOT AND OR SWAP1 SSTORE JUMP JUMPDEST ADD MLOAD SWAP1 POP CODESIZE DUP1 PUSH2 0x1CB6 JUMP JUMPDEST PUSH1 0x1F NOT DUP3 AND SWAP1 DUP4 PUSH1 0x0 MSTORE DUP1 PUSH1 0x0 KECCAK256 SWAP2 PUSH1 0x0 JUMPDEST DUP2 DUP2 LT PUSH2 0x1D21 JUMPI POP SWAP6 DUP4 PUSH1 0x1 SWAP6 SWAP7 SWAP8 LT PUSH2 0x1D08 JUMPI JUMPDEST POP POP POP DUP2 SHL ADD SWAP1 SSTORE JUMP JUMPDEST ADD MLOAD PUSH1 0x0 NOT PUSH1 0xF8 DUP5 PUSH1 0x3 SHL AND SHR NOT AND SWAP1 SSTORE CODESIZE DUP1 DUP1 PUSH2 0x1CFE JUMP JUMPDEST SWAP2 SWAP3 PUSH1 0x20 PUSH1 0x1 DUP2 SWAP3 DUP7 DUP12 ADD MLOAD DUP2 SSTORE ADD SWAP5 ADD SWAP3 ADD PUSH2 0x1CE9 JUMP JUMPDEST DUP3 PUSH1 0x0 MSTORE PUSH1 0x20 PUSH1 0x0 KECCAK256 PUSH1 0x1F DUP4 ADD PUSH1 0x5 SHR DUP2 ADD SWAP2 PUSH1 0x20 DUP5 LT PUSH2 0x1D77 JUMPI JUMPDEST PUSH1 0x1F ADD PUSH1 0x5 SHR ADD SWAP1 JUMPDEST DUP2 DUP2 LT PUSH2 0x1D6B JUMPI POP PUSH2 0x1C9C JUMP JUMPDEST PUSH1 0x0 DUP2 SSTORE PUSH1 0x1 ADD PUSH2 0x1D5E JUMP JUMPDEST SWAP1 SWAP2 POP DUP2 SWAP1 PUSH2 0x1D55 JUMP JUMPDEST DUP1 SLOAD PUSH9 0x10000000000000000 DUP2 LT ISZERO PUSH2 0x18BF JUMPI PUSH2 0x1DA3 SWAP2 PUSH1 0x1 DUP3 ADD DUP2 SSTORE PUSH2 0x1AB1 JUMP JUMPDEST SWAP2 SWAP1 SWAP2 PUSH2 0x55E JUMPI PUSH2 0x1A46 SWAP2 PUSH2 0x1C76 JUMP JUMPDEST PUSH1 0x2 PUSH1 0x1 SLOAD EQ PUSH2 0x1DC4 JUMPI PUSH1 0x2 PUSH1 0x1 SSTORE JUMP JUMPDEST PUSH4 0x3EE5AEB5 PUSH1 0xE0 SHL PUSH1 0x0 MSTORE PUSH1 0x4 PUSH1 0x0 REVERT JUMPDEST PUSH1 0x0 SLOAD PUSH1 0x1 PUSH1 0x1 PUSH1 0xA0 SHL SUB AND CALLER SUB PUSH2 0x1DE9 JUMPI JUMP JUMPDEST PUSH4 0x118CDAA7 PUSH1 0xE0 SHL PUSH1 0x0 MSTORE CALLER PUSH1 0x4 MSTORE PUSH1 0x24 PUSH1 0x0 REVERT INVALID LOG2 PUSH5 0x6970667358 0x22 SLT KECCAK256 0xFC 0xCF JUMP SWAP1 SSTORE 0xBE CODESIZE REVERT 0xC0 ADDRESS 0xD 0xE6 MSTORE DUP9 0xB7 0x4B 0xAE OR SAR 0x4E 0x24 DUP5 0xA7 0x2F PUSH2 0xB800 POP ADDMOD 0x4B SWAP11 CREATE2 PUSH5 0x736F6C6343 STOP ADDMOD SHL STOP CALLER "},"methodIdentifiers":{"MIN_LOAN_AMOUNT()":"96fa212f","MIN_LOAN_DURATION()":"89d99a05","cancelLoan(string)":"c70f2e2b","collectedFees(address)":"1cead9a7","getLoan(string)":"c47d2586","getUserLoans(address)":"02bf321f","isLiquidatable(string)":"513099c6","liquidateLoan(string)":"18a1cc09","loans(string)":"c6141f63","matchLoan(string)":"d947bee4","owner()":"8da5cb5b","platformFeeBps()":"22dcd13e","renounceOwnership()":"715018a6","repayLoan(string)":"035dc3d9","requestLoan(string,address,uint256,uint256,address,uint256,uint256)":"5c396ed7","setPlatformFee(uint256)":"12e8e2c3","transferOwnership(address)":"f2fde38b","userLoans(address,uint256)":"d8bad5bd","withdrawFees(address)":"164e68de"}}}}}